:020000040000fa
:080000000001040000000000f3
:020000040000fa
:040008009e06000050
:020000040000fa
:04000c009e0600004c
:020000040000fa
:040010009e06000048
:020000040000fa
:040014009e06000044
:020000040000fa
:040018009e06000040
:020000040000fa
:04001c009e0600003c
:020000040000fa
:040020009e06000038
:020000040000fa
:040024009e06000034
:020000040000fa
:040028009e06000030
:020000040000fa
:04002c009e0600002c
:020000040000fa
:040030009e06000028
:020000040000fa
:040034009e06000024
:020000040000fa
:040038009e06000020
:020000040000fa
:04003c009e0600001c
:020000040000fa
:040040001a0600009c
:020000040000fa
:040044009e06000014
:020000040000fa
:040048009e06000010
:020000040000fa
:04004c00022301008a
:020000040000fa
:040050004a2201003f
:020000040000fa
:0400540006020000a0
:020000040000fa
:040058009e06000000
:020000040000fa
:04005c009e060000fc
:020000040000fa
:04006000f0010000ab
:020000040000fa
:040064009e060000f4
:020000040000fa
:040068009e060000f0
:020000040000fa
:04006c009e060000ec
:020000040000fa
:040070009e060000e8
:020000040000fa
:040074009e060000e4
:020000040000fa
:040078009e060000e0
:020000040000fa
:04007c00c02301009c
:020000040000fa
:0400800086060000f0
:020000040000fa
:040084009e060000d4
:020000040000fa
:040088009e060000d0
:020000040000fa
:04008c009e060000cc
:020000040000fa
:040090009e060000c8
:020000040000fa
:040094009e060000c4
:020000040000fa
:040098009e060000c0
:020000040000fa
:04009c009e060000bc
:020000040000fa
:0400a0009e060000b8
:020000040000fa
:0400a4009e060000b4
:020000040000fa
:0400a8009e060000b0
:020000040000fa
:0400ac009e060000ac
:020000040000fa
:0400b0009e060000a8
:020000040000fa
:0400b4009e060000a4
:020000040000fa
:0400b8009e060000a0
:020000040000fa
:0400bc009e0600009c
:020000040000fa
:0400c0009e06000098
:020000040000fa
:0400c4009e06000094
:020000040000fa
:0400c8009e06000090
:020000040000fa
:0400cc00d42101003a
:020000040000fa
:0400d0009e06000088
:020000040000fa
:0400d4009e06000084
:020000040000fa
:0400d8009e06000080
:020000040000fa
:040108009e0600004f
:020000040000fa
:04010c009e0600004b
:020000040000fa
:040110009e06000047
:020000040000fa
:040114009e06000043
:020000040000fa
:040118009e0600003f
:020000040000fa
:04011c009e0600003b
:020000040000fa
:040120009e06000037
:020000040000fa
:040124009e06000033
:020000040000fa
:040128009e0600002f
:020000040000fa
:04012c009e0600002b
:020000040000fa
:040130009e06000027
:020000040000fa
:040134009e06000023
:020000040000fa
:040138009e0600001f
:020000040000fa
:04013c009e0600001b
:020000040000fa
:040140009e06000017
:020000040000fa
:040144009e06000013
:020000040000fa
:040148009e0600000f
:020000040000fa
:04014c009e0600000b
:020000040000fa
:040150009e06000007
:020000040000fa
:040154009e06000003
:020000040000fa
:040158009e060000ff
:020000040000fa
:04015c009e060000fb
:020000040000fa
:040160009e060000f7
:020000040000fa
:040164009e060000f3
:020000040000fa
:040168009e060000ef
:020000040000fa
:04016c009e060000eb
:020000040000fa
:040170009e060000e7
:020000040000fa
:040174009e060000e3
:020000040000fa
:040178009e060000df
:020000040000fa
:04017c009e060000db
:020000040000fa
:040180009e060000d7
:020000040000fa
:040184009e060000d3
:020000040000fa
:040188009e060000cf
:020000040000fa
:04018c009e060000cb
:020000040000fa
:040190009e060000c7
:020000040000fa
:040194009e060000c3
:020000040000fa
:040198009e060000bf
:020000040000fa
:04019c009e060000bb
:020000040000fa
:0401a0009e060000b7
:020000040000fa
:0401a4009e060000b3
:020000040000fa
:0401a8009e060000af
:020000040000fa
:0401ac009e060000ab
:020000040000fa
:0401b0009e060000a7
:020000040000fa
:0401b4009e060000a3
:020000040000fa
:0401b8009e0600009f
:020000040000fa
:0401bc009e0600009b
:020000040000fa
:0401c0009e06000097
:020000040000fa
:0401c4009e06000093
:020000040000fa
:0401c8009e0600008f
:020000040000fa
:0401cc009e0600008b
:020000040000fa
:0401d0009e06000087
:020000040000fa
:0401d4009e06000083
:020000040000fa
:0401d8009e0600007f
:020000040000fa
:10020000afba21000eff21000e018800000000009f
:10021000000020000000e000020032000001200089
:10022000200288000e00070000742d00010020004d
:10023000810f700001003200140007000000200050
:100240000000e00002003200000002000000000098
:10025000b4200200010000000040da000000fe00af
:100260004440a900603120000000e000030032009b
:1002700000002000a00188004440a8000000060003
:100280008a1f78008b1f780000000600910188000b
:10029000800478000000eb001a003700e28444007c
:1002a00032a0b4009905ba00e284440032a0b40040
:1002b0009906ba00e284440032a0b4000006eb00c4
:1002c000476fde00fd07b200636ce10003003a00f7
:1002d000ebff07000000eb000a003700606ce10054
:1002e00004003a00005deb008b05e900fdff3e00d5
:1002f000040037006168e100010032000086eb0075
:100300000b00070019c7ba001905ba000e04e00077
:1003100003003a000a00e000e0ff3a000000060097
:10032000fe07b2009e0188008a047800f5ff3700be
:10033000395dba008b05e9000c003200295dba0076
:100340008b05e900080032000c00e00003003a00d1
:10035000e284440032a0b400f5ff370019ddba0092
:100360008b05e900faff3a008904e800e1844400c3
:1003700032a0b4000000060038d0040000000000e5
:10038000e0cf04000000000002f1040000000000c3
:10039000d2f1040000000000b8cc0400000000000e
:1003a00066cf0400000000005ef9040000000000b9
:1003b000f6ce04000000000044f704000000000036
:1003c000a4150400010000002ac804000000000079
:1003d0006a14040001000000cc10040001000000b9
:1003e0003400f800881f780008002000a801880069
:1003f0004f0478000000fa0085c0a900e468ef000f
:100400000080fa003400f90000400600809fbe0022
:10041000829fbe003400f80000002000a001880088
:100420000200fa007c68ef007d68ef008560a9009b
:100430002188200091407800f0c3b30080cf5000a5
:1004400003003e0082c8bf000040e80082e8b70019
:1004500020448000e10f400003003200204480006f
:100460000000e800204488007ec8bf000004e000cf
:100470002700320000282000000f7800c0438000d1
:100480009e007800910078000001400000402200aa
:1004900000004100010878001e8fe800c043800082
:1004a0009e007800910078004006b00000014000f6
:1004b0000040220000004100010878001e8fe80083
:1004c000c04380009e00780091007800800cb0004e
:1004d00000014000004022000000410001087800b7
:1004e0001e8fe800c04380000000e800c043880081
:1004f000c143800030062000808f5000c6013600c6
:100500007828ef0010c0b3007de8b700c2013700c3
:10051000a1e2a900c001200050158800111580003b
:1005200030fc2f00008060000030a0001015880013
:100530002115800000fc2f008080600070022000e8
:10054000010070002015880061882000914078002b
:10055000d0c3b30080cf50000d003a00c00f200080
:10056000501588001115800030fc2f0000806000bd
:100570004001b300101588002115800000fc2f00f9
:10058000008060003001b300201588005b00370058
:100590006188200091407800e0c3b30080cf500014
:1005a0002a003a001115800030fc2f000080600006
:1005b0000040a000101588002115800000fc2f00cd
:1005c000008060007001b3002015880087c8bf005c
:1005d0000080fb00e20f500012003200e20f5000da
:1005e00005003c000000e00008003200e10f500070
:1005f0000900320041003700e30f50000c003200c8
:10060000e40f50000e0032003c003700c011210002
:100610005015880039003700c0212200501588008d
:1006200036003700c04124005015880033003700e1
:10063000c081280050158800000000002f003700fe
:10064000f0012000501588002c00370086c8bf003c
:10065000e24f500029003a001115800030fc2f00b5
:10066000008060000040a000101588002115800067
:1006700000fc2f00008060007001b300201588008e
:1006800087c8bf000080fb00e20f5000120032005c
:10069000e20f500005003c000000e00008003200be
:1006a000e10f50000900320014003700e30f500042
:1006b0000c003200e40f50000d0032000f00370034
:1006c000c0112100501588000c003700c021220005
:1006d0005015880009003700c041240050158800db
:1006e00006003700c081280050158800030037003d
:1006f000f00120005015880000000000a1e2a800d1
:1007000000282000000f78006188200091407800c8
:10071000f0c3b30080cf500003003a0087c8bf0089
:10072000e44f50002a00320086c8bf00e34f50005b
:1007300003003a0087c8bf00e44f50002400320095
:10074000c04380009e0078009100780000014000c6
:100750000040220000004100010878001e8fe800e0
:10076000c04380009e007800910078004006b000f1
:100770000001400000402200000041000108780014
:100780001e8fe800c04380009e0078009100780032
:10079000800cb00000014000004022000000410039
:1007a000010878001e8fe800c04380000000e800c8
:1007b000c0438800c143800030062000808f500075
:1007c000030036007828ef0010c0b3007de8b700c2
:1007d0006188200091407800e0c3b30080cf5000d2
:1007e00022003a00d04380000000e800d043880097
:1007f000d143800010032000808f5000010036009c
:100800007a28ef00d04380009e00780091007800a5
:1008100000014000806522000000410001087800ce
:100820001e8fe800d04380009e0078009100780081
:100830002003b0000001400080652200000041005c
:10084000010878001e8fe800d04380009e007800e9
:10085000910078004006b000000140008065220051
:100860000000410001087800dc00370061882000aa
:1008700091407800f0c3b30080cf500063003a008d
:1008800087c8bf000080fb00e20f50001e0032004e
:10089000e20f500005003c000000e00008003200bc
:1008a000e10f50000f003200cc003700e30f500082
:1008b0001e003200e40f500026003200c70037004f
:1008c0001e00780010007800203c89001e8fe80090
:1008d0001e00780010007800603c8900e2e2a80069
:1008e000be0037001e00780010007800303c890000
:1008f0001e8fe8001e00780010007800703c890010
:10090000e302a800b50037001e0078001000780050
:10091000403c89001e8fe8001e007800100078001f
:10092000803c8900e802a800ac0037001e00780077
:1009300010007800503c89001e8fe8001e007800ef
:1009400010007800903c8900e822a8000000000018
:10095000a20037001e00780010007800b03c89002b
:100960001e8fe8001e00780010007800a03c89006f
:100970001e8fe800c04380009e0078009100780040
:100980000001400000402200000041000108780002
:100990001e8fe800c04380009e0078009100780020
:1009a0004006b0000001400000402200000041006d
:1009b000010878001e8fe800c04380009e00780088
:1009c00091007800800cb00000014000004022003f
:1009d0000000410001087800c04380000000e800ea
:1009e000c0438800c143800030062000808f500043
:1009f000030036007828ef0010c0b3007de8b70090
:100a0000d042a800d022a8007400370086c8bf00da
:100a1000e34f500071003a0087c8bf000080fb0020
:100a2000e20f500022003200e20f500005003c00af
:100a30000000e00008003200e10f50001100320019
:100a400066003700e30f500024003200e40f50002e
:100a500032003200610037001e007800100078007c
:100a6000c03c89001e8fe8001e007800100078004e
:100a7000003d8900e2e2a90010c0b30087e8b7009a
:100a8000560037001e00780010007800d03c890026
:100a90001e8fe8001e00780010007800103d8900cd
:100aa000e302a90020c0b30087e8b7004b0037007d
:100ab0001e00780010007800e03c89001e8fe800de
:100ac0001e00780010007800203d8900e802a9008f
:100ad00030c0b30087e8b700400037001e00780040
:100ae00010007800f03c89001e8fe8001e0078009e
:100af00010007800303d8900e822a9000044800001
:100b0000ea0f500003003a0040c0b30087e8b70086
:100b1000320037008768ef00300037001e00780091
:100b200010007800503d89001e8fe8001e007800fc
:100b300010007800403d89001e8fe800d042a900d7
:100b4000d022a9008768ef00c04380009e00780093
:100b500091007800000140000040220000004100a8
:100b6000010878001e8fe800c04380009e007800d6
:100b7000910078004006b0000001400000402200d3
:100b800000004100010878001e8fe800c04380008b
:100b90009e00780091007800800cb00000014000b9
:100ba000004022000000410001087800c04380009e
:100bb0000000e800c0438800c143800030062000e8
:100bc000808f5000040036007828ef0010c0b3007a
:100bd0007de8b700010037000000000061882000b8
:100be000914078008181fb0010c0b300f203200027
:100bf000828f510001003c000040eb008140e80082
:100c00008141780062882000034978000004e000f8
:100c1000010032008668ef0010c0b3007ce8b70026
:100c20000080fa003400f9004f01be004f00be0002
:100c3000004006003600f800809fbe00829fbe0084
:100c4000849fbe00869fbe003400f8000000200094
:100c5000a00188000200fa0041478000010f7800df
:100c600084c0a9001e0037001e007800404090009c
:100c7000e14f500017003a001e0078001000780085
:100c80000000e000130032001e0078001000900009
:100c90008000e8001e007800110098001e00780017
:100ca00010009000800078001e007800100078008e
:100cb0000000e900808f5000060036001e0078001a
:100cc00030009000000001001e0078008000eb0062
:100cd000110098001e007800c0009000010f7800fd
:100ce0001e0078000000e000dfff3a000080fa00fc
:100cf0003400f9004f03be004f02be004f01be009a
:100d00004f00be003600f900004006003400f80035
:100d1000881f780008002000a80188004f04780090
:100d20000000fa0086c0a9001fe1a80021e1a90087
:100d30000080fa003400f900004006000040da00ac
:100d40000000fe00000178001001e2000300350001
:100d50001061a800000028001021b70030088000b2
:100d6000410880000200e000010032000089be005e
:100d700000000600889fbe008004780030cd80000f
:100d80000000e00004003a00450007000084eb008a
:100d90000000e0000800350038cd80000900e000c8
:100da00005003200090044003d0007000000e0009b
:100db00001003d000084eb00080078004f04be00f5
:100dc000000006000c02e20004003d000f42ab00f0
:100dd000020032000f02ab00feff32000040da00da
:100de000feff370000c0da00000006000a00fa002b
:100df000e20f50001f003e0040cd8000e10f500088
:100e000006003200e0212000a521200083212000df
:100e1000642120000000e00004003a00402120008e
:100e200005212000e3202000c42020000600280027
:100e30009403630002003a0007087800140a730064
:100e400013a8a30001003a0013a0a000020078003c
:100e5000050037001388a300feff32003102fb00bb
:100e6000840a78000000e9000000e000f9ff3a0081
:100e70000800370033002000b3bf9f00c0bf9f00b1
:100e8000d1bf9f00e2bf9f006a805700d5ff0700d7
:100e90006fb99700020078000080fa000000060099
:100ea000800078000100e00003003a00a09a2100d1
:100eb00030cd8800000005000080eb00a2ba2100c0
:100ec000828f500002003e0031cd88000000eb0010
:100ed000000006004f89de0082017800bd01370066
:100ee000889fbe008a9fbe008c1f7800c901070042
:100ef0001002200002003b0090478800cd0137001f
:100f00008a0062006408e10002003a00904788000d
:100f1000d50137006108e100fcff32000800be0087
:100f2000030478000b00070001f0a100d1010700c5
:100f300008f0a600040037000001be009104240060
:100f4000b0fd20007900070009f0a70001f0a20021
:100f5000c1013700889fbe008a9fbe008c1f7800a9
:100f6000ac010700b301330003866c006450e1005c
:100f70002e0032006420e100330032006150e100b5
:100f80002f0032006120e1003100320085855500dc
:100f9000eb07b0000900200008042000050037001e
:100fa0000804440089844c000a0031000603430011
:100fb00087834b000001530081815b00f8ff330001
:100fc0000203be000800a0000804440089844c000d
:100fd000f6ff3900c639dd008301730001003200dd
:100fe000130020008904d1000884d3000998a300cd
:100ff000050032000800a7000300a0008904d1000a
:101000000884d3008b05e8008904d1000884d3004c
:101010000001eb000281d200fb01070001f0a100fa
:101020000cf0a70001f0a0008b0137006420e10064
:101030008d0132000801be000200be00f7ff37003c
:101040006120e100880132006000b800f3ff370042
:101050000000200001f82700f0ff3700889fbe0045
:101060008a9fbe008c1f78006a010700710133005f
:1010700003866c006450e100240032006420e1002b
:10108000270032006150e100220032006120e100bf
:10109000210032008b854200eb07b1000134b8001b
:1010a000003ab8000804420089844a00013ab800b6
:1010b0000030b8008880400009014a000400330075
:1010c0000000400081804800020149008b05e900d2
:1010d000c909dd0083017000010032001300200007
:1010e000c814de004814dd004709de001200b2001b
:1010f000c808de0008847000c301070001f0a100e9
:101100000cf0a70001f0a000530137006120e100be
:10111000550132000801be000200be00f7ff370093
:101120006150e100fcff3a004f01370003f0a200dc
:10113000889fbe008a9fbe008c1f78003501070083
:101140003c0133006450e1004f0032006420e100b4
:101150005200320003826c0007003b000905d000fa
:101160000306d000820f54000c065d000200390017
:10117000020032008901780003067800858255005c
:1011800004003d000003fd008103fd008502ea002c
:101190008b854200840f720002003b00600010004b
:1011a000e08018006011b8000005eb007a28e1002b
:1011b0000a00390006007800c75ddd00f707b200bd
:1011c000878075002d003700828171000a01780048
:1011d000610560008180d1000080d3008502e900b4
:1011e000f9ff3b00060440008784480002003b00f2
:1011f00060041400e0841c000988a300070032008a
:101200008a81710082817100610164008904d100ca
:101210000884d3008b05e800170037000978a30085
:1012200013003a000b00e000130034008b05e900c6
:101230000804440089844c000a4474000978a3001f
:101240000d003a000b00e000070034008b05e900b8
:101250000804440089844c0001003a000b0020007f
:101260000978a300f7ff32000001eb00020037000d
:10127000828171000a017800630107000cf0a70069
:1012800001f0a000f40037006420e10002003a0001
:10129000838f6c00f40033000801be000200be0022
:1012a000ed0037000001eb007d0107000400320073
:1012b0000200200003f8230001f0a7009bff0700b5
:1012c000000006000001be009c0107000470a7009a
:1012d00003f0a1006509b100160032000d003500d1
:1012e0006828e10006003500f0ff2f00f1ff27001d
:1012f0000300e00013003b0001002800000005008f
:1013000000004000818048008502e900fcff3a00af
:1013100008003700f88f420002003c008000eb001c
:10132000000005008100d1000080d3008502e800a4
:10133000fcff3a000300e00002003b0060001000e8
:10134000e080180000000600140020009001370023
:10135000f4ff2f008e013700839f68000100e0003a
:1013600002003d0060001000e08018000300e00073
:1013700002003d0060011100e08119009f0107009b
:101380004f00e00002003b0060001000e080180009
:10139000000006000001eb00a8013700889fbe0096
:1013a0008a9fbe008c1f78000004be006301070006
:1013b0000478a30026003a006120e10025003200f5
:1013c00009f8a30025003a006420e1002100320062
:1013d000f507b1000508a30002003200000040003c
:1013e000818048006044b800031020000200200003
:1013f00000004000818048000805440089854c00b9
:101400000a0541008b8549000a0550008b8558006c
:10141000030033000a00be000204740083847400d9
:101420008301d1000281d300830f7100f0ff3a00e5
:101430008904d1000884d30060014900820178004a
:10144000c1adde00fb07b000ef00070082003700ef
:101450000960a0000800be007f00370012022000d3
:1014600092478800f0ff2f00f1ff27007a00370035
:101470000400200046013700889fbe008a9fbe00fe
:101480008c9fbe00d4010700850478000005be00d3
:101490006420e10049003e006220e10003003200c8
:1014a000090035000bf8a300440032000bf8a3003c
:1014b000080032001002200090478800f0ff2f0043
:1014c000f1ff27003d00370001f82f000000200049
:1014d0003a0037003d00070014ff07000006be0079
:1014e0000a00be00324f200053f3230098ff07008c
:1014f000060034000c00be00340007000bff07009c
:101500000006be000a00be00020037008904e900a0
:101510000c00be002d000700d0fe07002b000700c6
:1015200003ff07000001be000c00be0089fe07009b
:101530000005be000001be00c8fe07000006be0098
:10154000a2f32300430d2c00f9fe0700809fbe008c
:101550000c00be00d2e32700d3f02b00bffe070033
:101560004f01be007bfe07000006be000a01be0060
:10157000bafe07000a01be00edfe07000006be002d
:101580006148b90053fe07000005be00320828007c
:10159000e3952b00b1fe07000c01be00e4fe07003e
:1015a0000006be000a00be000200280013f323005c
:1015b000aafe07000c01be00ddfe07004f06be00bc
:1015c0004f05be004f04be000000060003f02300dc
:1015d00002000500881f7800030478000300e00083
:1015e00007003d0060001000e08018006001190055
:1015f000e081190002003b0001f02d0003003700dc
:101600008201070008f0a70001f0a0004f04780055
:10161000000006000004be00c80007000003be0072
:101620000405be000200be00c4000700844f750020
:10163000000006000200be006450e1000500360014
:101640006420e100020036000968a30001003a00ae
:101650000800be000160a0004f0678004f05be00e4
:101660004f04be0000000600f0ff2f00f1ff27002e
:10167000f9ff3700889fbe008a9fbe008c9fbe0086
:101680000004be00ad0007000800be008906780017
:101690006420e10008003900040032000160a0006d
:1016a00012022000924788005300370091fc23006b
:1016b000b0fd20004e0037000006eb0009f0a1004d
:1016c00003f82300020020000800be001eff0700f0
:1016d0000600340001f82300000020000801be00cd
:1016e0001cfe07000004be002c0020000800be0005
:1016f00093e82300320a230013ff0700120034008e
:101700000801be00d1fd2300703d2b0088fe0700bc
:101710000005be00b3f32300f27a26000800be00e5
:101720004efe070003f82300020020007ffe0700a2
:101730000801be007efe07000a01be0005fe07008c
:101740000004be000c06e8000800be0001f0a10085
:101750000200200003982300fbfe07000800be00e3
:10176000160035000801be003cfe07000005be0063
:1017700032cd2c0043fb23006dfe0700809fbe008e
:101780001269280003d52b000a00be0033fe0700b3
:10179000620f210013ef2b0065fe07000a01be0057
:1017a0002efe07004f01be00eafd07000801be0043
:1017b0002afe07000801be005dfe07000c00e000e5
:1017c0000b0032000c10a70001f0a200b2fd2000b7
:1017d00093fc23006260e1000400320022a9200093
:1017e00063f023000c10a70063f8230050fe0700ed
:1017f0000df0a70001f0a2004f06be004f05be008d
:101800004f04be00000006008100200061805500ea
:101810000b003d000b00200061fe2f000100e100e5
:101820001d00340082817100610164008904d100cf
:101830000884d3000000e800faff3a00710020009d
:1018400061006400030070000200600009003200c3
:1018500061044400e0844c000988a50005003200c2
:101860008b05e8006808e10002003a008904d10015
:101870000884d300f20f20000258e10005003d006b
:10188000c75ddd00f907b2008980750008007800a7
:10189000000006000bf827008b0078000000050010
:1018a000889fbe008a9fbe000003be002300070081
:1018b0008505780082815200020020006220e1004c
:1018c00004003a00f307b100040035007718e10086
:1018d000040035000600be00140037006000b800a8
:1018e0000f003700f50f2000faff2f008502d1000e
:1018f0000a85d3008301e900fcff3b00818462007c
:1019000000046500890f7400f2ff32008582ea004e
:101910000a85ea008184620000046500baff0700be
:1019200007f0a70001f0a0000081eb000200e0003a
:101930004f05be004f04be0000000600c70ade00cf
:10194000f107b200f50fb20008003200e1cf42000b
:10195000020032000170a00024000500810f700019
:10196000010032000408050044000500810f7000ea
:1019700002003a00140005008502e9000000400062
:1019800081c04800fcff3b000170a000240005005e
:10199000889fbe008a9fbe00841f78001dff07003d
:1019a0004f00780011003300f0ff2f00838f6c0090
:1019b00006003b00040565000a00a7000800370088
:1019c00009f0a6001000200008003700820f540024
:1019d000838f5c00030039001000200001003e00ee
:1019e0000000200009f0a7000000ea004f05be003b
:1019f0004f04be000000e000000006006022b800b6
:101a0000060220000000d0008180d2000482d200b3
:101a10008582d2000000a0000202520083825a0098
:101a2000030031000202420083824a000000a1004c
:101a30000603e900f3ff3a0000000600889fbe009d
:101a40008a9fbe008c9fbe000206780001f0a700ae
:101a50000cf0a0000004be00b8ff07000800be00a4
:101a60006420e1000700390002003a00f1ff27007e
:101a7000f0ff2f000160a0001202200092478800b2
:101a80005100370009f0a1000800be00020020004c
:101a900003f823002efe0700f4ff3c000800be0000
:101aa000020020000398230027fe07000800be0064
:101ab000300035000200200003f0230024fe070060
:101ac00005003c000800be000801be0063fd0700e1
:101ad0000005be000e0037000c10a2000000200020
:101ae00001f823000801be0090fd0700020020005d
:101af00003f0230059fd07000005be0027fe070084
:101b00000200200003002c0054fd07000004be006a
:101b10000a00be00b2d02800130b2c0084fd070081
:101b20000a01be004dfd0700020f2500330b240003
:101b30007ffd0700809fbe000a00be005206220003
:101b400013f02b0045fd0700b2662100f3f62300d9
:101b500077fd07000a01be0040fd07004f01be00ef
:101b6000fcfc07000801be003cfd07000801be00a8
:101b70006ffd07000c00a70007003700b2fd200032
:101b800093fc23000c10a70069fd07000cf0a700d0
:101b900001f0a2000c0037000cf0a7000200370093
:101ba00001f0a20004003700b2fd200093042400dd
:101bb0000c10a60003003700b2fd200093fc2300a8
:101bc0000c10a7005afd07004f06be004f05be00cf
:101bd0004f04be00000006000003be0057ff0700d0
:101be0006220e100020032000600be000500050090
:101bf000e507b100f107b20004f023008480700013
:101c000007f0a70001f0a00024000500889fbe0097
:101c10008a9fbe000082700004027100048271007d
:101c2000260032000004be000200be006011b800b1
:101c30006b092000950220000182cf000a003900c4
:101c40000541b1000082cf00070039000541b10015
:101c50000982cf00040039000541b1000882cf009d
:101c6000010039000541b100054252001200320066
:101c70000a003b0082817100610164008100d10093
:101c80000080d3008984d3000884d3008b05e8004a
:101c90000442e800f7ff3a00070037000804440058
:101ca00089844c0000004800818048008b05e900d1
:101cb0000442e900f9ff3a00d3fe07004f05be00d9
:101cc0004f04be0000000600020ab900001bb90064
:101cd0000200b800810042008100430000000600bd
:101ce000889fbe008a9fbe008c9fbe004400f80003
:101cf000070f2000270288003400f80007f02f00ab
:101d00000338e10004003200270280004700b300de
:101d100027028800a3018800811f78001900200095
:101d2000804cdd001300200002047800800678005b
:101d30008904d100424edd00010578000302e9006c
:101d400004800800170000008a0546004218dd00e4
:101d50000902e900048008001000000000000000f3
:101d60004620c3003b025200df35c100080440009a
:101d70001381c200ab825200264dc5003e85c400cf
:101d8000bb00cd00bb80cd003a00ca002a80ca004b
:101d90000700c9000580c900ba00cd00ba80cd0097
:101da0000a054600020478008301d0008d06e90090
:101db000dfff3c004f0078003400f9004400f900d8
:101dc0004f06be004f05be004f04be0000000600d7
:101dd0004600f8005000f80002202000320288007f
:101de00002002800130020008019dd00028171002c
:101df000820288000100780001017800260020009e
:101e0000470020008301e90003800800070000006c
:101e10000110e100040034001102be0092087800b5
:101e2000e2307b000489be008780400012197800f0
:101e30005000f9004600f900000006000c00fa000e
:101e4000889fbe0000047800f0ff2700d0bf9f00ed
:101e50008004eb0099bf9f0088bf9f00a8bf9f0030
:101e6000200c2000b0bf9f0078815700cfb09700b2
:101e700070805700100107000fb8970009487800dc
:101e80008fb89700088050004f04be000080fa0011
:101e900000000600800078003104e000feff3a00f8
:101ea0000080ea000080400000000600889fbe001d
:101eb0008a9fbe008c9fbe004198210022cc8000ea
:101ec0000200e0000b003a006481400022cc880050
:101ed00072cc8800a100980061cc8800214190005c
:101ee0000204a000a2409800614190000204a000fa
:101ef000e2409800670440004244de004244dd00b6
:101f000064cc8000a19a2100a9ba210081845400e8
:101f10002d002000110009008d04d80080067800f3
:101f20000886e8000c0646008001eb00020037003e
:101f3000130020000b027800a44090000108a300c9
:101f4000020032000a003700120a780014017800fb
:101f5000a24090000108a300fbff3200880042006d
:101f6000810f5100020039000800e00042003d00ee
:101f7000940578000b00a100848f5500edff3e0012
:101f8000e18f5100eaff3a008d0f54000200360045
:101f9000890f5400140039006141b8006148b9004c
:101fa000b4ff2f00050020000000520081805a007d
:101fb000800f5100818f59000200350064054400f4
:101fc0000a003700a09a2100daba21000005550066
:101fd00008054500110009000985d8000980b900ed
:101fe00000057800010037000c0578000a00780031
:101ff00060fb0700e10f400005003a006405440063
:102000000a0078005bfb0700e10f40002b00320064
:1020100071cc80008008780071cc8000e4814000a1
:1020200021419000830f5000020032000204a00002
:10203000010037000204a100a24098006405550089
:102040000a0540000a0878007acc880041982100ef
:10205000010d780072cc8000a24090000104a00025
:1020600021419800a04090000104a1002140980067
:102070008001eb00afff370061cc8800810f510079
:10208000070036001101be0082cc880093cc880086
:10209000940878000041eb0061cc8000a2409800d9
:1020a00063cc8000030a7800a44090000104a000e3
:1020b0002142980064004200010037000000eb005c
:1020c0004f06be004f05be004f04be0000000600d4
:1020d0000000e000080032006400500061cc800085
:1020e000810f50000100310060cc8800a0409000ba
:1020f0000104a1002140980000000600889fbe0056
:102100008a9fbe000004be000900e00007003a00fc
:102110000000eb000800e000360032000800780004
:10212000ebff07000000eb00320037000800e00082
:1021300003003a00090078005cff07002d0037001b
:10214000640054009005780068f897000008a30028
:102150000200320008007800ddff07000900780067
:1021600052ff0700800478000000eb000900e00047
:1021700020003200888f54001b00320069bd970098
:102180000905550042d5de0088855500c2ddde0018
:102190000a0178008b0f5500010036000b01780012
:1021a0004211dd0088007800090078003200070045
:1021b000888f54000e0031004255dd000a8544002e
:1021c000880f55000a0036000804550042c4de009e
:1021d0004244dd000884440080cc800091cc800023
:1021e000008cbe00020037000800780001003700b4
:1021f000090078004f05be004f04be000000060035
:1022000000047800d202070008007800edfa070009
:102210008000eb00e0cc8800f1cc880011c0b30056
:10222000a09921000148780000000600a099210033
:102230001004e00002003a0010002000f4ff070044
:10224000d2e62400631c2400e0cc8000f1cc8000a6
:102250009dfe0700920323000300200000014100bf
:1022600081814900e2cc8800f3cc8800030078002b
:1022700000f0a10000000600800178000200370095
:10228000b15978000201e9000200e000fcff3a00c9
:1022900000000600d0019000028151004240a900d8
:1022a0000300340010017800014978000208e800ba
:1022b0000100780000000600f6874700889fbe00f6
:1022c0008a9fbe008c9fbe008e1f7800000578009c
:1022d000a1b79f00020778008004eb00900237004e
:1022e000afb097008100e800a1b79f0051c2b300d2
:1022f000814f500003003a00afb097000004eb009c
:1023000011003700ba0090000000fb000168a30034
:102310000700320009017800800078000a00780088
:10232000dcff07000000e00005003a007c023700f7
:102330008a00780087020700e10f4000780232002f
:102340008904e80076023700010078003141780006
:10235000d3c2b300834f51000c00320007003c0091
:10236000edc15100834f51000a003200ebc1410022
:10237000834f51000d003a000800370003c3b3003b
:10238000834f510009003a00060037000830a000d2
:10239000edff37000800a000ebff37000810a00099
:1023a000e9ff37000820a000e7ff37000818a30066
:1023b000010032000800a1000838a300010032002b
:1023c0000820a1008200fb000103b100e98f50004a
:1023d0000c003e00000178008000eb006a08b900a4
:1023e000b201fb000303b1008080410002007800cd
:1023f0009201fb000303b100e98f5100f7ff3600a3
:10240000060037008000eb00a3c2b300834f5100e9
:1024100002003a00ce0078000000e8008005eb00e2
:10242000e2c2b300904f110009003a0008e0a0009a
:1024300064415100d04f11000300320000017800c8
:102440000102780006003700ce0578000000e800a1
:1024500000017800090037006a58b9008085410002
:1024600002007800b201fb000303b100e98f5100c4
:10247000f9ff360084007800f5ff3700324078001d
:10248000a2b79f00c3c6b300834f5000250032009f
:102490000f003c0032c6b300824f5000880032006b
:1024a00004003c000004e000220232006b415100b5
:1024b0000f00370042c6b300824f500017003200b1
:1024c00065414100824f500094003a0013003700ec
:1024d00032c7b300824f50001b00320007003c009f
:1024e00064415100824f5000100032000241e80068
:1024f000824f500089003a000f00370052c7b300e6
:10250000824f50008a00320063414100824f5000e8
:1025100082003a00e0df9f0009003700e0df9f0003
:10252000850037000840a000d4ff3700e0df9f009f
:102530000860a00080003700e0df9f000850a00086
:102540000870a0007c003700e0df9f004e0078009c
:10255000000678000000e00001003a00ec7c220058
:102560000c0178000000eb00010037000000e800db
:10257000e24178000304e000fcff3a0080067800a6
:102580000b00e000030032008d8f55000100310088
:102590008b0678008005eb008d8f5000010036001f
:1025a0008d855000680464002a003a00110037004d
:1025b0003a0090000068a30007003200090178008b
:1025c000010220000a00780032ff07000000e0004e
:1025d00006003a00060037008a007800000220005a
:1025e000dc010700e10f4000010032008904e8002f
:1025f0008b05e9000b00e000edff3a008085eb0061
:10260000140037003a0090000068a300090032006f
:102610000c007800b000fb0000067800090178008b
:102620000a0078001bff07000000e00008003a00e5
:10263000080037008c0078003100fb0001067800ac
:102640008a007800c3010700e10f4000010032005a
:102650008904e8000d0078008006e9000000e00031
:10266000e8ff3a000800e000ad0132001100370039
:102670003a0090000068a3000700320009017800ca
:10268000010220000a00780002ff07000000e000bd
:1026900006003a00060037008a0078000002200099
:1026a000ac010700e10f4000010032008904e8009e
:1026b0008b05e9000b00e000edff3a0098013700c0
:1026c0004e017800cf91de00c81ade004818dd0008
:1026d0004812de0004027000e4df9f000848a300f7
:1026e000080032000404e00006003200e14f42001e
:1026f00004003200f4df9f0082e79f002d002000dd
:1027000002003700f2df9f001d002000e2fd2f00d5
:102710000f0141000206e80099ff3700e0df9f004b
:10272000ecfd2f000f0646001d00200094ff37002f
:10273000e0df9f00080cb30008017800020cb20033
:10274000700064000200e0000d003a000000e000ac
:10275000020032004e06be00020037004e0678002e
:10276000cfe6de00e00f5600e08f5e000a003d007d
:102770003800b30060061600e0861e000600370031
:102780000000e000020032004e06be0002003700ea
:102790004e0678008006eb000b00e00005003a00d2
:1027a0008c8576000bf0a7008b05ea008b05e9000d
:1027b000cf5dde0088017800030cb200e3b79f0014
:1027c00000042000808f51002300320003003c00f1
:1027d0000300e000080032002d0037000008200050
:1027e0006fb29700800f52000d003200000c2000e5
:1027f000800f520026003a00627d220010c0b30014
:1028000064014100b20f5600a28f5e001f00390024
:102810000040e800ea4f5000f9ff3a001b00370083
:1028200010c0b3000201200003002000820f5600f8
:10283000838f5e0015003900441add00cc11de00e4
:10284000830172004411dd000040e800e84f5000b1
:10285000f6ff3a000d00370010c0b30082002000e0
:1028600003002000820f5600838f5e0007003900ae
:10287000431add00cd11de00830172004311dd003b
:102880000040e800eb4f5000f6ff3a00e0df9f0009
:102890006fd997000200fb008b0f500002003d0033
:1028a000ebdf9f0003003700808f550001003d00e3
:1028b000800578000100e00003003200630064003e
:1028c000010032008100e90008e8a30005003200a1
:1028d0008b8f5000020034008b80500001003700c5
:1028e0008000eb00efd997000300fb000002eb0033
:1028f000d4b79f00808f5000020034000080500049
:10290000d0b79f000828a300400032006101640096
:102910000818a3000f0032003a0090000068a300de
:1029200006003200b10220000200e0000100320087
:102930008180e800090178000d003700b002200016
:102940000200e000010032000080e8008a00780008
:102950000e0037000200e000100032003a00900044
:102960000068a3000700320009017800010220007e
:102970000a00780047fe07000000e00006003a0069
:10298000060037008a00780000022000f1000700ee
:10299000e10f4000010032008904e8005fb09700b9
:1029a0000000e0005a003200bcb79f00cdb79f0086
:1029b000800678003a0090000068a300070032000b
:1029c00009017800010320000a00780031fe0700a9
:1029d0000000e00006003a00060037008a00780098
:1029e00000032000db000700e10f4000010032007f
:1029f0008904e8008d06e900eeff3a00ddb79f008c
:102a00003fb69700cfb6970041003700dfb197007f
:102a10000300e0001a0032000838a30018003a0052
:102a2000bcb79f00cdb79f00830678003a009000a6
:102a30000068a300070032000901780001022000ad
:102a40000a00780013fe07000000e00006003a00cc
:102a5000060037008a00780000022000bd00070051
:102a6000e10f4000010032008904e8008d06e90012
:102a7000eeff3a00ddb79f003fb69700cfb6970054
:102a8000610164000818a3000f0032003a009000b2
:102a90000068a30006003200b10220000200e0003e
:102aa000010032008180e800090178000d00370044
:102ab000b00220000200e000010032000080e800c7
:102ac0008a0078000e0037000200e000100032009b
:102ad0003a0090000068a300070032000901780066
:102ae000010220000a007800eafd07000000e00073
:102af00006003a00060037008a0078000002200035
:102b000094000700e10f4000010032008904e80052
:102b10000b03e9006330b90000017800b2b79f00f1
:102b20004233dd00607d2200000343008e01780007
:102b300093b79f0008077800060478005c00370010
:102b40008b05e900000420006fb29700800f52004f
:102b50003800320003003c000400e00008003200ae
:102b60003e00370000082000efb09700808f500033
:102b700020003200000c2000808f500037003a0007
:102b80000e48a300100032001802be000401be006f
:102b90000c00be00f4b79f0085bf9f0097fb0700a5
:102ba000e0df9f000000fb00cf80de007fb29700d7
:102bb0008fba97000401be0043fc070000065600d0
:102bc00081865e00070037001801780011000900b7
:102bd0000286d800a2002000110009000280d8005f
:102be000e1df9f006fd997000243b000e2df9f0052
:102bf0001a003700d07b22000e58a30001003200db
:102c0000c07a2200617d2200810054000c01be00c8
:102c10008100e900030033008301d1000281d30069
:102c2000fbff3700ef006100e0c07800e1df9f00ac
:102c30000a0037000c00be00bfb197008301e90015
:102c4000030033008100d1000080d300fbff370078
:102c5000674060000043b000e0df9f00ba009000d2
:102c60006fda97000400fb000168a3000700320040
:102c700009017800800078000a00780085fd0700cf
:102c80000000e00005003a00050037008a007800e7
:102c900030000700e10f4000010032008904e80025
:102ca0003fb0970063005000b0b79f006404540029
:102cb0000b00e000a2ff3a000e0478001fb7970057
:102cc0000838a30016003200dfb097000100e000d2
:102cd00013003400010478003a0090000068a3005b
:102ce0000700320009017800010220000a00780084
:102cf00068fd07000000e00006003a00060037000b
:102d00008a0078000002200012000700e10f400056
:102d1000010032008904e8000804e900eeff3a00ef
:102d20002fb1970012407800e0df9f000004e00020
:102d30006bfd3a00090078004f0778004f06be008f
:102d40004f05be004f04be006f01b1000000060039
:102d500000000600889fbe0001047800b8009000c3
:102d60008084eb000118a3003a00320018019000a3
:102d70000198a30002003a000200e00035003a008a
:102d80000190a0003104980080047800f90fb2008f
:102d90000200e00002003a0028009000000c7800d9
:102da000ea8f540005003a000178a30003003a00be
:102db00088007800d0002000e6ff0700180090008f
:102dc000d8009000810f50000b0032000000e80096
:102dd000100498001800780009487800000ce800fa
:102de00011c0b300009a210001487800ea8f540016
:102df00018003a0005003700880078000940780084
:102e00001700070080047800120037003800900097
:102e10000088a3000f00320018019000a800900065
:102e200048009000f1f7070098009000810f5000d3
:102e300004003200380090000003b3003004980012
:102e40008084eb000000eb00100498002800900044
:102e5000000c7800090078004f04be000000060056
:102e60000200fa00889fbe00a0ff9f0001047800c6
:102e7000380090000068a30033003a00e2006000d0
:102e800005003a000003b3003004980011049800d4
:102e90000080eb002e003700d80490000900e0000d
:102ea00006003a0012002000e6805700480090001b
:102eb000cef707001904980023003700a8009000ff
:102ec0000100e00008003a00319a21002104980036
:102ed000010c780021002000510498001104980092
:102ee0000030a0003004980018019000a800900065
:102ef00048009000bdf70700280090008080eb009c
:102f000011049800aff8970001487800000ce80021
:102f10002ff89700ea4f50000b003a00380090005d
:102f20000088a3000800320018019000a80090005b
:102f300048009000adf707000000eb001004980077
:102f4000a8009000010c7800aff897000100fb008a
:0c2f50004f04be000080fa0000000600e4
:020000040000fa
:102f5c000000fa00e07f2200a21d02000100000028
:102f6c00000000005a1e0200010000000000e000fa
:102f7c00fcff32000080fa00000006000000fa009e
:102f8c00ba020200010000001600200045002000db
:102f9c00440020004300200042002000e10e2000ed
:102fac00e0132000f20102000100000011002000db
:102fbc0010002000580202000100000094020200e0
:102fcc0001000000e2ff070021002000e07f22004a
:0c2fdc008e22020001000000ffff370001
:020000040000fa
:10300000ff7f000000000000f67f0000dcfc0000f5
:10301000d97f0000b8f90000a77f000095f60000f6
:10302000627f000074f300000a7f000055f000008a
:103030009d7e000038ed00001e7e00001eea0000ac
:103040008a7d000007e70000e47c0000f4e3000054
:103050002a7c0000e6e000005d7b0000dcdd000073
:103060007d7a0000d8da00008a790000d9d7000004
:1030700084780000e1d400006c770000efd10000fc
:103080004276000004cf00000575000021cc00004e
:10309000b673000046c900005572000073c60000f8
:1030a000e3700000a9c300005f6f0000e9c00000ea
:1030b000ca6d000032be0000246c000085bb000019
:1030c0006e6a0000e3b80000a76800004cb600007c
:1030d000cf660000c0b30000e864000040b100000b
:1030e000f2620000ccae0000ec60000065ac0000b5
:1030f000d75e00000aaa0000b45c0000bda7000073
:10310000825a00007ea50000435800004ca3000036
:10311000f655000029a100009b530000149f0000f9
:10312000345100000e9d0000c04e0000189b0000ae
:10313000404c000031990000b4490000599700004c
:103140001d470000929500007b440000dc930000c6
:10315000ce41000036920000173f0000a190000011
:10316000573c00001d8f00008d390000ab8d000022
:10317000ba3600004a8c0000df330000fb8a0000f2
:10318000fc300000be890000112e00009488000071
:103190001f2b00007c870000272800007686000097
:1031a000282500008385000024220000a38400005d
:1031b0001a1f0000d68300000b1c00001c830000b7
:1031c000f918000076820000e2150000e38100009b
:1031d000c812000063810000ab0f0000f780000000
:1031e0008c0c00009e8000006b09000059800000dc
:1031f0004806000028800000240300000a80000028
:103200000000000000800000dcfc00000a800000dc
:10321000b8f900002880000095f6000059800000f1
:1032200074f300009e80000055f00000f78000005d
:1032300038ed0000638100001eea0000e381000019
:1032400007e7000076820000f5e300001c83000021
:10325000e6e00000d6830000dcdd0000a38400006f
:10326000d8da000083850000d9d7000076860000f8
:10327000e1d400007c870000efd1000094880000ba
:1032800004cf0000be89000021cc0000fb8a0000b2
:1032900046c900004a8c000073c60000ab8d0000d8
:1032a000a9c300001d8f0000e9c00000a19000002c
:1032b00032be00003692000085bb0000dc930000a7
:1032c000e3b80000939500004cb600005a97000048
:1032d000c0b300003199000040b10000189b00000d
:1032e000ccae00000e9d000065ac0000149f0000f5
:1032f0000aaa000029a10000bda700004ca30000fd
:103300007ea500007ea500004ca30000bda7000024
:1033100029a100000aaa0000149f000065ac00006b
:103320000e9d0000ccae0000189b000040b10000d4
:1033300031990000c0b300005a9700004cb600005d
:1033400093950000e3b80000dc93000085bb00000b
:103350003692000032be0000a1900000e9c00000db
:103360001d8f0000a9c30000ab8d000073c60000d4
:103370004a8c000046c90000fb8a000021cc0000f6
:10338000bf89000004cf000094880000efd1000046
:103390007c870000e1d4000076860000d9d70000c9
:1033a00083850000d8da0000a3840000dcdd000083
:1033b000d6830000e6e000001c830000f5e3000077
:1033c0007682000007e70000e38100001eea0000ab
:1033d0006381000038ed0000f780000055f0000028
:1033e0009e80000074f300005980000095f60000f4
:1033f00028800000b8f900000a800000dcfc000012
:103400005374000061720000746900006e67000070
:10341000205000006f770000657200002d540000fe
:10342000687200006f750000676800002e0d0000d4
:103430000a000000456e0000646900006e6700002d
:10344000205000006f770000657200002d540000ce
:10345000687200006f750000676800002e0d0000a4
:103460000a0000004c410000766700003a25000089
:10347000692c00002052000041760000673a0000ed
:10348000256900002e0d00000a0000004c650000b8
:103490006674000020640000726f0000705f00001e
:1034a00063790000636c000065730000203d00003c
:1034b00020250000692e00000d0a000000540000c5
:1034c000555200004e4900004e470000204c0000bd
:1034d0004546000054200000284c00002041000018
:1034e000766700003a250000692900002e0d0000d3
:1034f0000a000000526900006768000074200000a4
:10350000647200006f7000005f6300007963000068
:103510006c650000732000003d200000256900005c
:103520002e0d00000a00000054550000524e00000d
:10353000494e000047200000524900004748000063
:10354000542000002852000020410000766700004f
:103550003a250000692900002e0d00000a00000035
:10356000507200006f7800002025000069200000e4
:103570003d200000256900000d0a00000041000008
:1035800074740000616300006b650000722000002d
:103590006174000020500000726f0000782000006d
:1035a0002569000020210000212100000d0a0000f3
:1035b0000000000053740000617200007469000094
:1035c0006e6700002077000069740000682000002a
:1035d000736500006c650000637400006f7200008a
:1035e000207000006f73000020250000640d0000b3
:1035f0000a0000006c530000706500006564000064
:10360000203d000020250000642c000020720000f6
:103610005370000065650000642000003d2000003c
:0c36200025640000200a00000d000000de
:020000040000fa
:10362c0006000000260000001f0000001200000031
:10363c0027000000180000001c0000002d000000f6
:10364c0041000000fd000000e50000003201000018
:10365c008b0200001e0200004400000024ff00004a
:10366c00b8fe0000bdfe00003dff000027ff00007b
:10367c003dfe000026fe00009efc0000dcf9000070
:10368c003bfe0000c908000044100000d60e0000ec
:10369c009405000033fb00005ff600008ff700007c
:1036ac008afa00008afb0000a3fa0000a1fb0000cc
:1036bc0021010000e7080000a60d00001a0c000014
:1036cc00bb03000046fb0000a9f80000d3f9000082
:1036dc0037fd00004aff00005afe0000c3fd000049
:1036ec00d6ff0000f90300002c060000d8010000f2
:1036fc00d0f8000029f80000cf030000ff0f0000f5
:10370c007f110000d406000014f9000088f20000bc
:10371c00ddf5000006fd00007a0000009ffd0000b2
:10372c0059fa000033fd000016060000d30d00000e
:10373c00b20d0000ec04000025f9000007f50000b4
:10374c009bf8000020ff00001503000000010000a2
:10375c00adfd0000e6fd0000a702000027070000f9
:10376c008703000013f7000027f100003dfd000067
:10377c00bd100000b41900009e100000f7fd000001
:10378c00c3f00000d8f000003ff900003bff000040
:10379c00b2fc000016f7000030f80000c601000073
:1037ac00a20d0000211300003a0d0000a50100003d
:1037bc00acf8000082f5000006f9000051fd000095
:1037cc0048fd000002fb0000f7fa0000c9ff0000f2
:1037dc00d70600002e0700001afd00004bf6000073
:1037ec002dff0000980f0000d21600009b0d00006a
:1037fc00a4fb000013ef0000a5ef00005ff8000031
:10380c0010ff00009efd000076f900007dfa00001c
:10381c0021010000390b0000b11200005010000013
:10382c001006000049fa0000bbf20000edf30000a6
:10383c0083f9000095fc000066fc0000c6fb00004c
:10384c0015ff00003005000078040000befc0000ed
:10385c0022fb00003006000051130000be130000d4
:10386c00bf050000a0f40000beec0000cbf000008f
:10387c003bf9000017fd00004ffa000009f90000a9
:10388c007cfc00008e030000790d0000db120000b0
:10389c00470e0000c7010000c8f40000b1ef0000a3
:1038ac00e5f300002cfa000026fc00001dfb0000d4
:1038bc00d7fa00005e00000017060000d4010000db
:1038cc0011fa0000f6fc0000120c00003617000084
:1038dc009511000010ff000067ee0000e5ea000003
:1038ec005ef200002afb000032fc0000abf8000086
:1038fc0087f900007bfe00002708000098130000e9
:10390c0000160000000d0000c8fd00004cf0000087
:10391c0057ed0000c0f30000e1f90000cffb000000
:10392c0077fa000065fc00001d04000098060000fa
:10393c00ea00000094fd000044070000b4140000ed
:10394c008d1400003204000080f0000075e80000c7
:10395c0049ee00001df90000defd00009afa00009f
:10396c00f2f9000009fe0000ec0400007a0f0000e0
:10397c007c1500000d1200004c050000ebf400005b
:10398c00d3eb00000fef000015f70000e4fb000084
:10399c00d8fb0000d8fa00008d0100005c07000085
:1039ac0079050000ef010000450600006b110000d6
:1039bc00d1130000d40600006df3000041e90000b3
:1039cc0040ed00005df8000088ff000070fd000075
:1039dc004bfc00005eff0000fe020000f10900003d
:1039ec00dc110000fa1500000a0f0000d5fd0000e4
:1039fc0021ee00002aeb0000e7f2000006fb0000bd
:103a0c00a4fd0000dffa000071fe00009805000024
:103a1c00cc0800008a0a0000b80b0000f50e00006c
:103a2c00d40d0000020300002af400008cec00000e
:103a3c009fef000020f8000077ff0000feff000061
:103a4c0050010000ca030000ee010000100200004b
:103a5c00e7090000ab160000bd180000ff080000cd
:103a6c00daf20000b5e7000046ed00000df90000a9
:103a7c00a0ff00002cfc000085fa0000860100006d
:103a8c0060080000780f0000d9120000e810000058
:103a9c00ae0a0000bffe0000daf2000031ee0000ba
:103aac0047f2000040f8000091fd0000f3fe00001a
:103abc00c8020000890800009405000028000000de
:103acc00bf0100003a0f0000181a0000db110000c3
:103adc000cfb00008ee800002ae800005ff40000f8
:103aec00deff00009bff0000bcfa000037fe000068
:103afc00fe030000eb0a0000d31000003c13000092
:103b0c00ea1000000c05000059f5000042ec000022
:103b1c000fef000001f60000c1fb000026fc0000c6
:103b2c00d9fd000011060000b908000011080000c2
:103b3c0034070000850a000086100000630c0000aa
:103b4c00c9fc00000aed0000cee90000bef1000047
:103b5c00fdfc0000530100005cff000001020000ae
:103b6c00af02000067020000190700002d0f0000d3
:103b7c00e31500001c0f000057fc0000eceb0000ec
:103b8c00c0e9000065f2000030fb00001dfd0000e4
:103b9c0016fa0000c4ff00004f07000038090000af
:103bac00070b0000a90b0000e90d0000950b0000ad
:103bbc0065ff0000ebf00000ffea000058ef00008a
:103bcc00c1f7000087fe0000b8fe00005d02000097
:103bdc00b70600000a040000f702000059060000b6
:103bec00ca0f0000251400003c0800002ff4000050
:103bfc0050e80000d7eb0000a7f60000a7fe00007d
:103c0c0024fd000006fc0000230300002306000036
:103c1c00430700009d090000110e0000b6110000c2
:103c2c004c09000040f800004deb000001eb0000d7
:103c3c00c6f2000032fb000078fd000085fd00009c
:103c4c00d4040000ff07000041070000cf0800006b
:103c5c000e0b0000f60e00007a0a0000b5fb000007
:103c6c00d3ed0000e9ea0000fff1000027fb0000a3
:103c7c0001000000b6fe00002d0300000807000044
:103c8c0058030000dc020000870700005f110000f1
:103c9c001014000081060000f5f20000ade80000f1
:103cac00eeec00008bf70000f8fe000096fd000023
:103cbc00f4fd0000c7050000d1070000e20700007a
:103ccc0046090000900c000027100000c1080000fd
:103cdc0011f900009eec0000d1eb0000c4f30000d1
:103cec0047fd0000d1000000d4ff000030050000ab
:103cfc001807000097040000a605000089080000c2
:103d0c00ab0e0000810e00005902000019f30000f8
:103d1c0026ec00008ff00000f5f900008200000096
:103d2c00fefe0000deff00003c0500001a0400004f
:103d3c002c030000bf060000330e000089130000a6
:103d4c00fb0b0000cffa0000e0ec000072eb00006f
:103d5c00c3f3000016fd00008dff00005ffd0000a6
:103d6c00af020000d60700002f060000e605000099
:103d7c0039080000e00c0000640d0000da030000bc
:103d8c00daf50000dfed0000b3f0000038f90000b8
:103d9c001d000000fffe00002afd00004102000093
:103dac009d0300000a030000eb060000b70b0000a7
:103dbc001f0f0000fb0b000066ff0000baf20000b2
:103dcc0083ef00006cf40000c2fa0000a5fc0000b8
:103ddc007bf900003bfc00008a0500009606000001
:103dec00c403000037060000310c00006d10000009
:103dfc00c00a0000b8fb000080ef000016ee0000c7
:103e0c00e0f4000092fb00004cfc0000f1f8000014
:103e1c00b2fd0000c50700004c0700000a030000bb
:103e2c0077040000540b00007d100000cc0900004a
:103e3c00cbfa0000f9ef000099ef00001df600002e
:103e4c0040fb000068fa00005af700008afd0000f1
:103e5c002e0800005808000017040000b1040000f0
:103e6c00440a0000750e0000220900002dfc000021
:103e7c0072f10000e1ef00005bf50000ccfa0000ed
:103e8c00a4fb00007df90000e6fe0000d90700004d
:103e9c00e50600005602000080030000c90900007e
:103eac00f30d0000dc09000001ff000081f50000ab
:103ebc000df2000028f40000a3f80000ccfa00007a
:103ecc00b5f90000aefd000075060000e606000026
:103edc0065010000c50100003d0a00003d11000015
:103eec00bd0e0000e901000093f4000077ef000024
:103efc0062f200005ef8000069fa0000f9f80000b8
:103f0c00ccfb00002d070000240d000088060000eb
:103f1c001b010000a7030000ba0800001d0c0000e4
:103f2c00650700009bfb00005ef20000def0000065
:103f3c0054f7000074fe000031ff000046fb000047
:103f4c006afe0000c0040000ec02000087ff0000c5
:103f5c0082040000090e0000aa120000530e00009b
:103f6c00a5000000e8f3000011ef0000e6f10000ee
:103f7c00a7f7000032fa000003fa0000a0fe0000d0
:103f8c00450a0000f90c0000de02000024fd0000d0
:103f9c0040040000490e0000da1000006e0800001a
:103fac00f7f90000d3f00000a0f00000f5f60000d7
:103fbc00dafc000072fd0000c0fb000054010000a0
:103fcc00c50a0000180800004afe000030fd000081
:103fdc0026070000de1000009d11000029070000dc
:103fec00a1f800007bf0000003f20000d2f8000002
:103ffc00c1fb0000faf90000f6f900007f04000094
:10400c00cb0e0000f6080000b9fd000063fe0000b6
:10401c00ec080000f40e0000510c000074020000cb
:10402c00cef70000d6f200000bf5000088fa000075
:10403c00c6fb0000bbf9000037fa000029050000a0
:10404c001a0e000084050000f1f9000087fd000045
:10405c00c30c00001e150000580f00000d000000de
:10406c00d0f2000083ef000057f40000c2fa000009
:10407c0009fb000091f80000e6fa0000e5070000db
:10408c0037110000e205000067f60000eef80000b2
:10409c00740b00009a170000b6110000ecff000032
:1040ac0001f10000d2ee00004af500006efb0000aa
:1040bc00fff9000037f6000076f900006c080000ec
:1040cc0045140000eb08000002f50000aaf3000004
:1040dc0002070000d91600003a130000f801000096
:1040ec00baf20000dcf00000c8f70000edfc0000a4
:1040fc00f1f90000e2f3000013f500005203000098
:10410c00e1120000550c00006af700001ff20000dd
:10411c00180500005819000054180000b0040000e5
:10412c0047f0000036eb0000f0f30000bdfd00008e
:10413c003bfe00006ff600008bf300005afe0000ff
:10414c00171200006d140000b0fd000037ec0000e9
:10415c0004f7000036110000ac1b00007d0f0000be
:10416c0005fa0000dced0000a2f200000afd0000e0
:10417c00b3ff000072f600000dee0000fcf300002f
:10418c002f090000601a0000750d0000e5f1000019
:10419c00c6eb0000d1030000491c0000ba19000056
:1041ac003403000013ef00003fee000020fb000082
:1041bc002d03000042fc000031ee00006eec00000c
:1041cc006cfd000099160000e01a00009cfe000037
:1041dc0031e5000013ee0000bd100000e2240000e9
:1041ec009b160000d5f9000006ea000096f10000cd
:1041fc00290100005e030000dbf4000075e70000fd
:10420c00b6ee0000be070000881e0000ce160000af
:10421c0016f300004ddf000070f40000e01a0000ff
:10422c0031260000b50d000023f00000d2ea00009a
:10423c00cffc0000ed0a0000ac0100009cea00007d
:10424c0069e00000dcf10000bf0f000069200000f5
:10425c002f100000afea0000cfdc0000fdf90000d9
:10426c0019230000402b00007d0c0000afea000079
:10427c00f3e8000021020000201100009100000072
:10428c00bae20000edd9000022f400004018000052
:10429c0038250000220e0000e2e5000034d90000b1
:1042ac003bf900000a2500008c2d00008a0d00004f
:1042bc008aeb000082eb0000da050000f812000027
:1042cc00e7fe000075df00004fd800008cf4000002
:1042dc007d180000ae220000420d00004ce90000e9
:1042ec0097db00001ff7000094200000f22c000068
:1042fc003112000044f0000072eb00003a030000a1
:10430c005b130000e902000015e30000c8d80000b0
:10431c00b9f1000099150000611f0000e00a0000cf
:10432c0086ef00008ce2000050ee00007f0a0000d7
:10433c0093200000261f00008d0c000032fe0000b0
:10434c0097000000bc070000afff0000f0e8000081
:10435c001cda0000b2e5000039030000e61700008b
:10436c001a140000f803000004f5000015ef00001b
:10437c0087f90000760d00008b1800004d1100002d
:10438c00bc0100006dfc0000110600004c0c00008c
:10439c00acff000061e900000fe000008ced0000b4
:1043ac0045050000c71100005b0c000090ff0000e9
:1043bc0042f300005cef000073fc0000a910000049
:1043cc00f9190000c01300008c080000d60400008e
:1043dc00f40500001b00000070f000003de200003e
:1043ec0057e4000095f60000260a00002d1000008e
:1043fc00550900000501000046f80000acf2000071
:10440c0099f900007b0b00005119000010160000f8
:10441c003008000031000000b70200000903000062
:10442c00cbf7000005e90000e9e4000043f10000cf
:10443c0051040000d60d0000fd090000b3fd000082
:10444c0030f10000d0f200002106000096180000a8
:10445c00d7170000c8070000b6fb0000cc00000016
:10446c00de0b000089080000def4000081e400008f
:10447c00a5e9000032fd0000140a0000f60500005a
:10448c002efb000080f80000b7fa00008afa00004a
:10449c00f8fc000077080000d2130000dd110000ca
:1044ac00d9060000750100002f070000070b000063
:1044bc004b0100004af0000098e800007cf100007d
:1044cc00e2fe000049020000cafc000017fb0000dd
:1044dc007b0100000e03000058f800009cf1000066
:1044ec00c5000000ed170000e31a0000240a0000cc
:1044fc005cfb0000c3fc000052080000440b0000f1
:10450c00d8fd0000d5ec000022ea000063f70000a3
:10451c0019060000f50600008bfc000048f50000b1
:10452c00fef50000faf900007aff000075090000a2
:10453c00de1200008211000097060000f3ff00005d
:10454c0041020000d902000036fb000055f20000c9
:10455c00c9f200000afe0000ed080000d6070000ba
:10456c00dbfd000056f3000057f0000071fa00006c
:10457c00c40900004f0e00000e0600007aff000078
:10458c009a030000970b0000d609000011fb0000f5
:10459c00e8ec00000bee0000f4fb00002d0900001d
:1045ac00c80b0000fa0500006aff000026f80000a6
:1045bc0065f20000dcf70000b906000046120000ae
:1045cc00f91100005d090000b9030000de020000d3
:1045dc00befe000081f30000c2e70000a7e7000068
:1045ec0080f6000001090000f60f0000230a00000d
:1045fc00a101000075f80000e9f20000edf90000df
:10460c00c60b00006a190000e4150000f707000053
:10461c002b000000c6020000f20200008ff7000021
:10462c00d8e80000fde400008ef1000091040000c9
:10463c00de0d0000da09000078fd000012f1000028
:10464c0000f3000080060000be180000ab1700004d
:10465c0082070000a2fb0000ff000000f40b00002a
:10466c005808000086f400005fe40000e7e9000051
:10467c007dfd0000250a0000d10500000cfb0000a8
:10468c0089f80000bafa000085fa000017fd000056
:10469c00b0080000e8130000b8110000ae060000de
:1046ac007a0100004e070000000b0000080100001a
:1046bc000cf00000a2e80000adf100002dff00009e
:1046cc00ea020000eafc0000dcf90000b9ff00007f
:1046dc004f0200007df90000d8f300002d0200000d
:1046ec00f016000018180000a50800005dfd000081
:1046fc004b000000730900003e09000069fc00003b
:10470c0083ef000051ef00002ef90000bf00000005
:10471c000cfe00001ef70000dff700008afe000010
:10472c0023ff0000cff900009bfd00007e0c000071
:10473c00851400008e0b000051ff0000a1fe00004c
:10474c00650500002b0900005c05000036fd00002b
:10475c001df9000022fb000029fc0000d2f700002c
:10476c00b1f10000caf1000066fb0000dd0400009e
:10477c00c8000000ddf60000b8fc0000af0e000021
:10478c000a1400007805000041f3000054f4000006
:10479c00320a0000a6190000e310000047fd0000db
:1047ac005ff60000bfff0000880600001ffb000042
:1047bc00a3e7000009e300008cf50000980b000053
:1047cc006c0d00000bfe000086f2000024f80000c7
:1047dc00520900006d100000ce00000089f20000ac
:1047ec0028fa0000010e0000441900008910000096
:1047fc006601000079fe00004d0500008d050000eb
:10480c000ef90000a9e9000072e60000c6f30000f2
:10481c007103000056070000b000000032f90000e0
:10482c0095fa000090010000130800008c050000b0
:10483c0090fa000029f7000027000000680f000024
:10484c004c150000100e00004e04000094000000f7
:10485c00e1040000f0070000670000000af100000e
:10486c00c7e8000091ef0000d1fc0000f00200004e
:10487c00a5fe000037f900004bfa000055ff0000c0
:10488c00fe0100005c03000061020000ccff000090
:10489c00090000005c0300000d0800008609000000
:1048ac00e0080000bb0500006a02000007040000dd
:1048bc00de060000740400005afe0000bcf9000083
:1048cc0025f800008af70000dbf5000059f4000021
:1048dc001cfa0000420500001e06000005f900004d
:1048ec0044f0000025fd0000e30c00005a0a000013
:1048fc00c7f80000d5f4000070080000911100000a
:10490c0038060000f6fc0000d90000005708000033
:10491c000c0a0000c905000021030000030400007c
:10492c004102000030fd000041f90000d2f500000a
:10493c0028f4000095f8000073fb000087fa0000d3
:10494c0019fa00003ffb00000fff00005f0300009e
:10495c00d006000036020000c1f700004dfa00003e
:10496c007f0800000f0c0000ab020000ee000000fe
:10497c00510a0000c90d0000b3080000c10100007d
:10498c00eefe00004e00000054ff0000fcfb000097
:10499c0055fc00005f0000004aff000035fa0000e3
:1049ac00f7f60000f8f7000060fc0000e5fc0000e2
:1049bc00c9fd00003400000038f9000030f7000099
:1049cc00ca00000098030000ea050000b5090000c9
:1049dc00910000005dfb00004e060000cd0d0000b4
:1049ec004e060000f7fa000082f900007b0200007e
:1049fc007209000004040000b7fc0000f4ff000082
:104a0c00790500002d010000e4f8000004f9000015
:104a1c000fff000067ff000097fa00009df90000ef
:104a2c0021fc0000aefd0000a9ff0000c801000041
:104a3c0041ff0000fafb000000fd0000f8ff000041
:104a4c00f40300007b040000c3ff0000130200000d
:104a5c002a0800000f0800003e070000800100003b
:104a6c0077fb000057000000f00400005bfd000025
:104a7c000cf80000aafe00000d02000031fe000040
:104a8c00dbf90000d0f90000c0fd0000b9fe000009
:104a9c00bcfe000084fe000005f900004bfa00008b
:104aac00ac020000d2020000700400004d080000af
:104abc00ed000000b9fc000075050000ac0b000017
:104acc00f6040000e0f9000004f80000f00100001a
:104adc0036090000f5010000e1f9000093ff000029
:104aec007d070000f50100003bf800002afc0000e7
:104afc009d050000e00100004ff9000078f900006e
:104b0c00fafd000029ff00000100000095ff0000e5
:104b1c00eaf70000b5f80000930300003e03000024
:104b2c0094fd000039fd0000dbfd000020030000b7
:104b3c00950300002f0100001007000093000000f7
:104b4c00daf50000b2020000fd0e000020fd0000ae
:104b5c0022ef000023fd0000ee090000ab0700006f
:104b6c004900000026fd0000600000005e0300000c
:104b7c0031ff0000defb000065000000ff000000bc
:104b8c005bfe000097fe00001bff00000a01000006
:104b9c00470000006cfb0000c0fb0000d9000000c7
:104bac00eb010000cffe0000d2fd0000e10200008e
:104bbc0093030000affd00006cfa000050ff0000f2
:104bcc008306000074020000eefd0000ccff000024
:104bdc008e0000004101000033ff0000c8fb000004
:104bec0069010000ab0600009efe00003dfc0000c9
:104bfc0048060000190a000026fe00004af40000d6
:104c0c00e1fd0000230b0000a6030000b0f500003e
:104c1c001ffd0000100700006e03000058ff00008d
:104c2c0020ff000017fe0000170000002c050000fc
:104c3c003504000088ff000016fd000063fe000034
:104c4c00ac0100003c0000001efe00005dff0000f7
:104c5c006d000000c10100001b010000ac00000051
:104c6c006d0200002601000089fe0000fdfe000020
:104c7c0019ff0000bcff0000fc0200002600000031
:104c8c0088fc000048010000ae0400006700000032
:104c9c00fafd0000d300000098010000170000008e
:104cac00fcfb0000a0fe0000be070000410300005a
:104cbc0077f7000041fb000063070000ff040000d1
:104ccc0002fc000067ff00002b03000050000000f6
:104cdc00fafd00000afe000073010000f70000005e
:104cec0016fe0000aefe00005ffd0000f2fc0000ae
:104cfc00550300000005000085fe00004afd000081
:104d0c00b70100000802000067ff00003c00000033
:104d1c005700000046fd000090fd0000530100000c
:104d2c00b402000037fe0000dffc0000a001000010
:104d3c004e0200008afe00007ffd00001c020000f5
:104d4c0090030000d5fc00003efb0000ce010000eb
:104d5c005005000097000000e6fa00003efd000040
:104d6c0027010000610300009203000073ff0000a4
:104d7c0026fb000065fd0000dd0300007f04000041
:104d8c002dfe000010fc000009000000bdff00001b
:104d9c0088ff00009fff0000f6ff000019010000d3
:104dac0002000000a9fd00002cfe00002a020000f9
:104dbc009a0100006efe00002bfe000052ff000066
:104dcc00abff00007fff000082ff000044000000ea
:104ddc004101000002010000a6fc000094fd00004f
:104dec00e30300000902000091fb0000fef9000043
:104dfc0045fd0000fd010000db0200000900000081
:104e0c0058ff000036000000a40100005f01000004
:104e1c00d8ff0000bffc00002dfc00004cfd000082
:104e2c0069fd000015020000ab000000d9fc000079
:104e3c0077010000c304000054020000a8fe00002b
:104e4c004cfc0000e2fc00009d0000001a00000079
:104e5c0053fe0000aa000000f300000095010000c2
:104e6c00ae0100004bfc00004bfc000000030000f6
:104e7c00ae010000e5fe0000e5fe000030fc000085
:104e8c00e9fe0000c50300003b010000dbfb000055
:104e9c0098fc00005202000042040000a9ff000030
:104eac00c7fd00001c0200001402000075fd00008c
:104ebc0024ff000069030000d700000075fc00000f
:104ecc0057fd000078ff0000ea00000034020000eb
:104edc00dc000000020000004e000000d1000000c9
:104eec0036010000c4fe000062fd000024fe00003c
:104efc00be00000017030000380200001d00000077
:104f0c001dfd0000b3fe00005202000077010000fe
:104f1c0081fe0000b3fe000054020000b902000044
:104f2c004bff0000c8fd00004d0100006e030000a7
:104f3c002dff00007ffc0000f5fe00006401000066
:104f4c007300000066ff0000a30100007d0200005a
:104f5c0006ff00003bfd000048020000b803000003
:104f6c00c7fd00000cfc00006ffe0000aefe000050
:104f7c001afe000005ff00003b0000004302000089
:104f8c003d030000520200005e020000d701000049
:104f9c001f00000092fe0000a8fe000064fe00004e
:104fac002afd0000f9fe0000ef00000078ff000071
:104fbc00fbfe000048010000f3010000540000005b
:104fcc009c00000072000000bafd000099ff000078
:104fdc009f020000b3000000fcfd000058ff000021
:104fec006601000097fe000011fd0000ddff0000cf
:104ffc005302000036000000fcfc000045000000dd
:10500c009a0400006f020000ecfd000030fd00006f
:10501c00790100008a02000041fd000071fd0000d2
:10502c00b4020000110200002dfe000073fe00000f
:10503c00f90100006c0200001aff0000e7ff0000fd
:10504c001c02000054ff000099fd00003801000014
:10505c005c02000009fe0000ccfc000073010000a3
:10506c00c40300009eff00006dfd0000e70100007e
:10507c00dd030000dcfc00009cf90000d300000004
:10508c005c0400002fff0000b1fd000034030000a1
:10509c00d2040000a1ff000095fc0000edff000011
:1050ac000a02000033fe000000fc00003c0000007f
:1050bc00a5020000e7ff0000befe000039ff000063
:1050cc003aff000000010000890100005bff0000b6
:1050dc001aff000072000000e5000000c8ff00008d
:1050ec0086fe000023ff00005d000000f6ff0000bc
:1050fc00a0fe0000c9ff0000f50000000e0100003a
:10510c00ed00000012ff0000e5fe00004f00000063
:10511c00410000007e0000007500000033fe00001e
:10512c0091fe00005d0000004cff0000abfe000093
:10513c0066000000210100007cff0000540000000c
:10514c0004020000b200000097fe00000cfe0000fc
:10515c00ccff000097ff000026fe000045ff00007a
:10516c00ba00000076ff0000effd0000f80100001f
:10517c0077040000f4ff0000ddfd0000b800000023
:10518c004b02000098ff0000d9fc000093fe0000c9
:10519c00540000009dff00001bfe00001aff0000e1
:1051ac006c0200006d0200002b00000051ff00009b
:1051bc0082000000a600000010fe000034fe00007b
:1051cc008c00000042ff0000e1fd0000faff00002f
:1051dc007d01000083000000a8fe000005ff000018
:1051ec00340100001a0100007aff000037ff0000b4
:1051fc0075000000f200000004ff0000b7fd000085
:10520c006eff00009f00000040000000c4ff000083
:10521c00e5fe000047000000280200000a00000024
:10522c00ecfd0000a6ff00008901000061000000f9
:10523c0037ff000096ff00002d0000004300000027
:10524c00daff00000e000000fbff00007cff0000f6
:10525c002800000033010000f4000000a8ff00004b
:10526c003fff00005f0000008700000080ff00008f
:10527c007aff0000de0000001901000091ff000021
:10528c00defe0000a4ff0000840000001f000000f0
:10529c0017ff0000d7ff0000f4010000b30100006d
:1052ac0054ff00001d000000670200006f010000a9
:1052bc004fff0000fafe000018010000320200004f
:1052cc008dff00000cfe0000af000000ea010000a2
:1052dc006dff000021fe0000780000005702000066
:1052ec007a000000a3fe0000720000009c02000087
:1052fc000b0100001dff00009b0000004702000096
:10530c0089000000c4fe000059000000b901000033
:10531c00ac00000004ff000001000000350200009a
:10532c000b010000e5fe000054000000b20100007b
:10533c0022000000f5fe000098ff0000160100009e
:10534c000f0000007cfe000065000000eb01000077
:10535c000f000000c9fe0000640000000102000004
:10536c000301000097fe000046ff00009d010000b5
:10537c00d2000000f5fe000052ff00000e010000fc
:10538c0056010000f2fe00004afe0000e30000009f
:10539c00080100008cfe000087fe00004e0000009b
:1053ac007b0000003cff0000dafe00007e000000e5
:1053bc003201000052ff000006ff0000c700000091
:1053cc00f9000000a5ff00001eff00000f00000008
:1053dc00b0000000120000002dff0000ceff000006
:1053ec00060100007d00000069ff0000f0ff0000d6
:1053fc00b3000000490000005fff000021ff000027
:10540c00550000006200000035ff0000caff0000dc
:10541c00ed0000004800000075ff000015000000c2
:10542c0015010000ce00000043ff000075ff0000d6
:10543c00fe0000009200000079ff0000acff0000ad
:10544c00af000000e800000058ff0000ccfe000098
:10545c0099000000b6000000d0fe0000ecfe000039
:10546c0030000000f6ff000019ff000019ff0000db
:10547c005f0000009e000000e7fe000026ff000019
:10548c00c60000005d00000052ff000058ff000045
:10549c00e3ff00001b000000bbff00004bff0000ff
:1054ac00a5ff0000340000001b000000ceff000030
:1054bc0096ff0000e2ff000078000000bcff000037
:1054cc00a5fe000092ff0000cb000000fdff0000d5
:1054dc00fefe0000b6ff0000a80000005d0000000a
:1054ec0090ff0000a1ff0000960000007900000072
:1054fc00c1ff0000d8ff00003f000000ac0000001e
:10550c0054000000baff000022000000cb00000095
:10551c000f0000007eff0000610000008200000010
:10552c00fbff0000d5ff0000eaff00003b0000007d
:10553c00f3ff000081ff00003c000000af00000002
:10554c002b0000000c000000530000007d00000048
:10555c0018000000b7ff0000150000005400000008
:10556c00d0ff0000a0ff0000440000007500000008
:10557c0016000000dbff00003d000000be00000034
:10558c005d000000ceff0000ceff00005a000000be
:10559c0091000000f0ff000075ff0000dfff00002d
:1055ac005b000000070000009bff0000daff00001a
:1055bc005a00000037000000d3ff0000f3ff00008a
:1055cc001d0000002c0000000c000000d9ff0000a2
:1055dc000500000045000000510000000300000021
:1055ec00100000006a000000610000001f000000b5
:1055fc00deff00001b00000051000000efff000068
:10560c00d1ff00003e0000005c000000fdff000028
:10561c00d5ff0000380000006d00000020000000e5
:10562c00dbff00000900000007000000cfff0000b6
:10563c00e9ff0000feff000012000000ffff000069
:10564c00deff0000080000001a000000ecff000064
:10565c00fbff00005400000047000000e6ff0000c4
:10566c00e1ff00004a00000059000000e6ff0000c6
:10567c00caff00004e00000080000000f9ff00008f
:10568c00e1ff000043000000560000000200000093
:10569c00bfff00000f0000003e000000f9ff0000fb
:1056ac00caff0000f3ff00002c0000000400000003
:1056bc00d5ff0000e8ff00001500000020000000ee
:1056cc00e5ff0000d2ff0000050000001100000003
:1056dc00dfff0000c7ff0000efff00000c00000020
:1056ec00e1ff0000c3ff0000eeff0000040000001b
:1056fc00d8ff0000c9ff0000e5ff0000feff00001e
:10570c00e5ff0000c5ff0000dcff0000eeff00001d
:10571c00deff0000d0ff0000d8ff0000e8ff000013
:10572c0002000000edff0000daff0000d8ff0000cf
:10573c00a4ff000095ff0000b4ff0000b3ff0000c1
:10574c00c1ff000093ff0000cfff000063ff0000cb
