:020000040000fa
:080000003401040000000000bf
:020000040000fa
:1002000088470400000000002247040000000000ae
:100210002c3c040000000000103d04000000000021
:100220005443040000000000a24604000000000047
:10023000004a040000000000244604000000000002
:10024000ee47040000000000cc690400000000003c
:100250009a730400000000005075040000000000c4
:10026000cc010400000000000f2022008079220051
:100270000001880000000000050007000c000700d6
:10028000fa150200000000000040da000000fe0045
:100290004440a900808520000000e00003003200f7
:1002a00010002000a00188004440a80000000600c3
:1002b00040af21001100200016003700620040000e
:1002c000e0804800910188009001ba00620040007f
:1002d000e0804800910188009002ba00620040006e
:1002e000e08048000002eb006028e10005003a00d1
:1002f0008301e90007003300038009000059eb0087
:10030000040037006128e100010032000082eb00a8
:1003100005000700910188001001ba000200e0000a
:10032000e6ff3a0000000500910188008002780095
:1003300062004000e08048003559ba008301e900be
:10034000080032002559ba008301e9000500320097
:100350000400e000f4ff320015d9ba008301e9007f
:10036000f1ff3a0000000600000178001001e200f1
:10037000030035001061a800000028001021b7001c
:1003800030088000410880000200e00001003200d7
:100390000089be0000000600881f78000204780073
:1003a00016010700080040004f0478000000060016
:1003b0000000fa00881f7800000478003fb9970019
:1003c000ea81570080007800c01c2000140107005b
:1003d000800078000000e000020035000040eb00e3
:1003e00080707c00010078004f0478000080fa00e3
:1003f0000000060080007800010037000000e800df
:100400001004e000fdff3a0001005000000006006b
:10041000889fbe00e30440000900a100808f5400c3
:1004200049003600e38f540001003e0049002000df
:10043000b0da80000000e0000200320080007800a6
:100440000c00370081b5210003003700908f540065
:10045000230036008080e800110078001100e000e1
:10046000faff3a000f003700928f54001c0036004c
:100470008280e800110178001100e000faff3a00e4
:100480001001780081b5210003003700908f5400df
:10049000130036008080e80011007800820f5000c1
:1004a000faff3a00a8da8000890f540001003100f9
:1004b0000904780008007800910107000000e000be
:1004c00004003a00890f54001f0032000804d100d4
:1004d000f5ff37000818780030000700d4ff370018
:1004e000110178009201780064805100890f50005a
:1004f00003003100120090008008780007003700e8
:1005000009004100800878009201900013009800d3
:100510001100780012881400090978009101780010
:100520001100e00004003200130090008380e80016
:100530000000e00001003a008000eb00b1da880022
:100540000280e800010037000000eb004f04be000d
:100550000000060000047800060037008200410019
:10056000e0da8000e10078000200e800d0da8800dc
:1005700001000100d2da8000f0da8000800f510023
:10058000f6ff3900e0992100e0da8800200220001f
:10059000f0da8800080078003e0407000000e00060
:1005a000300032008080e90091027800e38f520031
:1005b0002c0036000508a3002a003a00c2da8000a9
:1005c0000200e00002003200828f5000040031007f
:1005d00002087800c1da88001600370003017800ad
:1005e000920190000300e00002003200818f510070
:1005f000faff39001202780004004100808f500099
:1006000018003900810f500003003a00050942002c
:1006100082007800070037000300e000030032008a
:1006200005804000808f51000e0039009300980033
:1006300011019800110190000200e0000900320051
:1006400011804000820f500006003a00563bef0038
:1006500011009000110178009008410010009000f6
:100660009000980000000600889fbe0030d98000ee
:100670000000e000010032000000010000d980000d
:100680000000e0000100320000000100c0c6800050
:100690000000e000010032000000010090c6800070
:1006a0000000e0000100320000000100285be200d1
:1006b00027003a0010d9800021d980000004eb0007
:1006c000d26026009301200085070700f2352f0035
:1006d000e3c6230000004100818049000804e800cf
:1006e000e80f5400f6ff3a0010d9880021d988009d
:1006f0000004eb00a98d2100d260260093012000a8
:1007000010d9800021d9800075070700f2352f002d
:10071000e3c62300000041008180490010d9880011
:1007200021d98800809cbe000804e8000002200057
:10073000800f5400f0ff3a00b0ca8000c1ca8000a8
:10074000a0c68800b1c6880010c0b30028fbb7005f
:10075000d26026009301200010d9800021d98000aa
:100760005f070700f2352f00e3c6230000004100b9
:100770008180490010d9880021d98800a2c6800054
:100780000201d000e203b20082014100a28d2100eb
:10079000028141001202be00a4c68800b5c68800ce
:1007a0000089be00a0c68000b1c6800001007800ac
:1007b00000f0a1004f04be0000000600881f780072
:1007c0000004780030d980000000e0000100320011
:1007d00000000100287bef0000d980000000e0004d
:1007e00001003200000001006140b80010d988000b
:1007f00021d988004f04780000000600000278002c
:100800008001780001003700b159780002004200f1
:10081000808f5100fcff3a000400780000000600c1
:100820006200fa00889fbe008a9fbe000004be00de
:10083000020578008300780060f92f000f00400067
:10084000b600070088979f0099979f000000eb0073
:10085000a09f9f009a4578000b80fb000000ea00f3
:10086000cf04de000904e90050c2b30080cf550078
:1008700001003200090478000800e0000b00340099
:10088000080178008a0078001f9097008f919700e8
:100890000300010090979f000000e00093003200e9
:1008a0002f98970008004000a09f9f000905450071
:1008b00050c2b30080cf5500040032000b04e000aa
:1008c000e4ff3a002f989700890037000000eb0002
:1008d000809f9f00f0979f00e0979f00d0979f0018
:1008e000c0979f00b0979f00c09f9f0009003700ee
:1008f000a0af21000080500000004000e1ae2100c8
:10090000e08078004f98970001007000c09f9f0022
:100910000a05e8001a4478008800fb00a0af210017
:1009200083000700800078000000e000f0ff3a003c
:10093000a0c2b300804f54000e003a00bf88970059
:100940000180e900b08f9f0090007800b19f9f0068
:100950000100e00005003d000100ea00b09f9f009b
:100960004f9897000020a000c09f9f000a05e80054
:1009700010003700b19f9f0009003700bf98970013
:10098000f0ff2700808f5000040032006a08b90091
:100990000000410003004000b09f9f000a05e800ee
:1009a0001a01fb0003fd2f0003004100e90f500076
:1009b000f2ff3600e0c2b3009a4f1000040032008c
:1009c0000080eb00909f9f008a0478001c00370095
:1009d0008a04e800a0c2b300994f100007003a0053
:1009e000bf8897000180e900b08f9f001000780059
:1009f000909f9f008a84e800110037000000eb0000
:100a0000909f9f00090037009f989700f0ff2700f4
:100a1000808f5000040032006a08b90000004100d5
:100a200003004000909f9f008904e8001901fb002b
:100a300003fd2f0003004100e90f5000f2ff3600d4
:100a4000194478008800fb0040b8210038000700f6
:100a50000000e00002003a00004478000100370086
:100a60008904e800a87f9f0080c6b300804f54002f
:100a700004003a0066405000994f1400070032000d
:100a800008003700c0c6b300804f540005003a008c
:100a9000994f140003003a0065404000a07f9f007a
:100aa0008904e8000905e800c8fb2f000f04440092
:100ab00060f92f000f0040008085e8008801780071
:100ac0001901fb00800078000b007800200007006f
:100ad0000000e00005003a00880078000b00780074
:100ae000650107000000e0005aff3d000080eb00b8
:100af0004f05be004f04be000080fa000000060053
:100b00000000e00003003400ea020700e10f4000ab
:100b100001003a000000eb00000006000200fa00ad
:100b2000f1bf9f00010878000080fa000000060075
:100b3000040037001004e00001003a000000050046
:100b40000000e80090cf1000faff3a000000060015
:100b5000889fbe008a1f7800000478000102780098
:100b60008244780003057800e0c6b300804f51004e
:100b7000d700320015003c006b405000804f510000
:100b8000240032000a003c0070405000804f5100a9
:100b90001401320065404000804f51007600320061
:100ba00050c2b300804f510027013a0023013700a3
:100bb00040c6b300804f51001b003200654040002a
:100bc000804f510020013a001700370030c7b300b2
:100bd000804f51000301320007003c006440500088
:100be000804f5100640032000040e800804f510007
:100bf00015013a00ec00370050c7b300804f510098
:100c00005d00320063404000804f51000e013a0009
:100c1000590037009180e900010a780078009000bf
:100c200011f079000e01370028619000c0c6b300b2
:100c3000804f51000a003a0014007800640150000f
:100c4000020a78001200be004f88de00cf80de006e
:100c50001202be0000037800800378001500370000
:100c600010c7b300804f510002003a009400780092
:100c70000400370094007800a0c6b300804f5100f4
:100c800005003a0068805000000a78003002be007b
:100c90002003be00070037000180e900000a780049
:100ca0001000780000027800cfa2de000503780073
:100cb00086037800049cbe000694be00a8609000e5
:100cc00080c6b30080cf50000e00320020c6b300b3
:100cd00080cf500005003a000400fb00cf80de000a
:100ce00001017800820178000a00370040c7b30094
:100cf00080cf5000030032006640400080cf50009b
:100d000006003a0004007800cf80de000101780080
:100d100082017800009cbe000294be003800be0034
:100d20002801be00e00f5000e08f5800e00f59008e
:100d3000e08f590003003d0078009000d1c2b3005d
:100d40000a003700081090000018a30003003200ca
:100d500078009000b1c2b300040037000008a3007f
:100d6000560032007800900001c2b30001707d008f
:100d70000000e8005000370028619000c0c6b300b2
:100d8000804f510007003a009400780064805000c2
:100d9000000a78001002be000003eb008603780012
:100da0001500370010c7b300804f510002003a0011
:100db000940078000400370094007800a0c6b300c7
:100dc000804f510005003a0068805000000a78000a
:100dd0003002be002003be00070037000180e9009a
:100de000000a78001000780000027800050020005a
:100df0000600200007002000049cbe000694be00f0
:100e0000a860900080c6b30080cf50000e00320072
:100e100020c6b30080cf500005003a000480fb00dc
:100e20000100200002002000030020000a0037001b
:100e300040c7b30080cf500003003200664040003e
:100e400080cf500006003a00040078000100200026
:100e50000200200003002000009cbe000294be009f
:100e6000081090000038a300140032003800be00c3
:100e70002801be00e00f5000e08f5800e00f59003d
:100e8000e08f59000d00320080c7b30080cf5400be
:100e90000300320080c5b30080cf540007003a0041
:100ea0007800900001c3b30001707d008000e8006d
:100eb00089707d000080e800700498007800900040
:100ec0000000450060049800894078004200370027
:100ed000a8609000c0c6b30080cf5000250032004b
:100ee0000a003c006440500080cf500028003200cf
:100ef00000c0e80080cf500014003200684050006d
:100f000080cf500022003a000a00370040c7b300eb
:100f100080cf50001e0032006640400080cf50005d
:100f20001b0032006940500080cf500018003a008a
:100f3000060037001480e900000a780010007800ed
:100f4000485c900008487800470037001480e900aa
:100f5000000a78001002780068089000cf80de0058
:100f60000101780082017800009abe000292be0062
:100f70003d0037001480e900000a78001001780075
:100f800068089000cf80de000089be003600370080
:100f90001480e900000a780010007800680c9000c6
:100fa00008087800300037001180e90080087800d8
:100fb00010007800cf80de00010178008201780007
:100fc000009cbe000294be00780090000000450026
:100fd0006004980081c7b30008007800f0000700a3
:100fe000210037001480e900000a780090017800a1
:100ff00063049800580990000200e00003003d00df
:1010000003007800fbfc07000a0037008000eb00bb
:101010000300780095010700800078000000e000e0
:10102000030032006800900000805000010037008b
:1010300058089000100c98000b00370078009000c2
:1010400002707d00060037007800900080004500a7
:101050000904e00001003a0059c2b3008948780051
:101060000000e800700498000000eb004f057800d5
:101070004f04be00000006000400fa00889fbe0076
:101080008a9fbe008c1f780000047800010678005b
:1010900070089000f800900001005000880890004f
:1010a000010050009808900001005000a80890002e
:1010b00001005000b808900001005000c8089000de
:1010c0008105500000022200a0bf9f000003230002
:1010d00090bf9f00081090000028a30018003a005d
:1010e0000b00e000160034008b047800090578003e
:1010f000e28f5400020036002a0020000200370070
:101100000900e0000b003400c80190000a017800db
:10111000ec80570058009000030001005004980034
:101120000000e00096003200680890000a004000cd
:10113000600c98008a8454004240a900ebff3c00f8
:10114000780190000200e0000b003400c80190001c
:101150008c007800580090000300010050049800b3
:101160000000e0008600320068089000f80090005f
:1011700001004000600c9800880c90000900e0001d
:101180001500340009057800e28f54000200360093
:101190002a002000020037000900e0000b003400a4
:1011a000c80190000a017800ee80570058009000b6
:1011b00003000100500498000000e00070003200bd
:1011c000680890000a004000600c98008a8454006f
:1011d0004240a900ebff3c00180990000200e0002b
:1011e0000b003400c8019000e80090005800900007
:1011f00003000100500498000000e000600032008d
:10120000680890009808900001004000600c980069
:10121000a80c90000900e0001500340009057800d2
:10122000e28f5400020036002a002000020037003e
:101230000900e0000b003400c80190000a017800aa
:10124000ee80570058009000030001005004980001
:101250000000e0004a003200680890000a004000e8
:10126000600c98008a8454004240a900ebff3c00c7
:10127000380990000200e0000d003400e800900002
:101280001808900080804000c8019000580090002d
:1012900003000100500498000000e0003800320014
:1012a00068089000b808900001004000600c9800a9
:1012b000c80c90000900e000150034000905780012
:1012c000e28f5400020036002a002000020037009e
:1012d0000900e0000b003400c80190000a0178000a
:1012e000ee80570058009000030001005004980061
:1012f0000000e00022003200680890000a00400070
:10130000600c98008a8454004240a900ebff3c0026
:10131000081090000028a3001b0032000b00e00022
:10132000190034008b04780009057800e28f54001e
:10133000020036002a002000020037000900e00009
:101340000b003400c80190000a017800ec805700bf
:101350005800900003000100500498000000e000d5
:1013600007003200680890000a004000600c9800f6
:101370008a8454004240a90003003400eaff370089
:101380000080eb00010037000000eb004f06780002
:101390004f05be004f04be000080fa0000000600aa
:1013a0006f02b000889fbe008a9fbe008c9fbe0067
:1013b0008e1f780000067800b0a8210080bf9f0033
:1013c00080c5b30080cf50000700320082002000ab
:1013d000f2b79f00a3a7210083bf9f007740400082
:1013e00080cf50000a00320080c7b30080cf500089
:1013f00005003200a4002000f4b79f0080c5b300b0
:1014000080cf500002003a0000012000f0b79f009a
:101410003c04be002c05be0040c6b30080cf500087
:10142000030032006540400080cf50000b003a00be
:10143000e00f5400e08f5c00e00f5d00e08f5d0086
:1014400006003d006000b8006011b80008045000bc
:10145000898458000a0559008b855900e00f540013
:10146000e08f5c00e00f5d00e08f5d0004003a005b
:101470005c0890008d0120000000e0000c003200ac
:10148000ffb0970001027800cfa2de0005037800cc
:10149000860378000800be000a01be00a104070010
:1014a0000fba970064407800d0e79f007d012000cc
:1014b0007fb0970000027800cfa2de00050378001d
:1014c000860378000800be000a01be008e040700f3
:1014d000009ebe000296be000d00e900e1fc2f0058
:1014e0008f804000008740001a0037007fb19700ce
:1014f00002027800cfa2de000503780086037800a0
:101500003c00be002c01be008a0407000205be009c
:101510000004be008d06e900ffb1970003027800c9
:10152000cfa2de0005037800860378000800be0025
:101530000a01be00080507003fb2970000005200f4
:101540008fb8970060cf7800089ebe000a96be0054
:101550000e07e9003c00be002c01be00b0b79f00a2
:10156000c1b79f00d2b79f00e3b79f00e00f5000c4
:10157000e08f5800e00f5900e08f5900020034005e
:101580000d00e000d9ff3c00ffb09700e88f50004d
:1015900010003a000c1090000038a3000d0032003b
:1015a000f78f560006003e00e2fc2f000d014100bf
:1015b000e2c07f0000c3b30080cf500005003200be
:1015c0008d06e90000c3b300e3fc2f008d814100cc
:1015d00080f17f0078811600120e98006c00900058
:1015e000e3fc2f008f8141008d80410083fc0700c8
:1015f0001c0990005c089000800f510006003d001f
:1016000002005000000e98000c1090000040a10055
:10161000001698000f0037000000e0000d003d00ac
:101620000c10900074006000f00f500009003a00a8
:101630007c089000fc009000010050008c08900095
:1016400001005000020050004240a9000100340097
:10165000000e98004f0778004f06be004f05be00f1
:101660004f04be006f02b100000006008201780046
:101670000400370090cf1000050032000000e800a1
:101680008301e9000300e000faff3a000000eb00ec
:10169000000006000c02e20004003d000f42ab0017
:1016a000020032000f02ab00feff32000040da0001
:1016b000feff3700889fbe008004780010dc8000a9
:1016c0000000e00003003a00100007000000e00006
:1016d0000a00350010dc80000900e00002003a003a
:1016e000000478000600370000047800090040007c
:1016f000060007000000e00001003d000084eb0050
:10170000080078004f04be0000000600800078004a
:101710000000e00004003a000000220010dc880015
:1017200001017800060037000081eb000020220054
:10173000808f500002003e0011dc88000001eb00a9
:101740000200780000000600889fbe008a9fbe004d
:10175000010578000100e0000400350008003c00ad
:101760000000e0002000320005003700600010009b
:10177000e080180002003b0001f02c001a00370046
:101780000004be006011b8006b0920000982cf0080
:10179000020039000882cf000441b00069425200c3
:1017a0000e00320008003b0082817100610164007c
:1017b0008904d1000884d3008b05e8000442e800c6
:1017c000f9ff3a00050037000804440089844c0002
:1017d0008b05e9000442e900fbff3a00c201070063
:1017e0000af0a70001f0a0004f05be004f04be00a4
:1017f00000000600889fbe008a9fbe008c1f7800f4
:10180000df0107001002200002003b0000dc88001e
:10181000e30137008a0062006408e10002003a0038
:1018200000dc8800eb0137006108e100fcff3200ba
:101830000800be00030478000b00070001f0a100bf
:10184000e701070008f0a600040037000001be0011
:1018500091042400b0fd20007900070009f0a700e2
:1018600001f0a200d7013700889fbe008a9fbe000a
:101870008c1f7800c2010700c901330003866c0089
:101880006450e1002e0032006420e1003300320099
:101890006150e1002f0032006120e1003100320090
:1018a00085855500eb07b0000900200008042000e2
:1018b000050037000804440089844c000a00310008
:1018c0000603430087834b000001530081815b00c6
:1018d000f8ff33000203be000800a0000804440023
:1018e00089844c00f6ff3900c639dd00830173009e
:1018f00001003200130020008904d1000884d300c5
:101900000998a300050032000800a7000300a0000a
:101910008904d1000884d3008b05e8008904d10034
:101920000884d3000001eb000281d2006e010700a1
:1019300001f0a1000cf0a70001f0a000a101370008
:101940006420e100a30132000801be000200be00d5
:10195000f7ff37006120e1009e0132006000b8000f
:10196000f3ff37000000200001f82700f0ff3700e8
:10197000889fbe008a9fbe008c1f780080010700f0
:101980008701330003866c006450e10024003200bc
:101990006420e100270032006150e10022003200a3
:1019a0006120e100210032008b854200eb07b1008d
:1019b0000134b800003ab8000804420089844a00a3
:1019c000013ab8000030b8008880400009014a00a0
:1019d00004003300000040008180480002014900fb
:1019e0008b05e900c909dd008301700001003200a8
:1019f00013002000c814de004814dd004709de0093
:101a00001200b200c808de0008847000360107002a
:101a100001f0a1000cf0a70001f0a000690137005f
:101a20006120e1006b0132000801be000200be002f
:101a3000f7ff37006150e100fcff3a006501370015
:101a400003f0a200889fbe008a9fbe008c1f780012
:101a50004b010700520133006450e1004f00320097
:101a60006420e1005200320003826c0007003b005a
:101a70000905d0000306d000820f54000c065d005b
:101a80000200390002003200890178000306780064
:101a90008582550004003d000003fd008103fd0028
:101aa0008502ea008b854200840f720002003b0031
:101ab00060001000e08018006011b8000005eb0025
:101ac0007a28e1000a00390006007800c75ddd00d1
:101ad000f707b200878075002d0037008281710002
:101ae0000a017800610560008180d1000080d30088
:101af0008502e900f9ff3b000604400087844800a6
:101b000002003b0060041400e0841c000988a3006c
:101b1000070032008a8171008281710061016400d6
:101b20008904d1000884d3008b05e8001700370032
:101b30000978a30013003a000b00e0001300340002
:101b40008b05e9000804440089844c000a447400b1
:101b50000978a3000d003a000b00e00007003400f4
:101b60008b05e9000804440089844c0001003a0018
:101b70000b0020000978a300f7ff32000001eb0002
:101b800002003700828171000a017800d600070048
:101b90000cf0a70001f0a0000a0137006420e1006a
:101ba00002003a00838f6c000a0133000801be0076
:101bb0000200be00030137000001eb006d010700c9
:101bc000040032000200200003f8230001f0a70007
:101bd0009bff0700000006000001be008c0107000b
:101be0000470a70003f0a1006509b10016003200df
:101bf0000d0035006828e10006003500f0ff2f00d9
:101c0000f1ff27000300e00013003b000100280063
:101c10000000050000004000818048008502e900c6
:101c2000fcff3a0008003700f88f420002003c0039
:101c30008000eb00000005008100d1000080d3008f
:101c40008502e800fcff3a000300e00002003b00d0
:101c500060001000e0801800000006001400200062
:101c600080013700f4ff2f007e013700839f68005a
:101c70000100e00002003d0060001000e08018005c
:101c80000300e00002003d0060011100e081190046
:101c90008f0107004f00e00002003b0060001000d1
:101ca000e0801800000006000001eb0098013700fa
:101cb000889fbe008a9fbe008c1f78000004be0073
:101cc000530107000478a30026003a006120e100d8
:101cd0002500320009f8a30025003a006420e10045
:101ce00021003200f507b1000508a3000200320010
:101cf00000004000818048006044b80003102000cc
:101d000002002000000040008180480008054400d7
:101d100089854c000a0541008b8549000a05500061
:101d20008b855800030033000a00be0002047400d3
:101d3000838474008301d1000281d300830f71007a
:101d4000f0ff3a008904d1000884d3006001490003
:101d500082017800c1adde00fb07b0006200070021
:101d6000980037000960a0000800be009500370009
:101d70001202200002dc8800f0ff2f00f1ff270094
:101d8000900037000400200036013700889fbe0015
:101d90008a9fbe008c9fbe00c401070085047800a6
:101da0000005be006420e10049003e006220e10021
:101db00003003200090035000bf8a3004400320094
:101dc0000bf8a300080032001002200000dc88009d
:101dd000f0ff2f00f1ff27003d00370001f82f0032
:101de000000020003a0037003d00070014ff070004
:101df0000006be000a00be00324f200053f323004d
:101e000098ff0700060034000c00be0034000700f5
:101e10000bff07000006be000a00be0002003700ec
:101e20008904e9000c00be002d000700d0fe070069
:101e30002b00070003ff07000001be000c00be00de
:101e400089fe07000005be000001be00c8fe0700b5
:101e50000006be00a2f32300430d2c00f9fe07008c
:101e6000809fbe000c00be00d2e32700d3f02b0001
:101e7000bffe07004f01be007bfe07000006be004c
:101e80000a01be00bafe07000a01be00edfe07000f
:101e90000006be006148b9002bfe07000005be0029
:101ea00032082800e3952b00b1fe07000c01be00ac
:101eb000e4fe07000006be000a00be000200280083
:101ec00013f32300aafe07000c01be00ddfe07008d
:101ed0004f06be004f05be004f04be0000000600c6
:101ee00003f02300020005008100200061805500fe
:101ef0000b003d000b00200061fe2f000100e100ff
:101f00001d00340082817100610164008904d100e8
:101f10000884d3000000e800faff3a0071002000b6
:101f200061006400030070000200600009003200dc
:101f300061044400e0844c000988a50005003200db
:101f40008b05e8006808e10002003a008904d1002e
:101f50000884d300f20f20000258e10005003d0084
:101f6000c75ddd00f907b2008980750008007800c0
:101f7000000006000bf827008b0078000000050029
:101f80000004be00a20007000003be000405be005e
:101f90000200be009e000700844f7500000006008e
:101fa0000200be006450e100050036006420e1003c
:101fb000020036000968a30001003a000800be00d4
:101fc0000160a0004f0678004f05be004f04be0020
:101fd00000000600f0ff2f00f1ff2700f9ff370097
:101fe000889fbe008a9fbe008c9fbe000004be007a
:101ff000870007000800be00890678006420e10021
:1020000008003900040032000160a0001202200024
:1020100002dc88005300370091fc2300b0fd200053
:102020004e0037000006eb0009f0a10003f8230082
:10203000020020000800be0008ff07000600340070
:1020400001f82300000020000801be0006fe070082
:102050000004be002c0020000800be0093e823000e
:10206000320a2300fdfe0700120034000801be0002
:10207000d1fd2300703d2b0072fe07000005be005d
:10208000b3f32300f27a26000800be0038fe0700f2
:1020900003f823000200200069fe07000801be00cb
:1020a00068fe07000a01be00effd07000004be0045
:1020b0000c06e8000800be0001f0a10002002000ac
:1020c00003982300e5fe07000800be001600350057
:1020d0000801be0026fe07000005be0032cd2c0020
:1020e00043fb230057fe0700809fbe0012692800b3
:1020f00003d52b000a00be001dfe0700620f210061
:1021000013ef2b004ffe07000a01be0018fe070068
:102110004f01be00d4fd07000801be0014fe0700f9
:102120000801be0047fe07000c00e0000b00320073
:102130000c10a70001f0a200b2fd200093fc2300c8
:102140006260e1000400320022a9200063f0230055
:102150000c10a70063f823003afe07000df0a7005b
:1021600001f0a2004f06be004f05be004f04be00a6
:1021700000000600889fbe008a9fbe000003be00cc
:1021800023000700850578008281520002002000ac
:102190006220e10004003a00f307b10004003500ba
:1021a0007718e100040035000600be001400370077
:1021b0006000b8000f003700f50f2000faff2f0075
:1021c0008502d1000a85d3008301e900fcff3b00b2
:1021d0008184620000046500890f7400f2ff320000
:1021e0008582ea000a85ea008184620000046500b5
:1021f0003dff070007f0a70001f0a0000081eb0001
:102200000200e0004f05be004f04be0000000600c3
:10221000c70ade00f107b200f50fb2000800320075
:10222000e1cf4200020032000170a000240005004e
:10223000810f700001003200040805004400050011
:10224000810f700002003a00140005008502e900c9
:102250000000400081c04800fcff3b000170a0006e
:1022600024000500889fbe008a9fbe00841f78005e
:1022700043ff07004f00780011003300f0ff2f00ec
:10228000838f6c0006003b00040565000a00a70070
:102290000800370009f0a6001000200008003700f1
:1022a000820f5400838f5c0003003900100020006f
:1022b00001003e000000200009f0a7000000ea0035
:1022c0004f05be004f04be000000e0000000060005
:1022d0006022b800060220000000d0008180d200f9
:1022e0000482d2008582d2000000a00002025200c7
:1022f00083825a0003003b000202420083824a00ac
:102300000000a1000603e900f3ff3a000000060008
:10231000889fbe008a9fbe008c9fbe000206780088
:1023200001f0a7000cf0a0000004be00b8ff0700f9
:102330000800be006420e1000700390002003a00f6
:10234000f1ff2700f0ff2f000160a0001202200023
:1023500002dc88005100370009f0a1000800be002f
:102360000200200003f823003efe0700f4ff3c00bb
:102370000800be00020020000398230037fe07007b
:102380000800be00300035000200200003f02300ea
:1023900034fe070005003c000800be000801be0036
:1023a00073fd07000005be000e0037000c10a200f0
:1023b0000000200001f823000801be00a0fd070076
:1023c0000200200003f0230069fd07000005be00a5
:1023d00037fe07000200200003002c0064fd070008
:1023e0000004be000a00be00b2d02800130b2c006f
:1023f00094fd07000a01be005dfd0700020f2500e5
:10240000330b24008ffd0700809fbe000a00be0032
:102410005206220013f02b0055fd0700b266210082
:10242000f3f6230087fd07000a01be0050fd0700f8
:102430004f01be000cfd07000801be004cfd070067
:102440000801be007ffd07000c00a7000700370051
:10245000b2fd200093fc23000c10a70079fd0700bb
:102460000cf0a70001f0a2000c0037000cf0a70050
:102470000200370001f0a20004003700b2fd200086
:10248000930424000c10a60003003700b2fd2000c6
:1024900093fc23000c10a7006afd07004f06be0046
:1024a0004f05be004f04be00000006000003be0042
:1024b00057ff07006220e100020032000600be0064
:1024c00005000500e507b100f107b20004f02300a4
:1024d0008480700007f0a70001f0a0002400050030
:1024e000020ab900001bb9000200b80081004200d6
:1024f0008100430000000600881f78000004780077
:102500005001be004000be000000420081804a0031
:1025100002014b0083814b00009cbe000294be0070
:102520000400e1000588e1000690e1000798e10061
:1025300002003100680044001008e8004f047800f1
:1025400000000600f4874700889fbe008a9fbe00f7
:102550008c9fbe008e1f78000205be000004be00e6
:10256000d4b79f00e5b79f00f6b79f0087bf9f00d5
:102570000000eb00c0b79f00b0b79f00a0b79f005e
:1025800090b79f0080b79f000d042000bfb0970058
:102590004fb09700000140000000e00014003d0033
:1025a0004f08de0000007100c0b79f00ad000700bb
:1025b00001003d0012002000b000070001003d00b6
:1025c00012002000b500070001003d0012002000ad
:1025d000ba000700be000700feff3a00c200070075
:1025e000c80007000f004000c3ff070027003700a6
:1025f0004f08de0000067100ccb79f00990007006d
:1026000001003d00120020009c00070001003d0079
:1026100012002000a100070001003d001200200070
:10262000a6000700aa000700feff3a00ae00070060
:102630000fb297009fb297002fb39700bfb39700d8
:10264000b60007000000520081805a0002015b00c2
:1026500083815b0080b79f0091b79f00a2b79f0066
:10266000b3b79f000007eb00ac0007000020e100bb
:1026700001a8e10002b0e10003b8e100010031006f
:102680001e0020000e005600c0b79f004fb29700fa
:102690000400e000070035001000200001002000c9
:1026a0006011b80008047000898470000a05710088
:1026b0008b8571008d06e900b4ff3a000400e0004c
:1026c00003003d008f0007000f0040008aff070055
:1026d0004fa897000000e00004003a000fb49700f4
:1026e0009fb497002fb59700bfb5970097000700dc
:1026f0004f0778004f06be004f05be004f04be00d6
:102700004f01b10000000600881f7800180020006b
:10271000881f78008bff07008f87e9004f0478003f
:1027200000000600801feb0086ff07008f87e9008e
:1027300000000600889fbe008a9fbe008c1f7800a4
:102740007b00070005003d002f00070007003d004b
:102750003d0007000006eb00040037003f000700c3
:1027600002003d00300007001c0020007700070039
:10277000e5ff07000203be000002be000c00e000ff
:1027800001003200280007000400be000601be0060
:102790004f0678004f05be004f04be000000060043
:1027a000889fbe008a9fbe008c1f780060000700d3
:1027b00003003d001400070006003d000400370040
:1027c0002600070003003d006000b8006011b8005b
:1027d0001d0007005d000700d2ff07000203be00d6
:1027e0000002be000c00e000010032000e000700f5
:1027f0000400be000601be004f0678004f05be0073
:102800004f04be00000006006000b8006011b80070
:1028100008045000898458000a0559008b85590026
:102820001c002000030037006000b8006011b800f1
:1028300005003700e00f5200e08f5a00e00f5b0008
:10284000e08f5b0000000600040250008582580003
:102850000603590087835900000006000006eb00bc
:10286000f4ff37000180400090b79f000001eb00ab
:102870008fb097000100e000000006000200700029
:1028800090b79f000180400080b79f000001eb00df
:10289000ffa897000100e0000000060002007000a1
:1028a00080b79f0001804000f0af9f000001eb0067
:1028b000efa897000100e000000006000200700091
:1028c000f0af9f000182400020000700f5030500e3
:1028d0008301d1000281d3008180d3000080d30026
:1028e0008502e9000000060000027200e4af9f00cc
:1028f0000804440089844c000a054d008b854d0076
:10290000000006003fb29700cfb297005fb3970078
:10291000efb3970000fe2f00000006003fb09700c5
:10292000cfb097005fb19700efb1970000000600ad
:102930000205be000004be00e00f5000e08f58000a
:10294000e00f5900e08f5900000006000800be00ab
:102950000a01be0000000600889fbe008a9fbe00dc
:102960008c1f78000205be000004be000006eb00cc
:10297000e00f5000e08f5800e00f5900e08f590041
:1029800007003d006000b8006011b8000804500066
:10299000898458000a0559008b8559001c002000c5
:1029a000e00f5200e08f5a00e00f5b00e08f5b0009
:1029b00002003d000f0007000c00a2000800be004e
:1029c0000a01be00120007000203be000002be00a2
:1029d0000c00e00001003200060007000400be0009
:1029e0000601be004f0678004f05be004f04be0032
:1029f000000006006000b8006011b800040250003a
:102a0000858258000603590087835900000006009c
:102a1000889fbe008a9fbe008c9fbe000404b80041
:102a20000506b8008904460060854e000606b80019
:102a30000a054600e0854e000706b8008b054600f3
:102a4000040eb800890446000a854e00e0854d005a
:102a5000050eb8000a0546008b854e00060eb8002c
:102a60008b0546000416b8000a0546008b854e000b
:102a70000516b8008b054600041eb8008b054600fd
:102a80000800be000a01be004f06be004f05be0092
:102a90004f04be0000000600889fbe008a9fbe0053
:102aa0008c9fbe004400f800070f2000270288001a
:102ab0003400f80007f02f000338e1000400320072
:102ac000270280004700b30027028800a301880086
:102ad000811f780019002000804cdd0013002000c9
:102ae00002047800800678008904d100424edd009f
:102af000010578000302e9000480080017000000c7
:102b00008a0546004218dd000902e9000480080039
:102b100010000000000000004620c3003b025200ed
:102b2000df35c100080440001381c200ab825200af
:102b3000264dc5003e85c400bb00cd00bb80cd0046
:102b40003a00ca002a80ca000700c9000580c900ef
:102b5000ba00cd00ba80cd000a0546000204780014
:102b60008301d0008d06e900dfff3c004f007800b4
:102b70003400f9004400f9004f06be004f05be00c6
:102b80004f04be00000006004600f8005000f800a8
:102b900002202000320288000200280013002000da
:102ba0008019dd0002817100820288000100780036
:102bb0000101780026002000470020008301e90081
:102bc00003800800070000000110e1000400340049
:102bd0001102be0092087800e2307b000489be003a
:102be00087804000121978005000f9004600f90073
:102bf000000006005200fa007c060700ca06070023
:102c000040c7bf00614060000004e00002003200e5
:102c10004007a9000000fe002a060700000f780008
:102c20008e80e8001e007800801f780000202800b9
:102c3000801f780001007800ddf50700e487570069
:102c40000e80e800ebf50700800078000e80e800b9
:102c50000f0707001e00e00002003a000b0a070001
:102c600029003700100020009e0f100002003a00db
:102c70002600070024003700200020009e0f1000cf
:102c800002003a00c30407001f0037003000200094
:102c90009e0f100002003a00e12d07001a003700d5
:102ca000400020009e0f100002003a00fb190700b0
:102cb00015003700500020009e0f100002003a005f
:102cc000041a070010003700600020009e0f10005b
:102cd00002003a009c2b07000b0037007000200018
:102ce0009e0f100002003a00272a07000600370056
:102cf000800020009e0f100002003a00112d0700f6
:102d000001003700011f0700ffff37001800fa001d
:102d1000889fbe008a9fbe00340607000040eb007b
:102d20008b0d070003060700110020008000200023
:102d300065140700910b07008000eb008000200065
:102d4000611407000000eb0040079800803e20005f
:102d5000010020005007980061079800000037002c
:102d60000000eb00d0090700300f98001000200091
:102d7000cd090700200f980020002000ca09070095
:102d8000802eb000100f98001e0890000000e00098
:102d900006003d009e08900080da2f00808f5000d2
:102da000020034000000eb00100f98003e08900075
:102db0006103b9003e0890006101b9000235b80016
:102dc00003b0b9000b027800000242000790b9007e
:102dd00000024200840578002e0890006104b900ca
:102de0002e0890006101b9000243b80003c0b90089
:102df00007027800000242000990b9000002420078
:102e0000840378000a0543008b854b001e08900060
:102e10006104b9001e0890006101b9000243b800c6
:102e200003c0b90007027800000242000990b9000f
:102e300000024200840378000a0043008b804b00ac
:102e400070079800010f98005e009000ee0090005f
:102e5000c289de004e0add004201de00020172007e
:102e60007e0090008e0890000200400083804800a1
:102e7000500798006107980060d980000000e000ca
:102e80000a003a004e0090000000e0000700320007
:102e90000000eb00400798008000eb00800020005d
:102ea000091407000000eb00bd1507005e0190004b
:102eb000ee019000703e200001002000800f5100c4
:102ec000818f590013003c004e009000e10f50002c
:102ed000a3ff3200100020004007980010002000df
:102ee00050d9880060d980000000e000fdff3a0062
:102ef00001f5210040b122009b05070010002000d1
:102f0000a71507008000eb0080002000ee130700eb
:102f100093ff37005e019000ee01900000902000ca
:102f2000d1032000800f5100818f59008cff3400a5
:102f30004e009000e20f500089ff32002000200078
:102f4000400798001000200050d9880060d9800008
:102f50000000e000fdff3a003e089000630f6000b3
:102f60001e00e00004003a00018420000000eb0095
:102f70007d0507000a003700100020009e0f10009a
:102f800004003a00016e200040842000760507000e
:102f90000300370041d5200060f2200072050700d1
:102fa0000000eb007e1507003e089000cf80de0099
:102fb000e5f907000004be002e089000cf80de0077
:102fc000e1f907000801be000afa0700100798009f
:102fd000210798003e089000cf80de00daf9070054
:102fe0000004be002e089000cf80de00d6f9070056
:102ff0000801be00fff90700b2fd20009304240081
:1030000019fa0700020020000308240058fa0700fc
:10301000b2fd200093fc23008afa0700b2fd2000d5
:1030200093ec230087fa0700e3fa0700eafa0700a7
:1030300030079800030037003e0090006800500001
:10304000300798003e009000e80f5000faff3c0067
:10305000030037003e0090006800400030079800f1
:103060003e0090000000e000faff35003e009000b6
:10307000110020009413070039ff37000400fa0004
:10308000889fbe008a1f78000000eb0080658800e2
:10309000650f07000004e000fdff32000000eb00b8
:1030a000000f78000c0037001e0478001e00780026
:1030b00025100700cf80de00a3f907000001be0045
:1030c000080044008000400020cb20000080400029
:1030d0000288be001e0fe800200020009e0f100096
:1030e000f1ff34000000eb00000f780051003700c2
:1030f0000000eb0010079800170037001e0478004e
:103100009e0490001e0078000000400080004000f7
:1031100020cb2000008040001000be00a2702d00d7
:1031200033c2230012fa07000001be00400620004f
:1031300000c0b900090040000000400080004000cd
:1031400000802000008040000288be001e00900029
:103150000000e800100798009e0090003006200054
:10316000808f5000e5ff34001e0578001e007800b7
:10317000000040008000400020cb20000080400084
:103180001004be001e0078000000400080004000d7
:1031900020cb2000008040001000be00d2cc2c00cc
:1031a000c3dc2b00f2f907000001be000800be00de
:1031b00024fa07000001be000a004500800040001c
:1031c000a0cc2000008040000288be001e057800d0
:1031d0001e007800000040008000400020cb20004e
:1031e000008040001004be001e0078000000400077
:1031f0008000400020cb2000008040001000be0076
:10320000d2cc2c00c3dc2300d9f907000001be009a
:103210000800be000bfa07000001be000a004500ce
:1032200080004000e0cb2000008040000288be000b
:103230001e0fe800200020009e0f1000acff34009d
:103240004f0578004f04be000080fa000000060021
:103250000000fa000000eb00d0d98800f20e070051
:103260000004e000fdff32000080fa0000000600cc
:103270000e00fa000000eb00b30f0700800078009a
:103280000e80e8000108780010002000ae0f070053
:10329000800078000e80e8001100980020002000d7
:1032a000a90f0700800078000e80e8002100980038
:1032b0000e80e80010007800cf80de0022f90700c1
:1032c000f2658000036680000042eb00244f980006
:1032d00062fa07000000e00001003500020037003c
:1032e00010c0b300204f98002e4890000004a200a8
:1032f0000004e00009003a000e80e80010007800a9
:10330000cf80de0010f907005266800063668000ff
:1033100054fa07000000e00037003c000e80e8008f
:1033200010009000cf80de0007f9070012668000d1
:10333000236680000042eb00144f980047fa070014
:103340000000e000010035000200370010c0b300ab
:10335000104f98001e4890000004a2000004e000f6
:1033600009003a000e80e80010009000cf80de00d7
:10337000f5f80700726680008366800039fa07005e
:103380000000e0001c003c000e80e80020009000df
:10339000cf80de00ecf807003266800043668000d4
:1033a0000042eb00044f98002cfa07000000e000f8
:1033b000010035000200370010c0b300004f980034
:1033c0000e4890000004a2000004e0000d003a0046
:1033d0000e80e80020009000cf80de00daf80700c1
:1033e00092668000a36680001efa07000000e000dd
:1033f00001003c000300370014002000640798001f
:10340000020037000000eb00600798006e02900099
:10341000040f78000e80e800550007001e007800b9
:103420000080fa00000006000400fa00889fbe0039
:103430000000eb0010079800470037000000eb0089
:10344000000f78003e0037001e0490009e047800b4
:103450009e0090001e017800400620000088b90000
:103460000200400080004000c0cd200000804000ed
:1034700010007800cf80de00b3f807000002be0025
:103480001e009000000040008000400020cb200083
:10349000008040001001be000400be0068f9070073
:1034a000cdf90700000178004006200000c0b900f7
:1034b0000900400080004000c0cd20000080400096
:1034c000020878009e0090001e017800400620004f
:1034d0000088b9000200400080004000c0cd2000fc
:1034e00000804000100078000000e00013003d0064
:1034f0009e0190001e0278009e0090001e01780040
:10350000400620000088b900020040008000400012
:10351000c0cd200000804000100078000001ea00cb
:10352000400620000098b9000400400080004000e0
:10353000c0cd200000804000020878001e0fe80087
:10354000300620009e0f1000bfff34001e009000c8
:103550000000e800100798001e009000e20f5000e5
:10356000b6ff34004f04be000080fa0000000600e1
:103570000400fa00889fbe008a1f78001007980098
:10358000290e07000004e000fdff32000000eb0000
:10359000000f78007b0037001e0478001e007800c2
:1035a000000040008000400020cb20000080400050
:1035b0001002be009e007800826580004006200058
:1035c0000088b90002004000000040008000400078
:1035d00000802000008040001001be000400be00fa
:1035e00017f907000001be000800440080004000f9
:1035f00020cb2000008040000288be001e0478001e
:10360000896580001e00780000004000800078007e
:103610001e0090000080400010007800cf80de0087
:1036200049f80700a2702d0033c22300d0f807002c
:103630000001be004006200000c0b90009004000a3
:10364000000040008000400000802000008040001a
:103650000288be001e0478001e00780000004000b2
:103660008000400020cb2000008040001002be00ff
:103670009e00780082658000400620000088b90026
:103680000200400000004000800040000080200058
:10369000008040001001be000400be00e9f80700f1
:1036a0000001be00080044008000400020cb200044
:1036b000008040000288be001e0578001e007800d1
:1036c000000040008000400020cb2000008040002f
:1036d0001004be001e007800000040008000400082
:1036e00020cb2000008040001000be00d2cc2c0077
:1036f000c3dc2b009ef807000001be000800be00de
:10370000d0f807000001be000a004500800040001c
:10371000a0cc2000008040000288be001e0578007a
:103720001e007800000040008000400020cb2000f8
:10373000008040001004be001e0078000000400021
:103740008000400020cb2000008040001000be0020
:10375000d2cc2c00c3dc230085f807000001be009a
:103760000800be00b7f807000001be000a004500cf
:1037700080004000e0cb2000008040000288be00b6
:103780001e0fe800200020009e0f100082ff340072
:103790008165800020062000808f500004003c00de
:1037a000806580000000e800806588000200370026
:1037b0000000eb00806588004f0578004f04be00d4
:1037c0000080fa00000006000c00fa004007980094
:1037d000510798006000b800200798003107980052
:1037e0004e009000e20f500030003e005e0090005e
:1037f0000000e0002d003200de00900040062000b6
:10380000808f500029003e000000eb001007980058
:10381000d1d980005e009000008050005006b000ba
:1038200042062000110009000280d8008000fd003f
:10383000000f780019003700ce0090001e017800bc
:10384000400620000088b9000200400080004000cf
:10385000c0cd200000804000100078006101b90058
:103860002e009000be0090000000410081804900c1
:1038700020079800310798001e0090000000e80023
:10388000100798001e00e800420620001100090001
:103890000200d8008000fd00000f78009e0090001c
:1038a0005e009000808f5000e3ff39005e009000c2
:1038b0006101b8002e009000be009000ebf80700f8
:1038c0000080fa00000006001000fa00110020003d
:1038d0000000eb00b2000700700798007e00900027
:1038e000cf80de0098f7070002002000030c2400c0
:1038f000dcf807000000e00001003d000500370093
:1039000060e5200091fc2300200798003107980013
:10391000170037007e009000cf80de008af7070096
:1039200002002000030c2c00ccf807000000e0008f
:10393000010034000500370060e5200091fc2b00f9
:103940002007980031079800090037007e0090009a
:10395000cf80de007cf7070002002000030c24006b
:10396000c1f70700d0f8070020079800310798003a
:103970006011b8002e009000be009000b9f807005a
:103980000000e00001003c003a0037001100200078
:103990002000200082000700600798006e00900061
:1039a000cf80de0068f7070002002000030a240031
:1039b000acf807000000e00001003d000400370003
:1039c00060e5200091fc2300008fbe001500370049
:1039d0006e009000cf80de005bf707000200200041
:1039e000030a2c009df807000000e00001003400ed
:1039f0000400370060e5200091fc2b00008fbe0022
:103a0000080037006e009000cf80de004ef7070000
:103a100002002000030a240093f70700a2f8070021
:103a2000008fbe00f298200063f023001e00be004d
:103a30008cf807000000e00001003c00080037009f
:103a40002e019000be01900060e52000910424004a
:103a5000fbf7070040079800510798003e00370029
:103a60002e009000be00900040079800510798007b
:103a700039003700210020000000eb00480007005b
:103a8000600798006e009000cf80de002ef70700e0
:103a900002002000030a240072f807000000e00082
:103aa00001003d000400370060e5200091fc230088
:103ab000008fbe00150037006e009000cf80de0042
:103ac00021f7070002002000030a2c0063f807001a
:103ad0000000e000010034000400370060e5200031
:103ae00091fc2b00008fbe00080037006e00900094
:103af000cf80de0014f7070002002000030a240034
:103b000059f7070068f80700008fbe00f298200000
:103b100063f02b001e00be0050f807000000e0001c
:103b200001003500080037002e019000be01900012
:103b300060e5200091042400c1f7070040079800c9
:103b400051079800040037002e009000be0090003e
:103b500040079800510798006011b8004e0090008f
:103b6000de0090003df807000000e0000100350095
:103b70000700370062e52000930c24004e009000ff
:103b8000de009000aff7070040079800510798004b
:103b90004e009000de0090000080fa000000060059
:103ba0001a00fa00889fbe00300f9800410f98005d
:103bb00090ff2f0030079800700020002007980029
:103bc0008000200010079800c0052000000f78003a
:103bd0006000b80040079800510798003e00900030
:103be000100f98003f0037006000b8006007980091
:103bf000710798009e009000010f98002600370082
:103c0000be0890000e099000400620000088b90010
:103c10000200400080004000c0cd20000080400035
:103c2000100078006104b9004e0990008e089000e1
:103c30001e08900080814000400620000090b900de
:103c40000300400080004000c0cd20000080400004
:103c5000100078006101b9000243b80003c0b90048
:103c600007027800000242000990b90000024200f9
:103c7000840378006e009000fe0090000000430076
:103c800081804b0060079800710798000e08900033
:103c90000000e800000f98000e0890009e0f5000f2
:103ca000d7ff35006e019000fe0190004e0090009d
:103cb000de009000800f5100818f59000600340013
:103cc0006e009000fe009000400798005107980099
:103cd0009e089000210f98001e0890000000e80048
:103ce000100f98009e0890002e009000808f5000ca
:103cf000bdff35002e0890004f04be000080fa0082
:103d0000000006000a00fa003007980041079800fa
:103d1000600020002007980062e5200093ec23005b
:103d20003e009000ce009000cef707000000e000bb
:103d300001003c00020037007000200020079800be
:103d400002ac2c0063f923003e009000ce009000ee
:103d5000c4f707000000e00001003c00020037004b
:103d60009000200020079800c21e2500b3ff23000a
:103d70003e009000ce009000baf707000000e0007f
:103d800001003c0002003700c0002000200798001e
:103d9000b2c82e00f30224003e009000ce00900036
:103da000b0f707000000e00001003c00020037000f
:103db000a000200020079800120223002306240000
:103dc0003e009000ce009000a6f707000000e00043
:103dd00001003c0002003700d000200020079800be
:103de000b29d2300a30824003e009000ce00900066
:103df0009cf707000000e00001003c0002003700d3
:103e0000e00020002007980062ba2500330a240051
:103e10003e009000ce00900092f707000000e00006
:103e200001003c0002003700f0002000200798004d
:103e300012d72700c30b24003e009000ce00900054
:103e400088f707000000e00001003c000200370096
:103e50006000200020079800110020002e00900034
:103e60000008dd00201688006000b800008fbe004a
:103e70000400370010002000010020001e0f400049
:103e80005e974800f0d3200031002000be0f1000e4
:103e9000ae8f1800f7ff34000000eb0020168800fa
:103ea0000080fa00000006000600fa0010079800e3
:103eb0002107980062e52000930424001e00900072
:103ec000ae00900065f707000000e000010035003b
:103ed000140037000000eb00eb0f0700803e2000cd
:103ee0004a0f070080c12f00850f07001e009000b9
:103ef000ae00900062e52000930c24005af6070003
:103f000002002800234a240099f6070032f7070030
:103f1000000f7800d80f07009e0f5000fdff3500fe
:103f2000160037000000eb00e10f070080c12f00f2
:103f3000360f0700803e2000710f07001e01900021
:103f4000ae01900060e52000910c2400bcf6070053
:103f500062e52000930c240043f6070002002800cd
:103f6000234a240082f607001bf70700000f7800a1
:103f7000cb0f07009e0f5000fdff35000000eb0047
:103f8000220f07000000eb005d0f07000080fa0021
:103f9000000006000600fa0010c0b300ec0807009d
:103fa000110f0700210d070034fc070033fc070048
:103fb000100020002007980002003700acfc07002a
:103fc000200798002e0090000000e000fbff3a0060
:103fd0009ffc0700a20b070013fd07003afe070035
:103fe000008fbe009a0b07001e00be0045ff0700b1
:103ff0001e00be00acff0700ecff37000000fa0017
:10400000e6c2bf000080fb004600de0061406000a9
:104010000081fb00e7c2bf000080fb000000d10070
:10402000614060000080fb000000400080007800dc
:10403000e7c2bf00614060000080fb0000804000dc
:104040000000400080007800e6c2bf000080fb0056
:104050004700de000080fb000080400000004000c0
:10406000000041000080fa00000006000400fa0091
:10407000881f7800100798000000eb00000f780000
:10408000090037001e007800000040008000780022
:104090001e009000008440001e007800f60b070010
:1040a000000c78001e0fe800700020009e0f10002a
:1040b000f4ff36004f0478000080fa00000006008c
:1040c0000400fa00000f78001107980000ce2f00be
:1040d0009e0f100002003d0000ce2f00000f780060
:1040e000003220009e0f1000020034000032200039
:1040f000000f78009e00900000ce2f00808f5000af
:1041000002003d0000ce2f00100798009e00900096
:1041100000322000808f5000020034000032200066
:10412000100798001e007800b80e07001e009000cf
:10413000f30e07000080fa00000006001c00fa00e1
:104140002a0107000040eb0081080700a60e0700c7
:10415000b60c0700419c200080782400c80c0700a2
:10416000419c200020722400c50c070080782400a8
:10417000500d0700207224004e0d07003c0b070075
:104180000000eb00100798009cff07000000a20051
:10419000614f60006c004700b4ff07000000eb00b7
:1041a0002007980095ff0700610060000004e00010
:1041b0003f0032001e04e00007003a0010c0b300c8
:1041c000004f7800eb10070080782400390d0700bd
:1041d00020722400510d07000000eb00300798000a
:1041e0000a0037003e009000ec004700000040004d
:1041f000e080780020032000808f500006003c0003
:104200003e0090000000e800300798003e0090005b
:10421000e70f5000f3ff34003e009000e80f50001d
:1042200003003a0010002000200798005f003700cc
:1042300060ff2f00e0d4880060ff2f0050d5880079
:10424000a000200060d58800a0002000d0d5880004
:104250006c004700a0009000c0122000808f50002a
:10426000520034006c0047009000900080f32f0053
:10427000808040006c004700110098006c004700ef
:10428000a000900080da2f00808040006c00470082
:10429000210098006c004700b0009000c0f92f008a
:1042a000808040006c004700310098003f003700dc
:1042b00010c0b3009e4f100007003a000040eb0012
:1042c000004f7800ab10070020722400f90c0700a3
:1042d00080782400110d07000000eb0030079800e3
:1042e0000a0037003e009000ec004700000040004c
:1042f000e080780020032000808f500006003c0002
:104300003e0090000000e800300798003e0090005a
:10431000e70f5000f3ff34003e009000e80f50001c
:1043200003003a0010002000200798001f0037000b
:10433000a0002000e0d48800a000200050d5880014
:1043400060ff2f0060d5880060ff2f00d0d5880067
:104350006c004700d0009000c0122000808f5000f9
:10436000120034006c004700c0009000c0f92f001c
:10437000808040006c004700410098006c004700be
:10438000d000900080da2f00808040006c00470051
:10439000510098006c004700e000900080f32f006f
:1043a000808040006c00470061009800e01520000c
:1043b00050079800e0152000400798002e0090005c
:1043c0000000e00027003a000000eb0030079800f2
:1043d000210037003e00900080004000c0a921006d
:1043e00000804000100178003e009000ec00470083
:1043f00000004000608078004480de000090b9003a
:10440000800078005e009000010040005007980096
:104410003e00900080004000c0aa210000804000c3
:10442000100178003e009000ec00470000004000c2
:10443000608078004480de000090b9008000780041
:104440004e00900001004000400798003e009000a0
:104450000000e800300798003e009000e70f500091
:10446000dcff3400ce0090005e00900014ff0700d7
:1044700080a92300010020000100070045ff37004c
:104480000800fa0020079800310798006000b80083
:10449000008fbe0004003700100020000100200043
:1044a0001e0f40005e9748002e009000be00900056
:1044b000be0f1000ae8f1800f7ff35000080fa0025
:1044c000000006000000fa00e6c2bf000080fb000a
:1044d0004600de00614060000081fb00e7c2bf00d3
:1044e0000080fb000000d100614060000080fb0004
:1044f0000000400080007800e7c2bf00614060001b
:104500000080fb0000804000000040008000780038
:10451000e6c2bf000080fb004700de000080fb0019
:104520000080400000004000000041000080fa00d0
:10453000000006000200fa00e202a8000000eb0002
:10454000000f7800010037001e0fe800f070220015
:104550009e0f1000fcff34006c01070015010700de
:104560000080fa00000006000400fa00000f780046
:10457000110798002cbbef002a3bef009e00900033
:104580001e007800d00007000080fa00000006003e
:104590000000fa00e202a9000080fa000000060014
:1045a0000200fa00b301070042020700b901070048
:1045b000f1c0b300c0c3b300be010700004f7800d4
:1045c000b801070000c4b3009e4f100003003a007a
:1045d00010c0b30074fbb700020037000040eb00ce
:1045e00074fbb7000080fa00000006000000fa002b
:1045f000c4c2a900c4e2a900c522a900c582a900bd
:10460000c542a900c5a2a900c5c2a900c5e2a9006a
:10461000c0c2a900c0e2a900c122a900c182a900ac
:10462000c142a900c1a2a900c1c2a900c1e2a9005a
:10463000d022a900cc22a900d042a900cc42a900d6
:10464000e2e2a900e302a900e802a900e822a90029
:10465000dee2a900df02a900e402a900e422a90029
:10466000e202a900de02a900d602a900d622a90012
:10467000d642a900d662a900d682a900d6a2a90076
:10468000d6c2a900d6e2a900d202a900d222a9006e
:10469000d242a900d262a900d282a900d2a2a90066
:1046a000d2c2a900d2e2a900d1a2a900cda2a9003c
:1046b000e842a900e862a900e442a900e462a90076
:1046c000de22a800dec2a800e4c2a800e4e2a8003e
:1046d000e502a800e522a800d302a800d322a80082
:1046e000d342a800d362a800d382a800d3a2a80016
:1046f000d3c2a800d3e2a800a9ff070074dbbf0063
:104700000004e00001003200122d07000080fa00d2
:10471000000006000000fa0074dbbf000080fb0010
:104720000080fa00000006000c22ef000e22ef00cd
:104730000ee2a9000ec2a9008520a9008d20a800c4
:104740000de2a80070002000a01088008540a9009c
:104750008d40a80081e0a900c0048000f1002f0076
:10476000008060000155200000804000c0048800e7
:104770000fe2a8000f42a8009a39ef009c39ef0021
:1047800000000600809fbe008520a9000e22a9001f
:104790000e02ab0008003200d0cc8000f003b20063
:1047a000a19521008100400012c2bf00804878001e
:1047b0009a39ec00f6ff37004f00be0000400600bb
:1047c000d0cc8000e1cc8000010050000000060049
:1047d000d1cc8000e2cc80000208e1000800320069
:1047e000f203b200a19521000281400092407800be
:1047f000014878009c39ec00100020000000060001
:104800000000eb00000006008540a900809fbe006c
:10481000821f7800461be20015003200421be200b6
:1048200016003200441be2001400320011da80004e
:10483000420020000f22af00feff370020da800088
:104840000000e000070032000000e90044bbb700b0
:104850003140780010e2b7000201e900f5ff3a00ac
:1048600002003700423bef000100370011da8800f8
:104870004f0178004f00be000040060000002000fd
:1048800030da88004f0178004f00be00004006007b
:10489000461be200feff3a008d40a9008100e900be
:1048a00021da8800b04078008110880010da880092
:1048b0001100200031da88008d40a80000000600b9
:1048c00030da800000000600811f7800821f780027
:1048d0004100dd00030037004f017800cf00780071
:1048e0000000060071d988000001eb00c1622800b9
:1048f000810040000300390002002800828040004f
:10490000120020004400f8003400f8004440a800e1
:104910001000200002004000a001880000000000fc
:10492000cc24020000000000110078000000a1006b
:10493000c0128800cc2402000000000011007800a2
:104940000000a100d0128800cc240200000000006a
:10495000110078000000a100e0128800cc240200c1
:1049600000000000110078000000a100f012880093
:104970002ebbed002ebbed00b1db8800a101800055
:1049800081d988003400f900000000004400f900db
:104990008920a900d0ff3700e280400004003900e0
:1049a000a1018000e1804000a101880001002800f1
:1049b00000000600811f7800801f7800f0ff2700ac
:1049c000c0128800003020000000b300d012880020
:1049d000de02a90000000000e002a9009001090029
:1049e00000000000e002a80041e2a8004602ae007c
:1049f000feff3700f0ff2700c012880000402000b3
:104a00003001b300d01288004602ae00feff37002e
:104a1000f0ff2700c0128800001020000030a00026
:104a20000040a000d01288004602ae00feff370012
:104a3000f0ff2700c012880000202000d01288005c
:104a40004602ae00feff3700f0ff2700c0128800cc
:104a5000006020000010a000d01288004602ae00c6
:104a6000feff3700f0ff2700c01288000070200012
:104a7000f005b300d01288004602ae00feff3700fa
:104a800001f0200030128000010060000000e00012
:104a9000fcff3a0030128000010060000000e000de
:104aa000fcff320030128000010060000000e000d6
:104ab000fcff3a0030128000010060000000e000be
:104ac000fcff32004662ae00020037008012800018
:104ad0009012800041e2a900f01e20001012880010
:104ae0004362a8004342a8008920a900a8c0a800ea
:104af000a8a0a900a880a9009120a80041e2a800d0
:104b00004f007800cf00780000000600801f78007a
:104b10004022ef004222ef004422ef004822ef0043
:104b20004c22ef00c6e2a800e5a2a900e582a80099
:104b3000e5e2a900e5c2a9004002a9004022a900bf
:104b400040a2a9004122a90040c2a8004102a90038
:104b50004142a900f00e2000101288004362a90013
:104b60004342a80030002000201288004c02a80018
:104b70004802a8008920a9009120a90041e2a900cb
:104b80004f007800000006008920a900809fbe0029
:104b9000829fbe008012800090128000a0128000d0
:104ba000b01280002a1be20026003a002e1be20011
:104bb000240032003400f8004400f8004440a8000b
:104bc00080d98000a0018800b1db80002c26020083
:104bd00000000000110078000000a100c012880051
:104be0002c26020000000000110078000000a10047
:104bf000d01288002c26020000000000110078006e
:104c00000000a100e01288002c2602000000000035
:104c1000110078000000a100f01288002ebbed000a
:104c20002ebbed00b1db8800a101800081d9880096
:104c30004400f9003400f9004f01be004f00be00ef
:104c4000004006002c3bef002abbef004f01be00e6
:104c50004f00be0000400600e28040000400390022
:104c6000a1018000e1804000a1018800010028002e
:104c7000000006000000fa00680007000080fa004b
:104c8000000006000000fa00810007000080fa0022
:104c9000000006000000fa00ac0007000080fa00e7
:104ca000000006000000fa00ae0007000080fa00d5
:104cb000000006000400fa002047980031479800e1
:104cc0000040eb00004f78001800370010c0b30020
:104cd000004f7800a90007001e4f60002e40900092
:104ce000c10107001e4f60003e409000be0107005a
:104cf0001e4f6000c30007001e4f60002e40900052
:104d00000040e800b80107001e4f60000e00e800f8
:104d10005f0107001e4f60002a010700db0007004b
:104d20001e04e00003003a00620007001e04e000d9
:104d3000e6ff32001e4090000000fb000080fa00f9
:104d4000000006000600fa0020479800314798004e
:104d5000424798000040eb00004f780012003700f7
:104d600010c0b300004f7800840007001e4f6000a1
:104d70002e4090009c0107001e4f60003e409000b6
:104d8000990107001e4f60004e40900096010700f9
:104d90001e4f6000bd0007001e4f60001e04e000b3
:104da00003003a00430007001e04e000ecff32005d
:104db0001e00fb000080fa00000006000000fa0060
:104dc0000000370006c2bf00614060000004e00040
:104dd000fcff3a0006c2bf00644060000004e0002f
:104de000f8ff3a0006c2bf00684060000004e0001f
:104df000f4ff3a0006c2bf00704060000004e0000b
:104e0000f0ff3a0009c2bf000044b2000004e00015
:104e1000ecff3a000080fa00000006000400fa00ef
:104e2000600920002010880007e2a90007e2a8001e
:104e300085c0a90085a0a900b10920009140780093
:104e400080cfb30000c060005040b3009be0b700cb
:104e50008da0a9000071220001002000008fbe007b
:104e6000040037000080eb008080eb001e0f400044
:104e70005e9748001e00be00e00f5000e08f580013
:104e8000f8ff3a00100020000080fa000000060041
:104e90000000fa0007e2a90085c0a90085a0a900ca
:104ea0008dc0a9008da0a900100020000080fa008c
:104eb000000006000400fa006000b800008fbe0089
:104ec00007e2a90085c0a90085a0a9008da0a900be
:104ed0000000eb004010880000712200010020005b
:104ee000008fbe00040037000080eb008080eb00e4
:104ef0001e0f40005e9748001e00be00e00f5000ed
:104f0000e08f5800f8ff3a00c4ff07000f000700c9
:104f10000071220001002000008fbe000400370055
:104f20000080eb008080eb001e0f40005e97480081
:104f30001e00be00e00f5000e08f5800f8ff3a005e
:104f4000100020000080fa00000006000000fa00b7
:104f500085c0a9008dc0a800100020000080fa00c4
:104f6000000006000000fa0085c0a9008dc0a9005d
:104f7000100020000080fa00000006000600fa0081
:104f800010c0b30032fbb70008c2bf007040600021
:104f90000004e000160032000602a80000712200a2
:104fa00001002000008fbe000a00370032dbbf0086
:104fb0000004e00003003a001000200020079800e1
:104fc0000d0037000080eb008080eb001e0f4000da
:104fd0005e9748001e00be00e00f5000e08f5800b2
:104fe000f2ff3a008000eb00210798000200370032
:104ff0000000eb00200798002e0090000080fa00cf
:10500000000006000600fa0060c0b30032fbb700e3
:1050100008c2bf00684060000004e00016003200d3
:105020000622a8000071220001002000008fbe00af
:105030000a00370032dbbf000004e00003003a0042
:1050400010002000200798000d0037000080eb00c2
:105050008080eb001e0f40005e9748001e00be00df
:10506000e00f5000e08f5800f2ff3a008000eb00a4
:1050700021079800020037000000eb00200798008d
:105080002e0090000080fa00000006000600fa00e2
:1050900050c0b30032fbb7000642a80000712200e6
:1050a00001002000008fbe000a00370032dbbf0085
:1050b0000004e00003003a001000200020079800e0
:1050c0000a0037000080eb008080eb001e0f4000dc
:1050d0005e9748001e00be00e00f5000e08f5800b1
:1050e000f2ff3a008000eb00210798002e009000ac
:1050f0000080fa00000006000600fa0030c0b3008d
:1051000032fbb70006c2bf00614060000004e0004f
:1051100010003a0006c2bf00644060000004e000d6
:105120000c003a0006c2bf00684060000004e000c6
:1051300008003a0006c2bf00704060000004e000b2
:1051400004003a0006c2bf00624060000004e000b4
:10515000030032000000eb00200798001600370023
:1051600006a2a9000682a80000712200010020000a
:10517000008fbe000a00370032dbbf000004e000f1
:1051800003003a0011002000210798000a003700b0
:105190000080eb008080eb001e0f40005e9748000f
:1051a0001e00be00e00f5000e08f5800f2ff3a00f2
:1051b0008000eb00210798002e0090000080fa008c
:1051c000000006000600fa0030c0b30032fbb70052
:1051d00006c2bf00614060000004e00010003a0019
:1051e00006c2bf00644060000004e0000c003a000a
:1051f00006c2bf00684060000004e00008003a00fa
:1052000006c2bf00704060000004e00004003a00e5
:1052100006c2bf00624060000004e00003003200ec
:105220000000eb00200798001600370006a2a80037
:105230000682a8000071220001002000008fbe003d
:105240000a00370032dbbf000004e00003003a0030
:1052500011002000210798000a0037000080eb00b1
:105260008080eb001e0f40005e9748001e00be00cd
:10527000e00f5000e08f5800f2ff3a008000eb0092
:10528000210798002e0090000080fa000000060020
:105290000a00fa0030079800007122000100200087
:1052a00010079800210798000040eb00004f78009d
:1052b00040c0b30032fbb7000071220001002000a3
:1052c00010079800210798001d00370006c2bf0094
:1052d000614060000004e00013003a0006c2bf0015
:1052e000644060000004e0000f003a0006c2bf0006
:1052f000684060000004e0000b003a0006c2bf00f6
:10530000704060000004e00007003a0009c2bf00de
:105310000044b2000004e00003003a0010c0b300f3
:10532000004f78000b0037001e009000ae00900088
:1053300061005000e0805800100798002107980095
:105340001e009000ae009000e00f5000e08f58006b
:10535000deff3a001e04e00003003a000000eb000c
:10536000400798001d0037000662a800006a280068
:105370001100200010079800210798001000370046
:1053800032dbbf000004e00007003a0000c2bf00ab
:10539000804078003e009000014878001000200016
:1053a000400798000d0037001e009000ae009000ee
:1053b00061005000e0805800100798002107980015
:1053c0001e009000ae009000e00f5000e08f5800eb
:1053d000ebff3a000000eb00400798004e00900001
:1053e0000080fa00000006000800fa00404798001c
:1053f00020c0b30032fbb7004e40900002e2b7007d
:105400000071220001002000008fbe000a0037005a
:1054100032dbbf000004e00003003a00100020006f
:10542000300798000a0037000080eb008080eb0016
:105430001e0f40005e9748001e00be00e00f5000a7
:10544000e08f5800f2ff3a008000eb00310798002f
:105450003e0090000080fa0000000600801f7800e7
:105460003400f80010c0b300a00188000000fa006a
:1054700085c0a9000040eb0032fbb7000080fa00b5
:105480003400f9004f007800004006000000fa00e8
:1054900056fc07000040eb00ad030700b701070012
:1054a00027020700feff37000a00fa0010079800e5
:1054b0000000eb00000f780096fc07000004e000fd
:1054c00038003200e1b321009140780000c4b300fd
:1054d00080cf500006003a0082ad210061ad21006e
:1054e00040ad2100bf2907000040eb003efbb700a4
:1054f0001e009000300798003e009000e10f500021
:10550000110032003e009000e10f5000040039000d
:105510003e009000e20f5000150032001e003700e0
:10552000b1d6800000d68000008f50001e007800a9
:10553000c480de001e0078004680de0080805000bf
:10554000210798004c003700a1d68000f0d58000dc
:10555000008f50001e007800c480de001e0078001e
:105560004680de008080500021079800420037000e
:10557000c1d6800010db8000008f50001e00780034
:10558000c480de001e0078004680de00808050006f
:105590002107980038003700a02920002007980034
:1055a000350037001e009000400798004e00900024
:1055b000e10f5000140032004e009000e10f500047
:1055c000040039004e009000e20f50001b00320032
:1055d000270037009e009000e2d9800020032000c1
:1055e0000088b900020040008000400040f3200025
:1055f0000080400090007800f0d58000808050004e
:10560000210798001c0037009e009000e2d980001e
:10561000200320000088b900020040008000400004
:1056200040f32000008040009000780000d6800009
:1056300080805000210798000f0037009e009000e6
:10564000e2d98000200320000088b9000200400059
:105650008000400040f3200000804000900078006f
:1056600010db800080805000210798000200370086
:10567000a0292000200798002e0090000080fa004a
:10568000000006001400fa00500798006107980017
:105690006000b80030079800410798001dfc070023
:1056a0000004e00056003200e1b321009140780090
:1056b00000c4b30080cf500006003a0082ad210044
:1056c00061ad210040ad2100462907000040eb00fc
:1056d0003efbb70060dbbf000004e00018003200b2
:1056e0005e009000000f98000e089000e10f50003f
:1056f0000a0032000e089000e10f5000040039004b
:105700000e089000e20f5000070032000900370039
:105710008929070070079800730037006e29070079
:1057200070079800700037009b29070070079800e9
:105730006d003700a0292000700798006a0037002c
:105740005e009000100f98001e089000e10f5000be
:10575000120032001e089000e10f500004003900d2
:105760001e089000e20f50001700320021003700a1
:10577000b0d68000000f78001e007800c480de00e4
:105780001e0078004680de008080500000802000ef
:10579000808040007107980053003700a0d6800039
:1057a000000f78001e007800c480de001e00780024
:1057b0004680de0080805000008020008080400015
:1057c0007107980048003700c0d68000000f7800ad
:1057d0001e007800c480de001e0078004680de00d7
:1057e0008080500000802000808040007107980079
:1057f0003d003700a0292000700798003a003700cc
:105800005e009000e20f500031003e006e009000fc
:105810000000e0002e003200ee0090002003200087
:10582000808f50002a003e000000eb002007980007
:10583000e1d980006e009000008050003003b0007d
:1058400022032000110009000280d8008000fd0022
:10585000100798001a003700de0090001e0190002b
:10586000200320000088b9000200400080004000b2
:1058700040f3200000804000100078006101b90072
:105880003e009000ce009000000041008180490061
:1058900030079800410798002e0090000000e800b3
:1058a000200798001e0090000000e800220320005e
:1058b000110009000200d8008000fd0010079800c8
:1058c000ae0090006e009000808f5000e2ff390023
:1058d0006e0090006101b8003e009000ce00900084
:1058e000e2f00700700798007e0090000080fa0048
:1058f000000006000000fa0086fb07000004e0003c
:105900000a0032000000eb00e7fe070010d6880016
:1059100010002000e4fe070020d6880020002000b0
:10592000e1fe070030d68800150037005100200046
:105930000000eb0053ff070080007800f0d58000e6
:105940000080500010d68800510020001000200078
:105950004cff07008000780000d6800000805000d7
:1059600020d68800510020002000200045ff0700bd
:105970008000780010db80000080500030d6880066
:105980000080fa00000006000000fa00889fbe00b8
:105990008a9fbe00d7ff070010d680006103b900c0
:1059a00010d680006101b9000235b80003b0b9001b
:1059b0000b027800000242000790b900000242008a
:1059c0008405780020d680006104b90020d68000cc
:1059d0006101b9000243b80003c0b90007027800b2
:1059e000000242000990b9000002420084037800de
:1059f0000a0543008b854b0030d680006104b90056
:105a000030d680006101b9000243b80003c0b9007c
:105a100007027800000242000990b900000242002b
:105a2000840378000a0043008b804b0046ef070098
:105a30009ff0070040d6880051d6880010d680001d
:105a40006103b90010d680006101b9000235b800c9
:105a500003b0b9000b027800000242000790b900c1
:105a6000000242008405780020d680006104b9005d
:105a700020d680006101b9000243b80003c0b9001c
:105a800007027800000242000990b90000024200bb
:105a9000840378000a0043008b804b002aef070044
:105aa00083f007000004be0030d68000cf80de0007
:105ab00025ef07000801be004eef0700c2092300d2
:105ac00053262c00aaef070002002000432b2400dd
:105ad000dcef070080d6880091d6880080d6800051
:105ae00091d6800002002000030a24005bf007002a
:105af0000000e0000800350080d6800091d68000cc
:105b0000020020000332240056f007000000e000ed
:105b100001003c00040037006000b80060d6880037
:105b200071d688001100370020d68000cf80de00bb
:105b300005ef07000004be0010d68000cf80de0015
:105b400001ef07000801be002aef0700c209230089
:105b50005326240086ef0700020020004333240070
:105b6000b8ef070060d6880071d688004f05be00e8
:105b70004f04be000080fa00000006000000fa009a
:105b800010c0b30060fbb700210320000000eb0051
:105b9000bcfe0700f0d58800210320001000200083
:105ba000b8fe070000d68800dafa07000004e0001b
:105bb000070032002103200020002000b1fe070072
:105bc00001002c000100400010db880006003700b7
:105bd0002103200020002000aafe070001d02f0092
:105be0000100400010db88000040eb0060fbb700c4
:105bf0000080fa00000006000c00fa00881f780000
:105c00000004780060ff070040d6800051d6800075
:105c1000008fbe0060d6800071d6800020079800fb
:105c20003107980080d6800091d680004007980008
:105c3000510798008e007800080078001101be001e
:105c40000288be0064004000e48040001101be00f4
:105c50000288be0064004000e48040001101be00e4
:105c60000288be00080078004f0478000080fa0027
:105c7000000006000000fa0043ff070080d6800005
:105c800091d680000080fa00000006000000fa00b3
:105c90003dff070060d6800071d680000080fa00ca
:105ca000000006000000fa0037ff070040d6800021
:105cb00051d680000080fa00000006000600fa00bd
:105cc000881f7800000478000aff070010d68000c3
