:020000040000fa
:080000000001040000000000f3
:020000040000fa
:10020000cf802000807922000001880000000000db
:10021000050007000c000700c408020000000000f1
:100220000040da000000fe004440a9000000200069
:100230000000e0000300320000002000a001880060
:100240004440a8000000060060b720000100200024
:100250001600370062004000e080480091018800ed
:100260009001ba0062004000e080480091018800df
:100270009002ba0062004000e08048000002eb00fb
:100280006028e10005003a008301e900070033001f
:10029000038009000059eb00040037006128e100e9
:1002a000010032000082eb00050007009101880088
:1002b0001001ba000200e000e6ff3a00000005006d
:1002c000910188008002780062004000e0804800d0
:1002d0003559ba008301e900080032002559ba00f7
:1002e0008301e900050032000400e000f4ff320061
:1002f00015d9ba008301e900f1ff3a0000000600b9
:10030000889fbe008a9fbe00010578000100e000c2
:100310000400350008003c000000e000200032002e
:100320000500370060001000e080180002003b006c
:1003300001f02c001a0037000004be006011b80064
:100340006b0920000982cf00020039000882cf002b
:100350000441b000694252000e00320008003b0028
:1003600082817100610164008904d1000884d30096
:100370008b05e8000442e800f9ff3a000500370069
:100380000804440089844c008b05e9000442e9001c
:10039000fbff3a00620007000af0a70001f0a0008e
:1003a0004f05be004f04be0000000600889fbe003f
:1003b0008a9fbe008c1f78007f00070086003300f4
:1003c00003866c006450e1002e0032006420e100de
:1003d000330032006150e1002f0032006120e10063
:1003e0003100320085855500eb07b0000900200080
:1003f00008042000050037000804440089844c00ec
:100400000a0031000603430087834b0000015300bc
:1004100081815b00f8ff33000203be000800a000ea
:100420000804440089844c00f6ff3900c639dd0019
:100430008301730001003200130020008904d10001
:100440000884d3000998a300050032000800a70023
:100450000300a0008904d1000884d3008b05e800c4
:100460008904d1000884d3000001eb000281d2008e
:100470002b00070001f0a1000cf0a70001f0a00084
:100480005e0037006420e100600032000801be0019
:100490000200be00f7ff37006120e1005b00320080
:1004a0006000b800f3ff37000000200001f82700cb
:1004b000f0ff37000001be00570007000470a700de
:1004c00003f0a10003f8a30013003a006509b1008e
:1004d00010003200090035006928e10002003500f3
:1004e0000100280000000500000040008180480055
:1004f0008502e900fcff3a0000000600f88f420088
:10050000050035008100d1000080d3008502e8009d
:10051000fcff3a00000006008000eb000000050030
:1005200081002000618055000b003d000b00200081
:1005300061fe2f000100e1001d0034008281710086
:10054000610164008904d1000884d3000000e80040
:10055000faff3a007100200061006400030070009f
:10056000020060000900320061044400e0844c0095
:100570000988a500050032008b05e8006808e10045
:1005800002003a008904d1000884d300f20f200051
:100590000258e10005003d00c75ddd00f907b2002b
:1005a0008980750008007800000006000bf827001d
:1005b0008b007800000005000004be001600070054
:1005c0000003be000405be000200be0012000700ca
:1005d000844f7500000006000200be006450e10078
:1005e000050036006420e100020036000968a3001f
:1005f00001003a000800be000160a0004f0678002c
:100600004f05be004f04be0000000600f0ff2f00a3
:10061000f1ff2700f9ff3700c70ade00f107b2003b
:10062000f50fb20008003200e1cf420002003200b4
:100630000170a00024000500810f7000010032004d
:100640000408050044000500810f700002003a0014
:10065000140005008502e9000000400081c0480048
:10066000fcff3b000170a000240005000000fa0020
:10067000c4c2a900c4e2a900c522a900c582a9007c
:10068000c542a900c5a2a900c5c2a900c5e2a9002a
:10069000c0c2a900c0e2a900c122a900c182a9006c
:1006a000c142a900c1a2a900c1c2a900c1e2a9001a
:1006b000d022a900cc22a900d042a900cc42a90096
:1006c000e2e2a900e302a900e802a900e822a900e9
:1006d000dee2a900df02a900e402a900e422a900e9
:1006e000e202a900de02a900d602a900d622a900d2
:1006f000d642a900d662a900d682a900d6a2a90036
:10070000d6c2a900d6e2a900d202a900d222a9002d
:10071000d242a900d262a900d282a900d2a2a90025
:10072000d2c2a900d2e2a900d1a2a900cda2a900fb
:10073000e842a900e862a900e442a900e462a90035
:10074000de22a800dec2a800e4c2a800e4e2a800fd
:10075000e502a800e522a800d302a800d322a80041
:10076000d342a800d362a800d382a800d3a2a800d5
:10077000d3c2a800d3e2a8000080fa00000006005f
:100780000600fa00000f7800110798001e0078009c
:10079000200798002e009000e30f50007d003200eb
:1007a0002e009000e30f500007003e002e00900046
:1007b000e10f5000380032002e009000e10f500091
:1007c00057003e000d0037002e009000e50f50004e
:1007d000b20032002e009000e50f5000900039006a
:1007e0002e009000e60f5000d10032002e00900045
:1007f000e70f5000f5003200160137001e00900090
:10080000e10f500014003600c4c2bf000080fb009e
:100810004600de00614060000004a200614060000c
:100820006140600000404000004040000040400047
:10083000004040000040400000414000412c2000aa
:1008400091407800f0cbb30000c06000024070001f
:10085000c4e2b700fd0137001e0090006140600057
:100860006140600000404000004040000040400007
:10087000004040000040400000414000412c20006a
:1008800091407800f0cbb30000c0600002407000df
:10089000c4e2b700ed0137001e009000e10f5000e8
:1008a00011003600c4c2bf000080fb004700de001c
:1008b0000004a20061406000004040000040400091
:1008c0000040400000404000004040000040400028
:1008d00080404000c4c2bf000074a100014070000d
:1008e000c4e2b700d90137001e00900061406000eb
:1008f00000404000004040000040400000404000f8
:10090000004040000040400080404000c4c2bf00a2
:100910000074a10001407000c4e2b700cb013700b1
:100920001e009000e10f50000f003600c5c2bf004e
:100930000080fb000000d100614060000004a200c4
:10094000614060006140600000414000512c200087
:1009500091407800d0cfb30000c06000024070002a
:10096000c5e2b700b90137001e0090006140600089
:100970006140600000414000512c2000914078000f
:10098000d0cfb30000c0600002407000c5e2b700e5
:10099000ae0137001e009000e10f5000120036003b
:1009a000c5c2bf000080fb004400de006140600063
:1009b0000004a2006140600061406000004040000f
:1009c000004040000040400000414000512c200009
:1009d00091407800f0ceb30000c06000024070008b
:1009e000c5e2b700990137001e0090006140600029
:1009f0006140600000404000004040000040400076
:100a000000414000512c200091407800f0ceb3000e
:100a100000c0600002407000c5e2b7008b013700e3
:100a20001e009000e10f500010003600c5c2bf004c
:100a30000080fb004200de00614060000004a20074
:100a400061406000614060000040400000414000a3
:100a5000512c200091407800b0cfb30000c060005e
:100a600002407000c5e2b700780137001e00900018
:100a70006140600061406000004040000041400073
:100a8000512c200091407800b0cfb30000c060002e
:100a900002407000c5e2b7006c0137001e009000f4
:100aa000e10f500013003600c5c2bf000080fb00fc
:100ab0004500de00614060000004a200614060006b
:100ac00061406000004040000040400000404000a5
:100ad0000040400000414000512c2000914078002f
:100ae000f0cdb30000c0600002407000c5e2b70066
:100af000560137001e0090006140600061406000b8
:100b000000404000004040000040400000404000e5
:100b100000414000512c200091407800f0cdb300fe
:100b200000c0600002407000c5e2b7004701370016
:100b30001e009000e10f500014003600c5c2bf0037
:100b40000080fb004600de00614060000004a2005f
:100b50006140600061406000004040000040400093
:100b60000040400000404000004040000041400084
:100b7000512c200091407800f0cbb30000c0600001
:100b800002407000c5e2b700300137001e0090003f
:100b90006140600061406000004040000040400053
:100ba0000040400000404000004040000041400044
:100bb000512c200091407800f0cbb30000c06000c1
:100bc00002407000c5e2b700200137001e0090000f
:100bd000e10f500011003600c5c2bf000080fb00cd
:100be0004700de000004a2006140600000404000b9
:100bf00000404000004040000040400000404000f5
:100c00000040400080404000c5c2bf000074a10009
:100c100001407000c5e2b7000c0137001e009000d3
:100c20006140600000404000004040000040400043
:100c30000040400000404000004040008040400034
:100c4000c5c2bf000074a10001407000c5e2b7003a
:100c5000fe0037001e009000e10f500087003600b4
:100c6000c4c2bf000080fb004600de00614060009f
:100c70000004a2006140600061406000004040004c
:100c80000040400000404000004040000040400064
:100c900000414000412c200091407800f0cbb3008f
:100ca00000c0600002407000c4e2b700c4c2bf00d0
:100cb0000080fb004700de000004a20061406000ed
:100cc0000040400000404000004040000040400024
:100cd000004040000040400080404000c4c2bf00cf
:100ce0000074a10001407000c4e2b700c5c2bf009b
:100cf0000080fb000000d100614060000004a20001
:100d0000614060006140600000414000512c2000c3
:100d100091407800d0cfb30000c060000240700066
:100d2000c5e2b700c5c2bf000080fb004400de0082
:100d3000614060000004a20061406000614060000a
:100d400000404000004040000040400000414000a2
:100d5000512c200091407800f0ceb30000c060001c
:100d600002407000c5e2b700c5c2bf000080fb00b2
:100d70004200de00614060000004a20061406000ab
:100d8000614060000040400000414000512c2000c4
:100d900091407800b0cfb30000c060000240700006
:100da000c5e2b700c5c2bf000080fb004500de0001
:100db000614060000004a20061406000614060008a
:100dc0000040400000404000004040000040400023
:100dd00000414000512c200091407800f0cdb3003c
:100de00000c0600002407000c5e2b700c5c2bf008d
:100df0000080fb004600de00614060000004a200ad
:100e000061406000614060000040400000404000e0
:100e100000404000004040000040400000414000d1
:100e2000512c200091407800f0cbb30000c060004e
:100e300002407000c5e2b700c5c2bf000080fb00e1
:100e40004700de000004a200614060000040400056
:100e50000040400000404000004040000040400092
:100e60000040400080404000c5c2bf000074a100a7
:100e700001407000c5e2b700740037001e0090000a
:100e800061406000004040000040400000404000e1
:100e900000404000004040000040400080404000d2
:100ea000c5c2bf000074a10001407000c5e2b700d8
:100eb000c5c2bf000080fb004700de00614060004b
:100ec0000040400000404000004040000040400022
:100ed0000040400000414000512c2000914078002b
:100ee000f0cbb30000c0600002407000c5e2b70064
:100ef000c5c2bf000080fb004600de00614060000c
:100f00006140600000404000004040000040400060
:100f10000040400000414000512c200091407800ea
:100f2000f0cdb30000c0600002407000c5e2b70021
:100f3000c5c2bf000080fb004500de0061406000cc
:100f4000614060000040400000414000512c200002
:100f500091407800b0cfb30000c060000240700044
:100f6000c5e2b700c5c2bf000080fb004200de0042
:100f7000614060006140600000404000004040006f
:100f80000040400000414000512c2000914078007a
:100f9000f0ceb30000c0600002407000c5e2b700b0
:100fa000c5c2bf000080fb004400de00614060005d
:100fb0006140600000414000512c200091407800c9
:100fc000d0cfb30000c0600002407000c5e2b7009f
:100fd000c5c2bf000080fb000000d100614060007e
:100fe0000040400000404000004040000040400001
:100ff000004040000040400080404000c4c2bf00ac
:101000000074a10001407000c4e2b700c4c2bf0078
:101010000080fb004700de006140600000404000af
:1010200000404000004040000040400000404000c0
:1010300000414000412c200091407800f0cbb300eb
:1010400000c0600002407000c4e2b7000080fa00f7
:10105000000006000200fa00000f780010002000d7
:101060009e0f100010003600d0c2bf000080fb00b1
:101070004200de00614060000004a20061406000a8
:10108000614060000040400000414000012d200010
:1010900091407800b0cfb30000c060000240700003
:1010a000d0e2b7000b0037001e00780061406000fe
:1010b000614060000040400000414000012d2000e0
:1010c00091407800b0cfb30000c0600002407000d3
:1010d000d0e2b7000080fa00000006000200fa002b
:1010e000000f7800100020009e0f10000f00360047
:1010f000d0c2bf000080fb000000d1006140600052
:101100000004a200614060006140600000414000b6
:10111000012d200091407800d0cfb30000c06000c6
:1011200002407000d0e2b7000a0037001e007800cd
:10113000614060006140600000414000012d2000de
:1011400091407800d0cfb30000c060000240700032
:10115000d0e2b7000080fa00000006000000fa00ac
:10116000c4c2a900c4e2a900c522a900c582a90081
:10117000c542a900c5a2a900c5c2a900c5e2a9002f
:101180000080fa00000006000800fa000000eb00f2
:101190003007980010002000000f7800df000700e3
:1011a000401f2000e1000700401f20000b01070046
:1011b000000037008000eb008000200070fd070079
:1011c000110020003e0090006dfd0700100020007f
:1011d0009e0f100018003a000000eb00000f78008e
:1011e000c0e02f00d1000700401f2000fb000700d7
:1011f0006000b8001007980021079800060037002b
:101200001e009000ae00900061004000e0804800a9
:1012100010079800210798001e019000ae01900071
:10122000703c2700a1002000800f5100818f5900e1
:10123000f3ff34001700370010002000000f780083
:10124000401f2000b9000700401f2000e3000700f6
:101250006000b800100798002107980006003700ca
:101260001e009000ae00900061004000e080480049
:1012700010079800210798001e019000ae01900011
:10128000f0472800e1012000800f5100818f5900b4
:10129000f3ff3400000000003e0090000000e80072
:1012a000300798003e009000e80f5000c1ff3a0060
:1012b0000000eb0030079800beff370000a0fe00e2
:1012c0003400f800881f780008c0b300a801880027
:1012d0004f0478000200fa0086c0a9000040800098
:1012e0000000e0000c003400204080000000e80016
:1012f00020408800404080000000e9004040880015
:10130000404080000000e0000e003d003000200062
:10131000404088000b003700204080000000e900ba
:1013200020408800404080000000e80040408800e5
:1013300040408000e30f5000020034000000eb004a
:101340004040880040408000000f78001e00780078
:10135000e10f5000130032001e007800e10f500032
:1013600004003c001e0078000000e000080032008d
:101370001a0037001e007800e20f50000e00320005
:101380001e007800e30f50001000320013003700f9
:10139000d602a900d622a800d642a900d662a8008b
:1013a0000e003700d602a900d622a800d642a80017
:1013b000d662a90009003700d602a800d622a900eb
:1013c000d642a800d662a90004003700d602a800c1
:1013d000d622a900d642a900d662a8000080fa0051
:1013e0003400f9000080fe000040060000a0fe006e
:1013f0003400f800881f780008c0b300a8018800f6
:101400004f0478000200fa0086a0a9001040800076
:101410000000e0000c003d00304080000000e900ca
:1014200030408800504080000000e90050408800b3
:10143000504080000000e0000e003d003000200021
:10144000504088000b003700304080000000e8006a
:1014500030408800504080000000e8005040880084
:1014600050408000e30f5000020034000000eb0009
:101470005040880050408000000f78001e00780027
:10148000e10f5000130032001e007800e10f500001
:1014900004003c001e0078000000e000080032005c
:1014a0001a0037001e007800e20f50000e003200d4
:1014b0001e007800e30f50001000320013003700c8
:1014c000d682a900d6a2a800d6c2a900d6e2a8005a
:1014d0000e003700d682a900d6a2a800d6c2a80066
:1014e000d6e2a90009003700d682a800d6a2a9003a
:1014f000d6c2a800d6e2a90004003700d682a80010
:10150000d6a2a900d6c2a900d6e2a8000080fa009f
:101510003400f9000080fe00004006000000fa00e0
:1015200052fc07000080fa00000006000400fa00e8
:10153000000f78001e00e00006003a0021e1a9003b
:10154000d602a900d622a900d642a900d662a900d7
:101550002000370021e1a9001e007800004088002b
:101560000000eb0000098800011220009140780083
:1015700000c3b30000c0700020e1b7000000eb0022
:10158000c00888001e017800120798001e00900015
:101590000000e00003003d001e0190000201ea008f
:1015a000120798001e0190006110b90054fb07005b
:1015b0000001be0000002000117624007bfb070024
:1015c000bcfb0700e008880086c0a9008ec0a80008
:1015d00021e1a8000080fa00000006000400fa00e3
:1015e000000f78001e00e00006003a001fe1a9008d
:1015f000d682a900d6a2a900d6c2a900d6e2a90027
:10160000200037001fe1a9001e007800104088006c
:101610000000eb00f0088800e11120009140780004
:1016200000c3b30000c070001ee1b7000000eb0073
:10163000a00888001e017800120798001e00900084
:101640000000e00003003d001e0190000201ea00de
:10165000120798001e0190006110b90028fb0700d6
:101660000001be0000002000117624004ffb07009f
:1016700090fb0700d008880086a0a9008ea0a800d3
:101680001fe1a8000080fa00000006000000fa0038
:10169000204080000080fa00000006000200fa00ee
:1016a000000f78001027fc001e0078002040880002
:1016b0000200fc000080fa00000006000000fa00b2
:1016c000304080000080fa00000006000200fa00ae
:1016d000000f78001027fc001e00780030408800c2
:0c16e0000200fc000080fa000000060080
:020000040000fa
:0200000401f009
:04000000e6ff000017
:020000040000fa
:0200000401f009
:04000400ff7f00007a
:020000040000fa
:0200000401f009
:040008007fff000076
:020000040000fa
:0200000401f009
:04001400ffff0000ea
:020000040000fa
:100008007e0b00007e0b00007e0b00007e0b0000c4
:100018007e0b00007e0b00007e0b00007e0b0000b4
:100028007e0b00007e0b00007e0b00007e0b0000a4
:100038007e0b00007e0b00007e0b00007e0b000094
:100048007e0b00007e0b00007e0b00007e0b000084
:100058007e0b00007e0b00007e0b00007e0b000074
:100068007e0b00007e0b00007e0b00007e0b000064
:100078007e0b0000f60900005e0900007e0b000000
:100088007e0b00007e0b00007e0b00007e0b000044
:100098007e0b00007e0b00007e0b00007e0b000034
:1000a8007e0b00007e0b00007e0b00007e0b000024
:1000b8007e0b00007e0b00007e0b00007e0b000014
:1000c8007e0b00007e0b00007e0b00007e0b000004
:1000d8007e0b00007e0b00007e0b00007e0b0000f4
:1000e8007e0b00007e0b00007e0b00007e0b0000e4
:0800f8007e0b00007e0b0000ee
:020000040000fa
:100108007e0b00007e0b00007e0b00007e0b0000c3
:100118007e0b00007e0b00007e0b00007e0b0000b3
:100128007e0b00007e0b00007e0b00007e0b0000a3
:100138007e0b00007e0b00007e0b00007e0b000093
:100148007e0b00007e0b00007e0b00007e0b000083
:100158007e0b00007e0b00007e0b00007e0b000073
:100168007e0b00007e0b00007e0b00007e0b000063
:100178007e0b0000f60900005e0900007e0b0000ff
:100188007e0b00007e0b00007e0b00007e0b000043
:100198007e0b00007e0b00007e0b00007e0b000033
:1001a8007e0b00007e0b00007e0b00007e0b000023
:1001b8007e0b00007e0b00007e0b00007e0b000013
:1001c8007e0b00007e0b00007e0b00007e0b000003
:1001d8007e0b00007e0b00007e0b00007e0b0000f3
:1001e8007e0b00007e0b00007e0b00007e0b0000e3
:0801f8007e0b00007e0b0000ed
:020000040000fa
:1016ec00000800000c0000000000000000000000da
:020000040000fa
:0416fc000000fe00ec
:00000001FF
