:020000040000fa
:080000002801040000000000cb
:020000040000fa
:100200006c430400000000000643040000000000ee
:100210001038040000000000f43804000000000062
:10022000383f040000000000864204000000000087
:10023000e445040000000000084204000000000043
:10024000d243040000000000a801040000000000e8
:100250000f002200807922000001880000000000c9
:10026000050007000c000700381402000000000021
:100270000040da000000fe004440a9000080200099
:100280000000e0000300320000002000a001880010
:100290004440a8000000060080cc2f000100200090
:1002a0001600370062004000e0804800910188009d
:1002b0009001ba0062004000e0804800910188008f
:1002c0009002ba0062004000e08048000002eb00ab
:1002d0006028e10005003a008301e90007003300cf
:1002e000038009000059eb00040037006128e10099
:1002f000010032000082eb00050007009101880038
:100300001001ba000200e000e6ff3a00000005001c
:10031000910188008002780062004000e08048007f
:100320003559ba008301e900080032002559ba00a6
:100330008301e900050032000400e000f4ff320010
:1003400015d9ba008301e900f1ff3a000000060068
:10035000881f780002047800b10007000800400000
:100360004f047800000006000000fa00881f7800a3
:10037000000478003fb99700ea81570080007800b8
:10038000801a2000af000700800078000000e00025
:10039000020035000040eb0080707c000100780016
:1003a0004f0478000080fa0000000600800078000a
:1003b000010037000000e8001004e000fdff3a00f3
:1003c0000100500000000600889fbe00e3044000ca
:1003d0000900a100808f540049003600e38f5400cb
:1003e00001003e0049002000d0c780000000e0006e
:1003f00002003200800078000c003700c18f21001d
:1004000003003700908f5400230036008080e800fe
:10041000110078001100e000faff3a000f003700e9
:10042000928f54001c0036008280e8001101780091
:100430001100e000faff3a0010017800c18f21009e
:1004400003003700908f5400130036008080e800ce
:1004500011007800820f5000faff3a00c8c78000f0
:10046000890f540001003100090478000800780069
:100470002c0107000000e00004003a00890f54003e
:100480001f0032000804d100f5ff3700081878007b
:1004900030000700d4ff3700110178009201780086
:1004a00064805100890f5000030031001200900059
:1004b00080087800070037000900410080087800b4
:1004c0009201900013009800110078001288140027
:1004d00009097800910178001100e0000400320061
:1004e000130090008380e8000000e00001003a0063
:1004f0008000eb00d1c788000280e80001003700cf
:100500000000eb004f04be0000000600000478006d
:10051000060037008200410000c88000e10078003a
:100520000200e800f0c7880001000100f2c7800067
:1005300010c88000800f5100f6ff3900807821003c
:1005400000c888002002200010c888000800780039
:10055000d90307000000e000300032008080e9008d
:1005600091027800e38f52002c0036000508a300aa
:100570002a003a00e2c780000200e00002003200d8
:10058000828f50000400310002087800e1c7880023
:100590001600370003017800920190000300e0008c
:1005a00002003200818f5100faff390012027800f8
:1005b00004004100808f500018003900810f500066
:1005c00003003a0005094200820078000700370066
:1005d0000300e0000300320005804000808f5100de
:1005e0000e0039009300980011019800110190004d
:1005f0000200e0000900320011804000820f50002c
:1006000006003a00fa38ef0011009000110178005e
:100610009008410010009000900098000000060033
:10062000000278008001780001003700b15978009d
:1006300002004200808f5100fcff3a000400780065
:10064000000006006200fa00889fbe008a9fbe007c
:100650000004be00020578008300780060f92f00d6
:100660000f004000b600070088979f0099979f00f1
:100670000000eb00a09f9f009a4578000b80fb00d4
:100680000000ea00cf04de000904e90050c2b30014
:1006900080cf550001003200090478000800e00016
:1006a0000b003400080178008a0078001f90970042
:1006b0008f9197000300010090979f000000e000d9
:1006c000930032002f98970008004000a09f9f00e1
:1006d0000905450050c2b30080cf55000400320028
:1006e0000b04e000e4ff3a002f98970089003700e0
:1006f0000000eb00809f9f00f0979f00e0979f0015
:10070000d0979f00c0979f00b0979f00c09f9f0009
:1007100009003700608a210000805000000040007e
:10072000a1892100e08078004f98970001007000b7
:10073000c09f9f000a05e8001a4478008800fb006b
:10074000608a210083000700800078000000e0003c
:10075000f0ff3a00a0c2b300804f54000e003a00f0
:10076000bf8897000180e900b08f9f00900078005b
:10077000b19f9f000100e00005003d000100ea007c
:10078000b09f9f004f9897000020a000c09f9f003f
:100790000a05e80010003700b19f9f0009003700ec
:1007a000bf989700f0ff2700808f500004003200b0
:1007b0006a08b9000000410003004000b09f9f009c
:1007c0000a05e8001a01fb0003fd2f0003004100a9
:1007d000e90f5000f2ff3600e0c2b3009a4f10005c
:1007e000040032000080eb00909f9f008a04780094
:1007f0001c0037008a04e800a0c2b300994f100023
:1008000007003a00bf8897000180e900b08f9f0081
:1008100010007800909f9f008a84e8001100370044
:100820000000eb00909f9f00090037009f98970001
:10083000f0ff2700808f5000040032006a08b900e2
:100840000000410003004000909f9f008904e800e1
:100850001901fb0003fd2f0003004100e90f5000c8
:10086000f2ff3600194478008800fb002092210036
:10087000380007000000e00002003a000044780061
:10088000010037008904e800a87f9f0080c6b300fc
:10089000804f540004003a0066405000994f140005
:1008a0000700320008003700c0c6b300804f540074
:1008b00005003a00994f140003003a0065404000db
:1008c000a07f9f008904e8000905e800c8fb2f000d
:1008d0000f04440060f92f000f0040008085e800fd
:1008e000880178001901fb00800078000b00780077
:1008f000200007000000e00005003a0088007800b2
:100900000b007800650107000000e0005aff3d0081
:100910000080eb004f05be004f04be000080fa00cf
:10092000000006000000e00003003400ea020700b7
:10093000e10f400001003a000000eb00000006005b
:100940000200fa00f1bf9f00010878000080fa0061
:1009500000000600040037001004e00001003a0027
:10096000000005000000e80090cf1000faff3a00f8
:1009700000000600889fbe008a1f780000047800ef
:10098000010278008244780003057800e0c6b300d5
:10099000804f5100d700320015003c006b405000e2
:1009a000804f5100240032000a003c00704050008b
:1009b000804f51001401320065404000804f5100cb
:1009c0007600320050c2b300804f510027013a0038
:1009d0002301370040c6b300804f51001b00320096
:1009e00065404000804f510020013a001700370059
:1009f00030c7b300804f51000301320007003c00b4
:100a000064405000804f5100640032000040e80014
:100a1000804f510015013a00ec00370050c7b30079
:100a2000804f51005d00320063404000804f510014
:100a30000e013a00590037009180e900010a780060
:100a40007800900011f079000e01370028619000c5
:100a5000c0c6b300804f51000a003a00140078006d
:100a600064015000020a78001200be004f88de00c8
:100a7000cf80de001202be00000378008003780001
:100a80001500370010c7b300804f510002003a0034
:100a9000940078000400370094007800a0c6b300ea
:100aa000804f510005003a0068805000000a78002d
:100ab0003002be002003be00070037000180e900bd
:100ac000000a78001000780000027800cfa2de0053
:100ad0000503780086037800049cbe000694be00df
:100ae000a860900080c6b30080cf50000e00320096
:100af00020c6b30080cf500005003a000400fb0080
:100b0000cf80de0001017800820178000a00370002
:100b100040c7b30080cf5000030032006640400061
:100b200080cf500006003a0004007800cf80de003d
:100b30000101780082017800009cbe000294be0092
:100b40003800be002801be00e00f5000e08f5800c2
:100b5000e00f5900e08f590003003d00780090003d
:100b6000d1c2b3000a003700081090000018a3009b
:100b70000300320078009000b1c2b30004003700d7
:100b80000008a300560032007800900001c2b300b4
:100b900001707d000000e8005000370028619000df
:100ba000c0c6b300804f510007003a00940078009f
:100bb00064805000000a78001002be000003eb00c1
:100bc000860378001500370010c7b300804f51002e
:100bd00002003a0094007800040037009400780086
:100be000a0c6b300804f510005003a006880500055
:100bf000000a78003002be002003be000700370064
:100c00000180e900000a78001000780000027800f6
:100c1000050020000600200007002000049cbe0004
:100c20000694be00a860900080c6b30080cf50003c
:100c30000e00320020c6b30080cf500005003a00fd
:100c40000480fb00010020000200200003002000bf
:100c50000a00370040c7b30080cf500003003200c5
:100c60006640400080cf500006003a000400780043
:100c7000010020000200200003002000009cbe00b4
:100c80000294be00081090000038a3001400320047
:100c90003800be002801be00e00f5000e08f580071
:100ca000e00f5900e08f59000d00320080c7b300fb
:100cb00080cf54000300320080c5b30080cf5400c1
:100cc00007003a007800900001c3b30001707d0076
:100cd0008000e80089707d000080e80070049800c2
:100ce000780090000000450060049800894078007a
:100cf00042003700a8609000c0c6b30080cf50000b
:100d0000250032000a003c006440500080cf5000b3
:100d10002800320000c0e80080cf500014003200ec
:100d20006840500080cf500022003a000a0037008f
:100d300040c7b30080cf50001e0032006640400024
:100d400080cf50001b0032006940500080cf50001f
:100d500018003a00060037001480e900000a780005
:100d600010007800485c9000084878004700370081
:100d70001480e900000a78001002780068089000ea
:100d8000cf80de000101780082017800009abe0069
:100d90000292be003d0037001480e900000a78008e
:100da0001001780068089000cf80de000089be0046
:100db000360037001480e900000a7800100078003f
:100dc000680c900008087800300037001180e900b6
:100dd0008008780010007800cf80de0001017800e4
:100de00082017800009cbe000294be007800900052
:100df000000045006004980081c7b3000800780037
:100e0000f0000700210037001480e900000a780094
:100e10009001780063049800580990000200e000f7
:100e200003003d000300780060fd07000a00370062
:100e30008000eb0003007800950107008000780037
:100e40000000e000030032006800900000805000c5
:100e50000100370058089000100c98000b00370074
:100e60007800900002707d00060037007800900046
:100e7000800045000904e00001003a0059c2b300b7
:100e8000894878000000e800700498000000eb003a
:100e90004f0578004f04be00000006000400fa0071
:100ea000889fbe008a9fbe008c1f780000047800d7
:100eb0000106780070089000f800900001005000d2
:100ec0008808900001005000980890000100500030
:100ed000a808900001005000b808900001005000e0
:100ee000c80890008105500000022200a0bf9f00aa
:100ef0000003230090bf9f00081090000028a3006b
:100f000018003a000b00e000160034008b04780053
:100f100009057800e28f5400020036002a00200004
:100f2000020037000900e0000b003400c801900007
:100f30000a017800ec80570058009000030001007f
:100f4000500498000000e00096003200680890000d
:100f50000a004000600c98008a8454004240a900b6
:100f6000ebff3c00780190000200e0000b00340031
:100f7000c80190008c007800580090000300010028
:100f8000500498000000e0008600320068089000dd
:100f9000f800900001004000600c9800880c900060
:100fa0000900e0001500340009057800e28f5400c4
:100fb000020036002a002000020037000900e0008d
:100fc0000b003400c80190000a017800ee80570041
:100fd0005800900003000100500498000000e00059
:100fe00070003200680890000a004000600c980011
:100ff0008a8454004240a900ebff3c00180990008d
:101000000200e0000b003400c8019000e8009000ee
:101010005800900003000100500498000000e00018
:1010200060003200680890009808900001004000bd
:10103000600c9800a80c90000900e0001500340036
:1010400009057800e28f5400020036002a002000d3
:10105000020037000900e0000b003400c8019000d6
:101060000a017800ee80570058009000030001004c
:10107000500498000000e0004a0032006808900028
:101080000a004000600c98008a8454004240a90085
:10109000ebff3c00380990000200e0000d00340036
:1010a000e80090001808900080804000c80190007f
:1010b0005800900003000100500498000000e00078
:1010c0003800320068089000b80890000100400025
:1010d000600c9800c80c90000900e0001500340076
:1010e00009057800e28f5400020036002a00200033
:1010f000020037000900e0000b003400c801900036
:101100000a017800ee8057005800900003000100ab
:10111000500498000000e0002200320068089000af
:101120000a004000600c98008a8454004240a900e4
:10113000ebff3c00081090000028a3001b003200c9
:101140000b00e000190034008b04780009057800da
:10115000e28f5400020036002a002000020037000f
:101160000900e0000b003400c80190000a0178007b
:10117000ec805700580090000300010050049800d4
:101180000000e00007003200680890000a004000fc
:10119000600c98008a8454004240a9000300340087
:1011a000eaff37000080eb00010037000000eb0091
:1011b0004f0678004f05be004f04be000080fa00c5
:1011c000000006006f02b000889fbe008a9fbe002c
:1011d0008c9fbe008e1f78000006780010852100cd
:1011e00080bf9f0080c5b30080cf50000700320051
:1011f00082002000f2b79f000384210083bf9f007c
:101200007740400080cf50000a00320080c7b30012
:1012100080cf500005003200a4002000f4b79f00ea
:1012200080c5b30080cf500002003a0000012000ca
:10123000f0b79f003c04be002c05be0040c6b300c2
:1012400080cf5000030032006540400080cf500046
:101250000b003a00e00f5400e08f5c00e00f5d00ef
:10126000e08f5d0006003d006000b8006011b8002e
:1012700008045000898458000a0559008b855900dc
:10128000e00f5400e08f5c00e00f5d00e08f5d0038
:1012900004003a005c0890008d0120000000e0008e
:1012a0000c003200ffb0970001027800cfa2de00f0
:1012b00005037800860378000800be000a01be001e
:1012c000370407000fba970064407800d0e79f000a
:1012d0007d0120007fb0970000027800cfa2de00e1
:1012e00005037800860378000800be000a01be00ee
:1012f00024040700009ebe000296be000d00e90017
:10130000e1fc2f008f804000008740001a0037006a
:101310007fb1970002027800cfa2de0005037800bb
:10132000860378003c00be002c01be0020040700ac
:101330000205be000004be008d06e900ffb1970063
:1013400003027800cfa2de00050378008603780050
:101350000800be000a01be009e0407003fb29700cd
:10136000000052008fb8970060cf7800089ebe0042
:101370000a96be000e07e9003c00be002c01be002c
:10138000b0b79f00c1b79f00d2b79f00e3b79f00df
:10139000e00f5000e08f5800e00f5900e08f590037
:1013a000020034000d00e000d9ff3c00ffb09700c0
:1013b000e88f500010003a000c1090000038a30095
:1013c0000d003200f78f560006003e00e2fc2f00b1
:1013d0000d014100e2c07f0000c3b30080cf500088
:1013e000050032008d06e90000c3b300e3fc2f00c6
:1013f0008d81410080f17f0078811600120e9800e7
:101400006c009000e3fc2f008f8141008d80410033
:1014100083fc07001c0990005c089000800f5100bd
:1014200006003d0002005000000e98000c109000d5
:101430000040a100001698000f0037000000e000f7
:101440000d003d000c10900074006000f00f500083
:1014500009003a007c089000fc0090000100500058
:101460008c08900001005000020050004240a9008a
:1014700001003400000e98004f0778004f06be00b0
:101480004f05be004f04be006f02b1000000060011
:10149000820178000400370090cf10000500320070
:1014a0000000e8008301e9000300e000faff3a00d1
:1014b0000000eb00000006000c02e20004003d000a
:1014c0000f42ab00020032000f02ab00feff320001
:1014d0000040da00feff3700889fbe0080047800dd
:1014e00000c980000000e00003003a00100007007f
:1014f0000000e0000a00350000c980000900e0009b
:1015000002003a000004780006003700000478006a
:1015100009004000060007000000e00001003d0057
:101520000084eb00080078004f04be0000000600b5
:10153000800078000000e00004003a00a092210042
:1015400000c9880001017800060037000081eb0027
:10155000a0b22100808f500002003e0001c9880027
:101560000001eb000200780000000600889fbe002a
:101570008a9fbe00010578000100e00004003500ec
:1015800008003c000000e0002000320005003700a9
:1015900060001000e080180002003b0001f02c0009
:1015a0001a0037000004be006011b8006b0920006b
:1015b0000982cf00020039000882cf000441b00048
:1015c000694252000e00320008003b008281710027
:1015d000610164008904d1000884d3008b05e80010
:1015e0000442e800f9ff3a0005003700080444000f
:1015f00089844c008b05e9000442e900fbff3a00b6
:101600006b0107000af0a70001f0a0004f05be0023
:101610004f04be0000000600889fbe008a9fbe00e7
:101620008c1f7800880107001002200002003b0098
:10163000f0c888008c0137008a0062006408e1006d
:1016400002003a00f0c88800940137006108e10008
:10165000fcff32000800be00030478000b00070006
:1016600001f0a1009001070008f0a6000400370077
:101670000001be0091042400b0fd200079000700a5
:1016800009f0a70001f0a20080013700889fbe008a
:101690008a9fbe008c1f78006b0107007201330027
:1016a00003866c006450e1002e0032006420e100eb
:1016b000330032006150e1002f0032006120e10070
:1016c0003100320085855500eb07b000090020008d
:1016d00008042000050037000804440089844c00f9
:1016e0000a0031000603430087834b0000015300ca
:1016f00081815b00f8ff33000203be000800a000f8
:101700000804440089844c00f6ff3900c639dd0026
:101710008301730001003200130020008904d1000e
:101720000884d3000998a300050032000800a70030
:101730000300a0008904d1000884d3008b05e800d1
:101740008904d1000884d3000001eb000281d2009b
:101750001701070001f0a1000cf0a70001f0a000a4
:101760004a0137006420e1004c0132000801be004c
:101770000200be00f7ff37006120e10047013200a0
:101780006000b800f3ff37000000200001f82700d8
:10179000f0ff3700889fbe008a9fbe008c1f780034
:1017a000290107003001330003866c006450e1001a
:1017b000240032006420e100270032006150e10083
:1017c000220032006120e100210032008b854200be
:1017d000eb07b1000134b800003ab8000804420039
:1017e00089844a00013ab8000030b800888040007f
:1017f00009014a00040033000000400081804800d5
:10180000020149008b05e900c909dd008301700070
:101810000100320013002000c814de004814dd006f
:101820004709de001200b200c808de00088470001c
:10183000df00070001f0a1000cf0a70001f0a000fc
:10184000120137006120e100140132000801be00de
:101850000200be00f7ff37006150e100fcff3a00d4
:101860000e01370003f0a200889fbe008a9fbe00d1
:101870008c1f7800f4000700fb0033006450e10087
:101880004f0032006420e1005200320003826c00fd
:1018900007003b000905d0000306d000820f54006a
:1018a0000c065d0002003900020032008901780058
:1018b000030678008582550004003d000003fd000a
:1018c0008103fd008502ea008b854200840f7200cf
:1018d00002003b0060001000e08018006011b800ba
:1018e0000005eb007a28e1000a00390006007800c4
:1018f000c75ddd00f707b200878075002d00370057
:10190000828171000a017800610560008180d10048
:101910000080d3008502e900f9ff3b000604400087
:101920008784480002003b0060041400e0841c002f
:101930000988a300070032008a817100828171004a
:10194000610164008904d1000884d3008b05e8009c
:10195000170037000978a30013003a000b00e000dd
:10196000130034008b05e9000804440089844c000e
:101970000a4474000978a3000d003a000b00e0004f
:10198000070034008b05e9000804440089844c00fa
:1019900001003a000b0020000978a300f7ff320095
:1019a0000001eb0002003700828171000a0178001b
:1019b0007f0007000cf0a70001f0a000b300370083
:1019c0006420e10002003a00838f6c00b300330012
:1019d0000801be000200be00ac0037000001eb00b1
:1019e00016010700040032000200200003f8230063
:1019f00001f0a7009bff0700000006000001be00e9
:101a0000350107000470a70003f0a1006509b100cb
:101a1000160032000d0035006828e1000600350090
:101a2000f0ff2f00f1ff27000300e00013003b0050
:101a300001002800000005000000400081804800ef
:101a40008502e900fcff3a0008003700f88f4200e9
:101a500002003c008000eb00000005008100d10086
:101a60000080d3008502e800fcff3a000300e0009c
:101a700002003b0060001000e0801800000006003b
:101a80001400200029013700f4ff2f002701370040
:101a9000839f68000100e00002003d00600010002c
:101aa000e08018000300e00002003d00600111002a
:101ab000e0811900380107004f00e00002003b0000
:101ac00060001000e0801800000006000001eb003c
:101ad00041013700889fbe008a9fbe008c1f78009e
:101ae0000004be00fc0007000478a30026003a00b2
:101af0006120e1002500320009f8a30025003a002a
:101b00006420e10021003200f507b1000508a300c0
:101b10000200320000004000818048006044b800ac
:101b200003102000020020000000400081804800d7
:101b30000805440089854c000a0541008b85490051
:101b40000a0550008b855800030033000a00be00d0
:101b500002047400838474008301d1000281d300e5
:101b6000830f7100f0ff3a008904d1000884d3008c
:101b70006001490082017800c1adde00fb07b000c2
:101b80000b000700410037000960a0000800be00fc
:101b90003e00370012022000f2c88800f0ff2f003c
:101ba000f1ff27003900370004002000df00370074
:101bb00081002000618055000b003d000b002000db
:101bc00061fe2f000100e1001d00340082817100e0
:101bd000610164008904d1000884d3000000e8009a
:101be000faff3a00710020006100640003007000f9
:101bf000020060000900320061044400e0844c00ef
:101c00000988a500050032008b05e8006808e1009e
:101c100002003a008904d1000884d300f20f2000aa
:101c20000258e10005003d00c75ddd00f907b20084
:101c30008980750008007800000006000bf8270076
:101c40008b007800000005000004be00a200070021
:101c50000003be000405be000200be009e00070097
:101c6000844f7500000006000200be006450e100d1
:101c7000050036006420e100020036000968a30078
:101c800001003a000800be000160a0004f06780085
:101c90004f05be004f04be0000000600f0ff2f00fd
:101ca000f1ff2700f9ff3700889fbe008a9fbe0022
:101cb0008c9fbe000004be00870007000800be0025
:101cc000890678006420e100080039000400320031
:101cd0000160a00012022000f2c888005300370003
:101ce00091fc2300b0fd20004e0037000006eb0001
:101cf00009f0a10003f82300020020000800be0044
:101d00005fff07000600340001f8230000002000f8
:101d10000801be005dfe07000004be002c0020008c
:101d20000800be0093e82300320a230054ff070096
:101d3000120034000801be00d1fd2300703d2b00cd
:101d4000c9fe07000005be00b3f32300f27a2600a7
:101d50000800be008ffe070003f8230002002000e9
:101d6000c0fe07000801be00bffe07000a01be005a
:101d700046fe07000004be000c06e8000800be0096
:101d800001f0a10002002000039823003cff07009f
:101d90000800be00160035000801be007dfe0700e9
:101da0000005be0032cd2c0043fb2300aefe070031
:101db000809fbe001269280003d52b000a00be00d8
:101dc00074fe0700620f210013ef2b00a6fe070030
:101dd0000a01be006ffe07004f01be002bfe070088
:101de0000801be006bfe07000801be009efe070052
:101df0000c00e0000b0032000c10a70001f0a20064
:101e0000b2fd200093fc23006260e1000400320078
:101e100022a9200063f023000c10a70063f8230020
:101e200091fe07000df0a70001f0a2004f06be00d2
:101e30004f05be004f04be0000000600889fbe0094
:101e40008a9fbe000003be002300070085057800be
:101e500082815200020020006220e10004003a006a
:101e6000f307b100040035007718e10004003500e5
:101e70000600be00140037006000b8000f003700f5
:101e8000f50f2000faff2f008502d1000a85d3004c
:101e90008301e900fcff3b008184620000046500cf
:101ea000890f7400f2ff32008582ea000a85ea0099
:101eb00081846200000465003dff070007f0a70071
:101ec00001f0a0000081eb000200e0004f05be0021
:101ed0004f04be0000000600c70ade00f107b20092
:101ee000f50fb20008003200e1cf420002003200dc
:101ef0000170a00024000500810f70000100320075
:101f00000408050044000500810f700002003a003b
:101f1000140005008502e9000000400081c048006f
:101f2000fcff3b000170a00024000500889fbe005c
:101f30008a9fbe00841f780043ff07004f0078008f
:101f400011003300f0ff2f00838f6c0006003b0070
:101f5000040565000a00a7000800370009f0a60084
:101f60001000200008003700820f5400838f5c00af
:101f7000030039001000200001003e000000200096
:101f800009f0a7000000ea004f05be004f04be00a4
:101f90000000e000000006006022b80006022000f9
:101fa0000000d0008180d2000482d2008582d2005d
:101fb0000000a0000202520083825a0003003b008e
:101fc0000202420083824a000000a1000603e900e9
:101fd000f3ff3a0000000600889fbe008a9fbe0003
:101fe0008c9fbe000206780001f0a7000cf0a00054
:101ff0000004be00b8ff07000800be006420e10036
:102000000700390002003a00f1ff2700f0ff2f001f
:102010000160a00012022000f2c8880051003700c1
:1020200009f0a1000800be000200200003f8230010
:1020300095fe0700f4ff3c000800be0002002000ef
:10204000039823008efe07000800be003000350014
:102050000200200003f023008bfe070005003c0077
:102060000800be000801be00cafd07000005be0052
:102070000e0037000c10a2000000200001f8230021
:102080000801be00f7fd07000200200003f0230056
:10209000c0fd07000005be008efe07000200200004
:1020a00003002c00bbfd07000004be000a00be00b8
:1020b000b2d02800130b2c00ebfd07000a01be0074
:1020c000b4fd0700020f2500330b2400e6fd0700d6
:1020d000809fbe000a00be005206220013f02b00b3
:1020e000acfd0700b2662100f3f62300defd070019
:1020f0000a01be00a7fd07004f01be0063fd0700f7
:102100000801be00a3fd07000801be00d6fd0700c0
:102110000c00a70007003700b2fd200093fc23004d
:102120000c10a700d0fd07000cf0a70001f0a200e2
:102130000c0037000cf0a7000200370001f0a200ed
:1021400004003700b2fd2000930424000c10a60008
:1021500003003700b2fd200093fc23000c10a70001
:10216000c1fd07004f06be004f05be004f04be0074
:1021700000000600881f7800000478005001be00af
:102180004000be000000420081804a0002014b0076
:1021900083814b00009cbe000294be000400e1005d
:1021a0000588e1000690e1000798e1000200310097
:1021b000680044001008e8004f04780000000600a2
:1021c000f4874700889fbe008a9fbe008c9fbe0098
:1021d0008e1f78000205be000004be00d4b79f0029
:1021e000e5b79f00f6b79f0087bf9f000000eb0098
:1021f000c0b79f00b0b79f00a0b79f0090b79f00e7
:1022000080b79f000d042000bfb097004fb097002b
:10221000000140000000e00014003d004f08de0017
:1022200000007100c0b79f00ad00070001003d0035
:1022300012002000b000070001003d001200200045
:10224000b500070001003d0012002000ba000700a1
:10225000be000700feff3a00c2000700c8000700ea
:102260000f004000c3ff0700270037004f08de00c3
:1022700000067100ccb79f009900070001003d00e7
:10228000120020009c00070001003d001200200009
:10229000a100070001003d0012002000a600070079
:1022a000aa000700feff3a00ae0007000fb2970039
:1022b0009fb297002fb39700bfb39700b6000700f7
:1022c0000000520081805a0002015b0083815b00a4
:1022d00080b79f0091b79f00a2b79f00b3b79f0040
:1022e0000007eb00ac0007000020e10001a8e100be
:1022f00002b0e10003b8e100010031001e0020003f
:102300000e005600c0b79f004fb297000400e000d7
:102310000700350010002000010020006011b80007
:1023200008047000898470000a0571008b857100b3
:102330008d06e900b4ff3a000400e00003003d0010
:102340008f0007000f0040008aff07004fa897008a
:102350000000e00004003a000fb497009fb497001b
:102360002fb59700bfb59700970007004f0778007b
:102370004f06be004f05be004f04be004f01b10026
:1023800000000600881f780018002000881f7800d1
:102390008bff07008f87e9004f04780000000600dc
:1023a000801feb0086ff07008f87e9000000060012
:1023b000889fbe008a9fbe008c1f78007b000700ac
:1023c00005003d002f00070007003d003d0007000d
:1023d0000006eb00040037003f00070002003d004c
:1023e000300007001c00200077000700e5ff070011
:1023f0000203be000002be000c00e000010032003b
:10240000280007000400be000601be004f06780049
:102410004f05be004f04be0000000600889fbe00ae
:102420008a9fbe008c1f78006000070003003d00fb
:102430001400070006003d000400370026000700d6
:1024400003003d006000b8006011b8001d000700e7
:102450005d000700d2ff07000203be000002be00bd
:102460000c00e000010032000e0007000400be0076
:102470000601be004f0678004f05be004f04be00a7
:10248000000006006000b8006011b80008045000a9
:10249000898458000a0559008b8559001c002000ca
:1024a000030037006000b8006011b8000500370075
:1024b000e00f5200e08f5a00e00f5b00e08f5b00fe
:1024c00000000600040250008582580006035900ef
:1024d00087835900000006000006eb00f4ff370078
:1024e0000180400090b79f000001eb008fb0970083
:1024f0000100e000000006000200700090b79f009d
:102500000180400080b79f000001eb00ffa897000a
:102510000100e000000006000200700080b79f008c
:1025200001804000f0af9f000001eb00efa8970092
:102530000100e0000000060002007000f0af9f0004
:102540000182400020000700f50305008301d1004f
:102550000281d3008180d3000080d3008502e9008e
:102560000000060000027200e4af9f00080444006f
:1025700089844c000a054d008b854d000000060043
:102580003fb29700cfb297005fb39700efb39700c9
:1025900000fe2f00000006003fb09700cfb097006c
:1025a0005fb19700efb19700000006000205be0082
:1025b0000004be00e00f5000e08f5800e00f59000b
:1025c000e08f5900000006000800be000a01be00ae
:1025d00000000600889fbe008a9fbe008c1f780006
:1025e0000205be000004be000006eb00e00f500034
:1025f000e08f5800e00f5900e08f590007003d00c0
:102600006000b8006011b8000804500089845800c8
:102610000a0559008b8559001c002000e00f52006c
:10262000e08f5a00e00f5b00e08f5b0002003d008e
:102630000f0007000c00a2000800be000a01be0047
:10264000120007000203be000002be000c00e00002
:1026500001003200060007000400be000601be00b3
:102660004f0678004f05be004f04be000000060074
:102670006000b8006011b800040250008582580064
:10268000060359008783590000000600889fbe009a
:102690008a9fbe008c9fbe000404b8000506b800e7
:1026a0008904460060854e000606b8000a0546000b
:1026b000e0854e000706b8008b054600040eb80002
:1026c000890446000a854e00e0854d00050eb800dd
:1026d0000a0546008b854e00060eb8008b054600a5
:1026e0000416b8000a0546008b854e000516b80092
:1026f0008b054600041eb8008b0546000800be008e
:102700000a01be004f06be004f05be004f04be00ca
:1027100000000600889fbe008a9fbe008c9fbe00fe
:102720004400f800070f2000270288003400f8005a
:1027300007f02f000338e100040032002702800078
:102740004700b30027028800a3018800811f78009a
:1027500019002000804cdd001300200002047800e6
:10276000800678008904d100424edd000105780022
:102770000302e90004800800170000008a054600f3
:102780004218dd000902e900048008001000000082
:10279000000000004620c3003b025200df35c100ac
:1027a000080440001381c200ab825200264dc500d0
:1027b0003e85c400bb00cd00bb80cd003a00ca00fe
:1027c0002a80ca000700c9000580c900ba00cd00f0
:1027d000ba80cd000a054600020478008301d000cb
:1027e0008d06e900dfff3c004f0078003400f9005f
:1027f0004400f9004f06be004f05be004f04be0066
:10280000000006004600f8005000f80002202000fa
:102810003202880002002800130020008019dd0029
:1028200002817100820288000100780001017800b5
:1028300026002000470020008301e90003800800f3
:10284000070000000110e100040034001102be0086
:1028500092087800e2307b000489be008780400047
:10286000121978005000f9004600f9000000060037
:102870005200fa00a4060700e806070040c7bf00a0
:10288000614060000004e000020032004007a9003f
:102890000000fe0065060700000f78008e80e8004b
:1028a0001e007800801f780000402e00801f7800f6
:1028b00001007800acf60700e48757000e80e800be
:1028c000baf60700800078000e80e8002a070700ab
:1028d0001e00e00002003a00170a07002900370036
:1028e000100020009e0f100002003a002600070092
:1028f00024003700200020009e0f100002003a0044
:10290000fe0407001f003700300020009e0f10005b
:1029100002003a00630507001a003700400020005b
:102920009e0f100002003a00ce1807001500370075
:10293000500020009e0f100002003a00d718070038
:1029400010003700600020009e0f100002003a00c7
:10295000751907000b003700700020009e0f100053
:1029600002003a00a7190700060037008000200087
:102970009e0f100002003a008a190700010037007c
:10298000d41d0700ffff37001800fa00889fbe0023
:102990008a9fbe005c0607000040eb00da0c0700cf
:1029a0003e060700110020008000200038130700b9
:1029b000f00a07008000eb008000200034130700bd
:1029c0000000eb0040079800803e2000010020003e
:1029d0005007980061079800000037000000eb00e6
:1029e000dc090700300f980010002000d90907000b
:1029f000200f980020002000d6090700802eb0008c
:102a0000100f98001e0890000000e00006003d0036
:102a10009e08900080da2f00808f50000200340062
:102a20000000eb00100f98003e0890006103b90011
:102a30003e0890006101b9000235b80003b0b9004a
:102a40000b027800000242000790b9000002420029
:102a5000840578002e0890006104b9002e089000cb
:102a60006101b9000243b80003c0b9000702780051
:102a7000000242000990b90000024200840378007d
:102a80000a0543008b854b001e0890006104b900c5
:102a90001e0890006101b9000243b80003c0b900ec
:102aa00007027800000242000990b90000024200cb
:102ab000840378000a0043008b804b007007980065
:102ac000010f98005e009000ee009000c289de00c9
:102ad0004e0add004201de00020172007e0090001d
:102ae0008e08900002004000838048005007980044
:102af00061079800f0c680000000e0000a003a007c
:102b00004e0090000000e000070032000000eb00e3
:102b1000400798008000eb0080002000dc120700d6
:102b20000000eb00901407005e019000ee019000a1
:102b3000703e200001002000800f5100818f59005d
:102b400013003c004e009000e10f5000a3ff320044
:102b5000100020004007980010002000e0c6880008
:102b6000f0c680000000e000fdff3a0001f5210002
:102b700040b12200d6050700100020007a1407009b
:102b80008000eb0080002000c112070093ff370097
:102b90005e019000ee01900000902000d103200023
:102ba000800f5100818f59008cff34004e0090003f
:102bb000e20f500089ff32002000200040079800fb
:102bc00010002000e0c68800f0c680000000e00091
:102bd000fdff3a003e089000630f60001e00e00019
:102be00004003a00018420000000eb00b805070053
:102bf0000a003700100020009e0f100004003a0069
:102c0000016e200040842000b1050700030037005a
:102c100041d5200060f22000ad0507000000eb0068
:102c2000511407003e089000cf80de004ffa0700e5
:102c30000004be002e089000cf80de004bfa070093
:102c40000801be0074fa07001007980021079800d9
:102c50003e089000cf80de0044fa07000004be006a
:102c60002e089000cf80de0040fa07000801be0069
:102c700069fa0700b2fd20009304240083fa0700dc
:102c80000200200003082400c2fa0700b2fd200061
:102c900093fc2300f4fa0700b2fd200093ec23001c
:102ca000f1fa07004dfb070054fb070030079800be
:102cb000030037003e009000680050003007980085
:102cc0003e009000e80f5000faff3c000300370080
:102cd0003e00900068004000300798003e009000e1
:102ce0000000e000faff35003e00900011002000d7
:102cf0006712070039ff37000400fa00889fbe0002
:102d00008a1f78000000eb0010a08800060e070064
:102d10000004e000fdff32000000eb00000f78002f
:102d20000c0037001e0478001e007800c60e070055
:102d3000cf80de000dfa07000001be00080044004d
:102d40008000400040402100008040000288be001a
:102d50001e0fe800200020009e0f1000f1ff34003d
:102d60000000eb00000f7800510037000000eb007e
:102d700010079800170037001e0478009e0490008a
:102d80001e0078000000400080004000404021000c
:102d9000008040001000be00a2702d0033c223004e
:102da0007cfa07000001be004006200000c0b90008
:102db00009004000000040008000400020f5200095
:102dc000008040000288be001e0090000000e80065
:102dd000100798009e00900030062000808f500061
:102de000e5ff34001e0578001e007800000040005a
:102df0008000400040402100008040001004be00e0
:102e00001e0078000000400080004000404021008b
:102e1000008040001000be00d2cc2c00c3dc2b0090
:102e20005cfa07000001be000800be008efa070031
:102e30000001be000a00450080004000c0412100a2
:102e4000008040000288be001e0578001e00780049
:102e50000000400080004000404021000080400011
:102e60001004be001e0078000000400080004000fa
:102e700040402100008040001000be00d2cc2c0059
:102e8000c3dc230043fa07000001be000800be00b7
:102e900075fa07000001be000a00450080004000ee
:102ea00000412100008040000288be001e0fe800a3
:102eb000200020009e0f1000acff34004f0578006a
:102ec0004f04be000080fa00000006000000fa0077
:102ed0000000eb0020c88800930d07000004e0000c
:102ee000fdff32000080fa00000006000e00fa002c
:102ef0000000eb00540e0700800078000e80e80010
:102f000001087800100020004f0e070080007800b4
:102f10000e80e80011009800200020004a0e0700f3
:102f2000800078000e80e800210098000e80e80004
:102f300010007800cf80de008cf9070082a08000ae
:102f400093a080000042eb00244f9800ccfa0700c9
:102f50000000e000010035000200370010c0b3009f
:102f6000204f98002e4890000004a2000004e000ca
:102f700009003a000e80e80010007800cf80de00e3
:102f80007af90700e2a08000f3a08000befa0700f3
:102f90000000e00037003c000e80e80010009000c8
:102fa000cf80de0071f90700a2a08000b3a08000ee
:102fb0000042eb00144f9800b1fa07000000e00057
:102fc000010035000200370010c0b300104f980018
:102fd0001e4890000004a2000004e00009003a002e
:102fe0000e80e80010009000cf80de005ff907003f
:102ff00002a1800013a18000a3fa07000000e000f6
:103000001c003c000e80e80020009000cf80de0015
:1030100056f90700c2a08000d3a080000042eb0058
:10302000044f980096fa07000000e0000100350008
:103030000200370010c0b300004f98000e48900007
:103040000004a2000004e0000d003a000e80e80039
:1030500020009000cf80de0044f9070022a180000c
:1030600033a1800088fa07000000e00001003c0066
:1030700003003700140020006407980002003700a6
:103080000000eb00600798006e029000040f7800cb
:103090000e80e800730007001e0078000080fa0030
:1030a000000006000400fa00889fbe000000eb004c
:1030b00010079800650037000000eb00000f780053
:1030c0005c0037001e0490009e0478001e009000f3
:1030d0009e0078000000400000004000000040001a
:1030e00000004000000040000000400000004000e0
:1030f000000040000100400080004000608020008f
:103100000080400010007800cf80de0017f9070033
:103110000002be001e009000000040008000400041
:1031200040402100008040001001be000400be00ad
:10313000ccf9070031fa07000001780008004400cc
:10314000000040000000400000004000000040007f
:103150000000400000004000000040000900400066
:10316000800040006080200000804000020878005d
:103170001e0090009e00780000004000000040000b
:10318000000040000000400000004000000040003f
:1031900000004000000040000100400080004000ae
:1031a0006080200000804000100078000000e000f7
:1031b0001f003d001e0190009e0178001e0090003f
:1031c0009e00780000004000000040000000400029
:1031d00000004000000040000000400000004000ef
:1031e000000040000100400080004000608020009e
:1031f00000804000100078000002ea000200410058
:1032000000004000000040000000400000004000be
:1032100000004000000040000000400003004000ab
:10322000800040006080200000804000040878009a
:103230001e0fe800f00f20009e0f1000a1ff3400c9
:103240001e0090000000e800100798001e0090008b
:10325000e20f500098ff34004f04be000080fa00d7
:10326000000006000400fa00889fbe008a1f780054
:1032700010079800ac0c07000004e000fdff3200ce
:103280000000eb00000f78007b0037001e04780080
:103290001e007800000040008000400040402100f7
:1032a000008040001002be009e00780012a0800046
:1032b000400620000088b9000200400000004000e5
:1032c0008000400020f52000008040001001be007a
:1032d0000400be0063f907000001be0008004400be
:1032e0008000400040402100008040000288be0075
:1032f0001e04780019a080001e0078000000400025
:10330000800078001e0090000080400010007800cf
:10331000cf80de0095f80700a2702d0033c2230095
:103320001cf907000001be004006200000c0b900e3
:1033300009004000000040008000400020f520000f
:10334000008040000288be001e0478001e00780045
:10335000000040008000400040402100008040000c
:103360001002be009e00780012a0800040062000df
:103370000088b900020040000000400080004000ca
:1033800020f52000008040001001be000400be00b7
:1033900035f907000001be0008004400800040002d
:1033a00040402100008040000288be001e057800d9
:1033b0001e007800000040008000400040402100d6
:1033c000008040001004be001e0078000000400095
:1033d0008000400040402100008040001000be00fe
:1033e000d2cc2c00c3dc2b00eaf807000001be00a1
:1033f0000800be001cf907000001be000a004500dd
:1034000080004000c0412100008040000288be00d2
:103410001e0578001e00780000004000800040007b
:1034200040402100008040001004be001e007800d3
:10343000000040008000400040402100008040002b
:103440001000be00d2cc2c00c3dc2300d1f8070052
:103450000001be000800be0003f907000001be0025
:103460000a0045008000400000412100008040002b
:103470000288be001e0fe800200020009e0f1000f2
:1034800082ff340011a0800020062000808f5000b1
:1034900004003c0010a080000000e80010a088009c
:1034a000020037000000eb0010a088004f057800f4
:1034b0004f04be000080fa00000006000e00fa0073
:1034c00040079800510798006000b8002007980056
:1034d000310798004e009000e20f500041003e007e
:1034e0005e0090000000e0003e003200de00900030
:1034f00000102000808f50003a003e000000eb00da
:103500001007980021c880005e00900000805000e5
:103510001010b00080007800f00f2000008f6000d5
:103520002c0037004e0090009e0078000000400004
:10353000000040000000400000004000000040008b
:10354000000040000000400000004000010040007a
:103550008000400060802000008040001000780063
:103560006101b9002e009000be00900000004100f3
:103570008180490020079800310798001e009000c4
:103580000000e800100798009e00e800f00f2800f7
:1035900080806000610798006e0090000000e000ed
:1035a0000a003d00ee0090008100e90061079800ec
:1035b00000f02f00ee0090008080700061079800fe
:1035c0006e0090000000e80060079800ee00900098
:1035d000010f78009e0090005e009000808f5000e8
:1035e000d0ff39005e0090006101b8002e0090000d
:1035f000be00900026f907000080fa0000000600d7
:103600001000fa00110020000000eb00b2000700db
:10361000700798007e009000cf80de00d3f707008f
:1036200002002000030c240017f907000000e0004e
:1036300001003d000500370060e5200091fc2300fb
:103640002007980031079800170037007e0090008f
:10365000cf80de00c5f7070002002000030c2c001d
:1036600007f907000000e000010034000500370002
:1036700060e5200091fc2b0020079800310798009e
:10368000090037007e009000cf80de00b7f707000a
:1036900002002000030c2400fcf707000bf90700d0
:1036a00020079800310798006011b8002e009000a4
:1036b000be009000f4f807000000e00001003c00ac
:1036c0003a0037001100200020002000820007008f
:1036d000600798006e009000cf80de00a3f707001f
:1036e00002002000030a2400e7f807000000e000c1
:1036f00001003d000400370060e5200091fc23003c
:10370000008fbe00150037006e009000cf80de00f5
:1037100096f7070002002000030a2c00d8f80700e3
:103720000000e000010034000400370060e52000e4
:1037300091fc2b00008fbe00080037006e00900047
:10374000cf80de0089f7070002002000030a240072
:10375000cef70700ddf80700008fbe00f2982000ca
:1037600063f023001e00be00c7f807000000e00061
:1037700001003c00080037002e019000be019000bf
:1037800060e520009104240036f807004007980007
:10379000510798003e0037002e009000be009000b8
:1037a0004007980051079800390037002100200099
:1037b0000000eb0048000700600798006e009000d2
:1037c000cf80de0069f7070002002000030a240012
:1037d000adf807000000e00001003d0004003700e4
:1037e00060e5200091fc2300008fbe00150037002b
:1037f0006e009000cf80de005cf707000200200022
:10380000030a2c009ef807000000e00001003400cd
:103810000400370060e5200091fc2b00008fbe0003
:10382000080037006e009000cf80de004ff70700e1
:1038300002002000030a240094f70700a3f8070001
:10384000008fbe00f298200063f02b001e00be0027
:103850008bf807000000e000010035000800370089
:103860002e019000be01900060e52000910424002c
:10387000fcf7070040079800510798000400370044
:103880002e009000be00900040079800510798005d
:103890006011b8004e009000de00900078f807003c
:1038a0000000e000010035000700370062e520005d
:1038b000930c24004e009000de009000eaf7070011
:1038c00040079800510798004e009000de009000dd
:1038d0000080fa00000006001a00fa00889fbe006f
:1038e000300f9800410f980090ff2f00300798008c
:1038f000700020002007980080002000100798002a
:10390000800f2000000f78006000b800400798008a
:10391000510798003e009000100f98004b003700b0
:103920006000b80060079800710798009e00900042
:10393000010f9800320037003e0890008e0890007a
:103940000000400000004000000040000000400077
:103950000000400000004000000040000000400067
:103960000100400080004000608020000080400096
:10397000100078006104b9004e0990008e08900094
:103980001e089000808040000200410000004000be
:103990000000400000004000000040000000400027
:1039a0000000400000004000010040008000400096
:1039b0006080200000804000100078006101b900a4
:1039c0000243b80003c0b9000702780000024200b9
:1039d0000990b90000024200840378006e00900054
:1039e000fe0090000000430081804b0060079800bb
:1039f000710798000e0890000000e800000f980082
:103a00000e0890009e0f5000cbff35006e01900015
:103a1000fe0190004e009000de009000800f5100eb
:103a2000818f5900060034006e009000fe00900067
:103a300040079800510798009e089000210f9800b9
:103a40001e0890000000e800100f98009e089000eb
:103a50002e009000808f5000b1ff35002e0890009e
:103a60004f04be000080fa00000006000a00fa00c1
:103a70003007980041079800600020002007980058
:103a800062e5200093ec23003e009000ce00900001
:103a9000fdf707000000e00001003c0002003700d5
:103aa000700020002007980002ac2c0063f923006e
:103ab0003e009000ce009000f3f707000000e00009
:103ac00001003c0002003700900020002007980011
:103ad000c21e2500b3ff23003e009000ce009000e0
:103ae000e9f707000000e00001003c000200370099
:103af000c000200020079800b2c82e00f302240066
:103b00003e009000ce009000dff707000000e000cc
:103b100001003c0002003700a000200020079800b0
:103b200012022300230624003e009000ce009000e5
:103b3000d5f707000000e00001003c00020037005c
:103b4000d000200020079800b29d2300a308240085
:103b50003e009000ce009000cbf707000000e00090
:103b600001003c0002003700e00020002007980020
:103b700062ba2500330a24003e009000ce00900077
:103b8000c1f707000000e00001003c000200370020
:103b9000f00020002007980012d72700c30b240054
:103ba0003e009000ce009000b7f707000000e00054
:103bb00001003c0002003700600020002007980050
:103bc000110020002e0090000008dd002016880063
:103bd0006000b800008fbe00040037001000200015
:103be000010020001e0f40005e974800f0d3200027
:103bf00031002000be0f1000ae8f1800f7ff340018
:103c00000000eb00201688000080fa00000006008b
:103c10000600fa00100798002107980062e52000ce
:103c2000930424001e009000ae00900094f707005b
:103c30000000e00001003500140037000000eb0038
:103c4000830e0700803e2000e20d070080c12f0098
:103c50001d0e07001e009000ae00900062e52000df
:103c6000930c240089f6070002002800234a240050
:103c7000c8f6070061f70700000f7800700e070014
:103c80009e0f5000fdff3500160037000000eb00ce
:103c9000790e070080c12f00ce0d0700803e200066
:103ca000090e07001e019000ae01900060e52000a3
:103cb000910c2400ebf6070062e52000930c240031
:103cc00072f6070002002800234a2400b1f607001c
:103cd0004af70700000f7800630e07009e0f5000a0
:103ce000fdff35000000eb00ba0d07000000eb00ff
:103cf000f50d07000080fa00000006000600fa003b
:103d000010c0b30000080700a90d0700b90b070099
:103d1000f9fb0700f8fb07001000200020079800bf
:103d20000200370071fc0700200798002e00900069
:103d30000000e000fbff3a0064fc0700080a0700ef
:103d4000d8fc07002efe0700008fbe00000a070007
:103d50001e00be0045ff07001e00be00acff0700ae
:103d6000ecff37000000fa00e6c2bf000080fb0055
:103d70004600de00614060000081fb00e7c2bf003a
:103d80000080fb000000d100614060000080fb006b
:103d90000000400080007800e7c2bf006140600082
:103da0000080fb00008040000000400080007800a0
:103db000e6c2bf000080fb004700de000080fb0081
:103dc0000080400000004000000041000080fa0038
:103dd000000006000400fa00881f78001007980011
:103de0000000eb00000f7800090037001e0078008b
:103df00000004000800078001e0090000084400019
:103e00001e0078005c0a0700000c78001e0fe80016
:103e1000700020009e0f1000f4ff36004f04780061
:103e20000080fa00000006000400fa00000f78008d
:103e30001107980000ce2f009e0f100002003d00d9
:103e400000ce2f00000f7800003220009e0f1000df
:103e50000200340000322000000f78009e00900025
:103e600000ce2f00808f500002003d0000ce2f00ba
:103e7000100798009e00900000322000808f5000b4
:103e80000200340000322000100798001e00780065
:103e9000500d07001e0090008b0d07000080fa00f7
:103ea000000006001c00fa00170107000040eb00ac
:103eb000950707003e0d07004e0b0700419c2000b0
:103ec000c0362400600b0700419c200060302400b5
:103ed0005d0b0700c0362400e80b070060302400ab
:103ee000e60b0700a20907000000eb00100798008e
:103ef0009cff07000000a200614f60006c004700bb
:103f0000b4ff07000000eb002007980095ff0700b2
:103f1000610060000004e0003f0032001e04e00089
:103f200007003a0010c0b300004f7800830f07006d
:103f3000c0362400d10b070060302400e90b0700d5
:103f40000000eb00300798000a0037003e009000a8
:103f5000ec00470000004000e080780020032000d3
:103f6000808f500006003c003e0090000000e800fa
:103f7000300798003e009000e70f5000f3ff340038
:103f80003e009000e80f500003003a0010002000af
:103f9000200798005f00370060ff2f0010c38800e3
:103fa00060ff2f0080c38800a000200090c388001d
:103fb000a000200000c488006c004700a000900012
:103fc000c0122000808f5000520034006c00470067
:103fd0009000900080f32f00808040006c0047002c
:103fe000110098006c004700a000900080da2f00bc
:103ff000808040006c004700210098006c00470062
:10400000b0009000c0f92f00808040006c00470095
:10401000310098003f00370010c0b3009e4f1000e1
:1040200007003a000040eb00004f7800430f070004
:1040300060302400910b0700c0362400a90b070054
:104040000000eb00300798000a0037003e009000a7
:10405000ec00470000004000e080780020032000d2
:10406000808f500006003c003e0090000000e800f9
:10407000300798003e009000e70f5000f3ff340037
:104080003e009000e80f500003003a0010002000ae
:10409000200798001f003700a000200010c38800f0
:1040a000a000200080c3880060ff2f0090c388001c
:1040b00060ff2f0000c488006c004700d000900013
:1040c000c0122000808f5000120034006c004700a6
:1040d000c0009000c0f92f00808040006c004700b5
:1040e000410098006c004700d000900080da2f005b
:1040f000808040006c004700510098006c00470031
:10410000e000900080f32f00808040006c004700aa
:1041100061009800e015200050079800e01520008d
:10412000400798002e0090000000e00027003a00b1
:104130000000eb0030079800210037003e0090009f
:10414000800040002086210000804000100178009f
:104150003e009000ec0047000000400060807800c6
:104160004480de000090b900800078005e0090007e
:1041700001004000500798003e0090008000400081
:104180002087210000804000100178003e00900050
:10419000ec00470000004000608078004480de00b2
:1041a0000090b900800078004e00900001004000af
:1041b000400798003e0090000000e800300798009b
:1041c0003e009000e70f5000dcff3400ce0090006e
:1041d0005e00900014ff070080a92300010020006a
:1041e0000100070045ff37000800fa00200798008b
:1041f000310798006000b800008fbe00040037004f
:1042000010002000010020001e0f40005e974800b3
:104210002e009000be009000be0f1000ae8f180060
:10422000f7ff35000080fa00000006000000fa00e9
:10423000e6c2bf000080fb004600de006140600077
:104240000081fb00e7c2bf000080fb000000d1003e
:10425000614060000080fb000000400080007800aa
:10426000e7c2bf00614060000080fb0000804000aa
:104270000000400080007800e6c2bf000080fb0024
:104280004700de000080fb0000804000000040008e
:10429000000041000080fa00000006000200fa0061
:1042a000e202a8000000eb00000f780001003700d8
:1042b0001e0fe800f07022009e0f1000fcff34007b
:1042c0004c010700f50007000080fa00000006001e
:1042d0000400fa00000f780011079800deb8ef0024
:1042e000dc38ef009e0090001e007800b000070050
:1042f0000080fa00000006000000fa00e202a900b7
:104300000080fa00000006000000fa00c4c2a90004
:10431000c4e2a900c522a900c582a900c542a9001e
:10432000c5a2a900c5c2a900c5e2a900c0c2a900d2
:10433000c0e2a900c122a900c182a900c142a9000e
:10434000c1a2a900c1c2a900c1e2a900d022a9004e
:10435000cc22a900d042a900cc42a900e2e2a900e7
:10436000e302a900e802a900e822a900dee2a90010
:10437000df02a900e402a900e422a900e202a900e8
:10438000de02a900d602a900d622a900d642a900c1
:10439000d662a900d682a900d6a2a900d6c2a900d9
:1043a000d6e2a900d202a900d222a900d242a900d5
:1043b000d262a900d282a900d2a2a900d2c2a900c9
:1043c000d2e2a900d1a2a900cda2a900e842a90089
:1043d000e862a900e442a900e462a900de22a80084
:1043e000dec2a800e4c2a800e4e2a800e502a8003a
:1043f000e522a800d302a800d322a800d342a80037
:10440000d362a800d382a800d3a2a800d3c2a80078
:10441000d3e2a8000080fa00000006000c22ef00a2
:104420000e22ef000ee2a9000ec2a9008520a9000d
:104430008d20a8000de2a80070002000a0108800c8
:104440008540a9008d40a80081e0a900c00480003b
:10445000f1002f0000806000015520000080400026
:10446000c00488000fe2a8000f42a8008437ef00c4
:104470008637ef0000000600809fbe008520a9005f
:1044800020bc8000f003b200417421008100400094
:104490000000eb0012c2bf00804878008437ec00b7
:1044a0004f00be000040060020bc800031bc8000f0
:1044b000010050000000060021bc800032bc8000da
:1044c0000208e10008003200f203b200417421004a
:1044d0000281400092407800014878008637ec0065
:1044e00010002000000006000000eb0000000600a5
:1044f0008540a900809fbe00821f7800f018e2006e
:1045000015003200ec18e20016003200ee18e2004e
:104510001400320061c78000420020000f22af006b
:10452000feff370070c780000000e0000700320087
:104530000000e900eeb8b7003140780010e2b700a3
:104540000201e900f5ff3a0002003700ec38ef0005
:104550000100370061c788004f0178004f00be009e
:10456000004006000000200080c788004f0178004e
:104570004f00be0000400600f018e200feff3a00c7
:104580008d40a9008100e90071c78800b040780023
:104590008110880060c788001100200081c7880052
:1045a0008d40a8000000060080c7800000000600c3
:1045b000811f7800821f78004100dd000300370072
:1045c0004f017800cf0078000000060001c7880086
:1045d0000001eb0001802e00810040000300390043
:1045e0000200280082804000120020004400f800f1
:1045f0003400f8004440a800000020000200400001
:10460000a00188000000000040230200000000001c
:10461000110078000000a100c012880040230200b1
:1046200000000000110078000000a100d0128800f6
:104630004023020000000000110078000000a100eb
:10464000e012880040230200000000001100780002
:104650000000a100f0128800e0b8ed00e0b8ed0025
:10466000a1c88800a101800011c788003400f900aa
:10467000000000004400f9008920a900d0ff3700a5
:10468000e280400004003900a1018000e180400088
:10469000a10188000100280000000600811f7800a9
:1046a000801f7800f0ff2700c01288000030200033
:1046b0000000b300d0128800de02a9000000000054
:1046c000e002a9009001090000000000e002a8003b
:1046d00041e2a8004602ae00feff3700f0ff2700cf
:1046e000c0128800004020003001b300d0128800c2
:1046f0004602ae00feff3700f0ff2700c012880020
:10470000001020000030a0000040a000d01288005f
:104710004602ae00feff3700f0ff2700c0128800ff
:1047200000202000d01288004602ae00feff3700b5
:10473000f0ff2700c0128800006020000010a000d9
:10474000d01288004602ae00feff3700f0ff2700bf
:10475000c012880000702000f005b300d01288005d
:104760004602ae00feff370001f02000301280004c
:10477000010060000000e000fcff3a003012800001
:10478000010060000000e000fcff320030128000f9
:10479000010060000000e000fcff3a0030128000e1
:1047a000010060000000e000fcff32004662ae0045
:1047b00002003700801280009012800041e2a900c0
:1047c000f01e2000101288004362a8004342a80097
:1047d0008920a900a8c0a800a8a0a900a880a900b5
:1047e0009120a80041e2a8004f007800cf00780097
:1047f00000000600801f78004022ef004222ef00f8
:104800004422ef004822ef004c22ef00c6e2a8004d
:10481000e5a2a900e582a800e5e2a900e5c2a90099
:104820004002a9004022a90040a2a9004122a900fb
:1048300040c2a8004102a9004142a900f00e200098
:10484000101288004362a9004342a80030002000f3
:10485000201288004c02a8004802a8008920a90064
:104860009120a90041e2a9004f0078000000060055
:104870008920a900809fbe00829fbe008012800018
:1048800090128000a0128000b0128000dc18e200bc
:1048900026003a00e018e200240032003400f8005c
:1048a0004400f8004440a80010c78000a001880020
:1048b000a1c88000a02402000000000011007800c0
:1048c0000000a100c0128800a02402000000000027
:1048d000110078000000a100d0128800a02402007e
:1048e00000000000110078000000a100e012880024
:1048f000a024020000000000110078000000a100c8
:10490000f0128800e0b8ed00e0b8ed00a1c8880022
:10491000a101800011c788004400f9003400f900ab
:104920004f01be004f00be0000400600de38ef0021
:10493000dcb8ef004f01be004f00be000040060093
:10494000e280400004003900a1018000e1804000c5
:10495000a101880001002800000006000000fa0004
:10496000640007000080fa00000006000000fa0062
:10497000a10007000080fa00000006000000fa0015
:10498000a30007000080fa00000006000400fa00ff
:1049900020479800314798000040eb00004f780016
:1049a0001800370010c0b300004f78009e000700c9
:1049b0001e4f60002e409000b60107001e4f6000a1
:1049c0003e409000b30107001e4f6000b800070092
:1049d0001e4f60002e4090000040e800ad0107002f
:1049e0001e4f60000e00e800540107001e4f6000db
:1049f0001f010700d00007001e04e00003003a007a
:104a0000590007001e04e000e6ff32001e4090003f
:104a10000000fb000080fa00000006000600fa001b
:104a20002047980031479800424798000040eb002b
:104a3000004f78001200370010c0b300004f78001c
:104a4000790007001e4f60002e4090009101070082
:104a50001e4f60003e4090008e0107001e4f600018
:104a60004e4090008b0107001e4f6000b20007000f
:104a70001e4f60001e04e00003003a003a000700e9
:104a80001e04e000ecff32001e00fb000080fa0074
:104a9000000006000000fa000000370006c2bf0058
:104aa000614060000004e000fcff3a0006c2bf0065
:104ab000644060000004e000f8ff3a0006c2bf0056
:104ac000684060000004e000f4ff3a0006c2bf0046
:104ad000704060000004e000f0ff3a0009c2bf002f
:104ae0000044b2000004e000ecff3a000080fa004d
:104af000000006000400fa00600920002010880071
:104b000007e2a90007e2a80085c0a90085a0a900c6
:104b1000b10920009140780080cfb30000c0600050
:104b20005040b3009be0b7008da0a90000712200a7
:104b300001002000008fbe00040037000080eb0061
:104b40008080eb001e0f40005e9748001e00be00f4
:104b5000e00f5000e08f5800f8ff3a0010002000ee
:104b60000080fa00000006000400fa006000b800af
:104b7000008fbe0007e2a90085c0a90085a0a9009a
:104b80008da0a9000071220001002000008fbe004e
:104b9000040037000080eb008080eb001e0f400017
:104ba0005e9748001e00be00e00f5000e08f5800e6
:104bb000f8ff3a00cfff07000f0007000071220046
:104bc00001002000008fbe00040037000080eb00d1
:104bd0008080eb001e0f40005e9748001e00be0064
:104be000e00f5000e08f5800f8ff3a00100020005e
:104bf0000080fa00000006000000fa0085c0a9004d
:104c00008dc0a800100020000080fa0000000600ff
:104c10000000fa0085c0a9008dc0a9001000200086
:104c20000080fa00000006000600fa0010c0b30081
:104c3000e4f8b70008c2bf00704060000004e00064
:104c4000160032000602a8000071220001002000b8
:104c5000008fbe000a003700e4d8bf000004e00067
:104c600003003a0010002000200798000d003700d4
:104c70000080eb008080eb001e0f40005e97480034
:104c80001e00be00e00f5000e08f5800f2ff3a0017
:104c90008000eb0021079800020037000000eb00c5
:104ca000200798002e0090000080fa000000060007
:104cb0000600fa0060c0b300e4f8b70008c2bf0005
:104cc000684060000004e000160032000622a800e0
:104cd0000071220001002000008fbe000a00370092
:104ce000e4d8bf000004e00003003a0010002000f8
:104cf000200798000d0037000080eb008080eb005b
:104d00001e0f40005e9748001e00be00e00f5000de
:104d1000e08f5800f2ff3a008000eb002107980076
:104d2000020037000000eb00200798002e009000e2
:104d30000080fa00000006000600fa0050c0b30030
:104d4000e4f8b7000642a80000712200010020002c
:104d5000008fbe000a003700e4d8bf000004e00066
:104d600003003a0010002000200798000a003700d6
:104d70000080eb008080eb001e0f40005e97480033
:104d80001e00be00e00f5000e08f5800f2ff3a0016
:104d90008000eb00210798002e0090000080fa00b0
:104da000000006000600fa0030c0b300e4f8b700c7
:104db00006c2bf00614060000004e00010003a003d
:104dc00006c2bf00644060000004e0000c003a002e
:104dd00006c2bf00684060000004e00008003a001e
:104de00006c2bf00704060000004e00004003a000a
:104df00006c2bf00624060000004e0000300320011
:104e00000000eb00200798001600370006a2a9005a
:104e10000682a8000071220001002000008fbe0061
:104e20000a003700e4d8bf000004e00003003a00a5
:104e300011002000210798000a0037000080eb00d5
:104e40008080eb001e0f40005e9748001e00be00f1
:104e5000e00f5000e08f5800f2ff3a008000eb00b6
:104e6000210798002e0090000080fa000000060044
:104e70000600fa0030c0b300e4f8b70006c2bf0075
:104e8000614060000004e00010003a0006c2bf006c
:104e9000644060000004e0000c003a0006c2bf005d
:104ea000684060000004e00008003a0006c2bf004d
:104eb000704060000004e00004003a0006c2bf0039
:104ec000624060000004e000030032000000eb00dc
:104ed000200798001600370006a2a8000682a80046
:104ee0000071220001002000008fbe000a00370080
:104ef000e4d8bf000004e00003003a0011002000e5
:104f0000210798000a0037000080eb008080eb004a
:104f10001e0f40005e9748001e00be00e00f5000cc
:104f2000e08f5800f2ff3a008000eb002107980064
:104f30002e0090000080fa00000006000a00fa002f
:104f4000300798000071220001002000100798002f
:104f5000210798000040eb00004f780040c0b300ec
:104f6000e4f8b7000071220001002000100798004b
:104f7000210798001d00370006c2bf006140600095
:104f80000004e00013003a0006c2bf006440600065
:104f90000004e0000f003a0006c2bf006840600055
:104fa0000004e0000b003a0006c2bf007040600041
:104fb0000004e00007003a0009c2bf000044b2004c
:104fc0000004e00003003a0010c0b300004f780076
:104fd0000b0037001e009000ae00900061005000f2
:104fe000e080580010079800210798001e009000ec
:104ff000ae009000e00f5000e08f5800deff3a0056
:105000001e04e00003003a000000eb004007980097
:105010001d0037000662a800006a28001100200069
:10502000100798002107980010003700e4d8bf004f
:105030000004e00007003a0000c2bf008040780092
:105040003e009000014878001000200040079800c2
:105050000d0037001e009000ae009000610050006f
:10506000e080580010079800210798001e0090006b
:10507000ae009000e00f5000e08f5800ebff3a00c8
:105080000000eb00400798004e0090000080fa00fe
:10509000000006000800fa004047980020c0b30056
:1050a000e4f8b7004e40900002e2b7000071220021
:1050b00001002000008fbe000a003700e4d8bf00c6
:1050c0000004e00003003a001000200030079800c0
:1050d0000a0037000080eb008080eb001e0f4000cc
:1050e0005e9748001e00be00e00f5000e08f5800a1
:1050f000f2ff3a008000eb00310798003e0090007c
:105100000080fa0000000600801f78003400f800dc
:1051100000c0b300a00188000000fa0085c0a9000b
:105120000040eb00e4f8b7000080fa003400f9001a
:105130004f007800004006000000fa0072fc0700f3
:105140000040eb00f00207000a0107006a010700b7
:10515000feff37000600fa00000f78001e007800fe
:10516000200798002e009000e10f5000140032003c
:105170002e009000e10f5000040039002e00900036
:10518000e20f50001b003200270037009e0078001d
:1051900032c88000200320000088b90002004000cf
:1051a0008000400060e02000008040009000780017
:1051b00020c4800080805000110798001c00370038
:1051c0009e00780032c88000200320000088b900cb
:1051d000020040008000400060e0200000804000ad
:1051e0009000780030c48000808050001107980043
:1051f0000f0037009e00780032c880002003200096
:105200000088b900020040008000400060e02000fb
:105210000080400090007800b0c88000808050007e
:105220001107980002003700a029200010079800fd
:105230001e0090000080fa00000006000c00fa003a
:1052400040079800510798006000b80020079800b8
:10525000310798004e009000e20f500030003e00f1
:105260005e0090000000e0002d003200de009000a3
:1052700020032000808f500029003e000000eb003a
:105280001007980031c880005e0090000080500038
:105290003003b00022032000110009000280d80072
:1052a0008000fd00000f780019003700ce0090004c
:1052b0001e017800200320000088b9000200400091
:1052c0008000400060e02000008040001000780076
:1052d0006101b9002e009000be0090000000410066
:1052e0008180490020079800310798001e00900037
:1052f0000000e800100798001e00e80022032000cc
:10530000110009000200d8008000fd00000f7800a5
:105310009e0090005e009000808f5000e3ff3900f7
:105320005e0090006101b8002e009000be00900069
:10533000d7f107000080fa00000006000000fa0024
:10534000510020000000eb00bcff07008000780047
:1053500020c480000080500040c48800510020001c
:1053600010002000b5ff07008000780030c48000e6
:105370000080500050c48800510020002000200010
:10538000aeff070080007800b0c8800000805000a9
:1053900060c488000080fa00000006000000fa00e7
:1053a000889fbe008a9fbe00e4ff070040c48000c3
:1053b0006103b90040c480006101b9000235b80042
:1053c00003b0b9000b027800000242000790b90058
:1053d000000242008405780050c480006104b900d6
:1053e00050c480006101b9000243b80003c0b90095
:1053f00007027800000242000990b9000002420052
:10540000840378000a0543008b854b0060c480004c
:105410006104b90060c480006101b9000243b800b2
:1054200003c0b90007027800000242000990b900e9
:1054300000024200840378000a0043008b804b0086
:105440004af00700a3f1070070c4880081c48800f7
:1054500040c480006103b90040c480006101b9000c
:105460000235b80003b0b9000b0278000002420018
:105470000790b900000242008405780050c4800003
:105480006104b90050c480006101b9000243b80052
:1054900003c0b90007027800000242000990b90079
:1054a00000024200840378000a0043008b804b0016
:1054b0002ef0070087f107000004be0060c48000e2
:1054c000cf80de0029f007000801be0052f007007f
:1054d000c209230053262c00aef007000200200072
:1054e000432b2400e0f00700b0c48800c1c488004a
:1054f000b0c48000c1c4800002002000030a240060
:105500005ff107000000e0000100350004003700f3
:105510006000b80090c48800a1c488001100370062
:1055200050c48000cf80de0010f007000004be00f1
:1055300040c48000cf80de000cf007000801be00f0
:1055400035f00700c20923005326240091f007001c
:105550000200200043332400c3f0070090c48800f9
:10556000a1c488004f05be004f04be000080fa00b1
:10557000000006000000fa00210320000000eb00fc
:105580002eff070020c48800210320001000200007
:105590002aff070030c488002103200020002000db
:1055a00026ff0700b0c888000080fa00000006004f
:1055b0000c00fa00881f78000004780077ff0700cd
:1055c00070c4800081c48000008fbe0090c4800041
:1055d000a1c480002007980031079800b0c4800063
:1055e000c1c4800040079800510798008e007800e1
:1055f000080078001101be000288be00640040006f
:10560000e48040001101be000288be00640040003a
:10561000e48040001101be000288be00080078004e
:105620004f0478000080fa00000006000000fa0035
:105630005aff0700b0c48000c1c480000080fa0097
:10564000000006000000fa0054ff070090c480002c
:10565000a1c480000080fa00000006000000fa00eb
:105660004eff070070c4800081c480000080fa00f3
:10567000000006000600fa00881f78000004780089
:105680002eff070040c48000000f780050c4800047
:105690001007980060c48000200798001e00be001c
:1056a000008cbe00ae009000210498000800780035
:1056b0004f0478000080fa00000006000000fa00a5
:1056c0001eff070040c480000080fa0000000600b2
:1056d0000000fa0019ff070050c480000080fa00a3
:1056e000000006000000fa0014ff070060c48000fc
:1056f0000080fa00000006001600fa006000b80002
:10570000008fbe00cfff0700008fbe0010c48000d6
:10571000cf80de0095ef07001e01be0051f00700ac
:10572000b6f00700200f98002e0890000000e0005f
:1057300003003d00ae0890008100ea00210f9800b0
:105740002e0990006110b90088ef070002002000c8
:10575000030a2400ccf007000000e00001003c0038
:1057600067013700c5e2a900c5c2bf000080fb0089
:105770004700de0061406000004040000040400003
:105780000040400000404000004040000041400018
:10579000512c200091407800f0cbb30000c0600095
:1057a00002407000c5e2b700c5c2bf000080fb0028
:1057b0004600de0061406000614060000040400043
:1057c00000404000004040000040400000414000d8
:1057d000512c200091407800f0cdb30000c0600053
:1057e00002407000c5e2b700c5c2bf000080fb00e8
:1057f0004500de0061406000614060000040400004
:1058000000414000512c200091407800b0cfb300ff
:1058100000c0600002407000c5e2b700c5c2bf0012
:105820000080fb004200de006140600061406000db
:105830000040400000404000004040000041400067
:10584000512c200091407800f0ceb30000c06000e1
:1058500002407000c5e2b700c5c2bf000080fb0077
:105860004400de0061406000614060000041400093
:10587000512c200091407800d0cfb30000c06000d0
:1058800002407000c5e2b700c5c2bf000080fb0047
:105890000000d10061406000004040000040400036
:1058a00000404000004040000040400000404000f8
:1058b00080404000c4c2bf000074a10001407000dd
:1058c000c4e2b700c4c2bf000080fb004700de0096
:1058d0006140600000404000004040000040400047
:1058e000004040000040400000414000412c2000aa
:1058f00091407800f0cbb30000c06000024070001f
:10590000c4e2b7000040eb002057980002002c00d2
:10591000833a24001e00be005bf007000000e00098
:1059200001003c000200370011c0b300215798006d
:105930000041eb001257980002002000431b240096
:105940001e00be004ef007000000e0000100340021
:105950000200370010c0b30010579800ae509000fe
:105960001e51900002c070000004a2000004e0007c
:1059700011003a000040eb00005798000200280098
:10598000634224001e00be0087f007000000e00014
:1059900001003a000200370011c0b300015798001f
:1059a0000e5090000004a2000004e00002003a0043
:1059b000c4c2a800cf0037000041eb00724f98002e
:1059c00002002000431b24001e00be002ef0070032
:1059d0000000e00001003c000200370010c0b300ee
:1059e000704f98007e4890000004a2000004e00080
:1059f00011003a008040eb00614f98000200200047
:105a0000732824001e00be001df007000000e00007
:105a1000010034000200370012c0b300624f98004a
:105a20006e4890000004a2000004e00002003a006a
:105a3000c5e2a800af0037000040eb00504f9800cf
:105a400002002000732824001e00be000ef0070094
:105a50000000e00001003c000200370011c0b3006c
:105a6000514f98005e4890000004a2000004e0003e
:105a700011003a000041eb00424f98000200200064
:105a8000132e24001e00be00fdef07000000e00002
:105a9000010034000200370010c0b300404f9800ee
:105aa0004e4890000004a2000004e00002003a000a
:105ab000c5c2a8008f0037008040eb00314f98002e
:105ac00002002000132e24001e00be00eeef07008f
:105ad0000000e00001003c000200370012c0b300eb
:105ae000324f98003e4890000004a2000004e000fd
:105af00011003a000040eb00204f980002002800ff
:105b0000d33124001e00be00ddef07000000e000de
:105b1000010034000200370011c0b300214f98008b
:105b20002e4890000004a2000004e00002003a00a9
:105b3000c5a2a8006f0037000041eb00124f98008b
:105b400002002800d33124001e00be00ceef070063
:105b50000000e00001003c000200370010c0b3006c
:105b6000104f98001e4890000004a2000004e000be
:105b700011003a008040eb00014f9800020028001d
:105b8000a33424001e00be00bdef07000000e000ab
:105b9000010034000200370012c0b300024f980029
:105ba0000e4890000004a2000004e00002003a0049
:105bb000c542a8004f0037000040eb007047980036
:105bc00002002800a33424001e00be00aeef070030
:105bd0000000e00001003c000200370011c0b300eb
:105be000714798007e4090000004a2000004e0008d
:105bf00011003a000041eb006247980002002800c3
:105c0000733724001e00be009def07000000e00077
:105c1000010034000200370010c0b3006047980054
:105c20006e4090000004a2000004e00002003a0070
:105c3000c582a8002f0037008040eb005147980034
:105c400002002800733724001e00be008eef0700fc
:105c50000000e00001003c000200370012c0b30069
:105c6000524798005e4090000004a2000004e0004b
:105c700011003a000040eb00404798000200240069
:105c8000233924001e00be007def07000000e00065
:105c9000010034000200370011c0b30041479800f2
:105ca0004e4090000004a2000004e00002003a0010
:105cb000c522a8000f003700020024002339240069
:105cc0001e00be0070ef07000000e00001003c0075
